:020000040800F2
:1000000040100020F10100088D3100088531000802
:100010008931000821030008593C00080000000055
:10002000000000000000000000000000FD3100089A
:10003000ED030008000000009131000809320008BB
:100040000B0200080B0200080B0200080B0200085C
:100050000B0200080B0200080B0200080B0200084C
:100060000B0200080B0200080B0200080B0200083C
:1000700025030008350300080B0200080B020008E6
:100080000B020008000000000B0200080B02000831
:100090000B020008F50300080B0200080B02000821
:1000A0000B0200080B0200080B0200080B020008FC
:1000B0000B0200080B0200080B0200080B020008EC
:1000C0000B0200080B0200080B0200080B020008DC
:1000D0000B020008793B00080B020008F93B0008FE
:1000E0000B0200080B0200080B0200080B020008BC
:1000F0000B0200080B0200080B02000800000000C1
:10010000000000000B020008000000000B020008C5
:100110000B020008000000000B0200080B020008A0
:100120000B0200080B0200080B0200080B0200087B
:100130000B02000800000000000000000B02000895
:100140000B0200080B020008000000000000000085
:10015000000000000000000000000000000000009F
:100160000000000000000000000000000B0200087A
:100170000B0200080000000000000000000000006A
:10018000000000000B02000800000000000000005A
:10019000000000000000000000000000000000005F
:1001A00000000000000000000B0200080B02000825
:1001B0000B0200080B0200080B0200080000000000
:1001C000000000000B02000800000000000000001A
:1001D0000B0200080B020008DFF810D000F08EF8C8
:1001E0000048004745440008AFF30080401000205D
:1001F0000648804706480047FEE7FEE7FEE7FEE7C1
:10020000FEE7FEE7FEE7FEE7FEE7FEE779320008DD
:10021000D90100082DE9F05F0546002092469B4673
:1002200088460646814640241BE02846414647460C
:10023000224600F053F853465A46C01A914110D353
:1002400011461846224600F03AF82D1A67EB0108CD
:100250004F4622460120002100F031F817EB00093B
:100260004E41201EA4F10104DFDC484631462A46F7
:100270004346BDE8F09F40EA01039B0703D009E035
:1002800008C9121F08C0042AFAD203E011F8013B82
:1002900000F8013B521EF9D27047D2B201E000F8DB
:1002A000012B491EFBD270470022F6E710B513461A
:1002B0000A4604461946FFF7F0FF204610BD202AE3
:1002C00004DB203A00FA02F1002070479140C2F1AD
:1002D000200320FA03F3194390407047202A04DBDF
:1002E000203A21FA02F00021704721FA02F3D040AF
:1002F000C2F120029140084319467047064C074D51
:1003000006E0E06840F0010394E8070098471034E5
:10031000AC42F6D3FFF764FF50480008704800086D
:1003200000BFFEE710B5024800F0E3FA10BD000080
:10033000C80B002010B5024800F0DBFA10BD000029
:10034000D80A002030B50E4D0468AC4201D20D49E8
:1003500001E00C4920310B460478083C1425B4FB1D
:10036000F5F2446CA40803EB84048464054C8034E7
:10037000C46402F01F050124AC40046530BD0000D8
:10038000080402400008024001794A1E064B03EBB4
:1003900082024265044A403282654A1E02F01F030F
:1003A00001229A40C26570470009024030B5D0E989
:1003B00013546C60446D14B1D0E916546C6090F81D
:1003C000444004F01F050124AC40056C6C600468D7
:1003D00063608468102C04D10468A2600468E16042
:1003E00003E00468A1600468E26030BD704772B643
:1003F00000BFFEE710B5094800F0C1FD00BF084B83
:10040000084A4021054800F02DFD0028F7D0044996
:100410000448054A1268904710BD00006808002093
:1004200030090020E40800203C00002010B51949E4
:1004300001640368D3F8803023F4F814838E44EA0F
:1004400003430468C4F8803001F170034364036817
:10045000D3F8803023F0706490F8383044EA0363B6
:100460000468C4F8803001F1B003836401F5C473FB
:10047000C36401F51873036501F51E7343650A46ED
:1004800002E000231360121D01F554739A42F8D361
:1004900010BD000000A400402DE9F04105461446BF
:1004A0001E46D1F804C0BCF1000F0AD1D1F810C02B
:1004B000D1F808804CEA080CB1F800804CEA884377
:1004C0000BE0D1F810C04CF0804CD1F808804CEA19
:1004D000080CD1F800804CEA080391F82080D1F88C
:1004E0001CC04CEA086CD1F818804CEA080CD1F812
:1004F00014804CEA080CD1F80C804CEA080706EB93
:10050000C608D5F854C00CEBC8021360121D176062
:10051000121D002019E000F1030C14F80CC04FEA82
:100520000C6800F1020C14F80CC048EA0C4800F109
:10053000010C14F80CC048EA0C2C14F800804CEAAA
:10054000080CC2F800C0121D001DDFF81880D1F899
:100550000CC008EB1C4C9CF800C08445DBD8BDE8FF
:10056000F0810000104800081B49087F012801D0D5
:10057000032816D11949096821F40071174A11603E
:1005800000BF1146096841F4006111601146096815
:1005900021F40061116000BF1146096841F4007147
:1005A0001160022801D0032811D100BF0B4909684E
:1005B00041F48051094A11601146096821F48051C3
:1005C000116000BF1146096841F48061116000218B
:1005D000014A1177704700000C0000200020024003
:1005E00000F0010129B10649496941F00401044ABA
:1005F00051610349496941F48031014A51617047B1
:1006000000200240094A526922F4FC72C3B242EA55
:10061000C302064B5A611A46526942F002025A61FD
:100620001A46526942F480325A61704700200240F3
:1006300010B50849496941F00101064C6161026049
:1006400000BF00BF00BFBFF36F8F00BF00BF00BF80
:10065000436010BD00200240F0B50246402314461E
:100660000D460C4E766946F480260A4F7E6100BF27
:10067000EFF31086304672B600BF2E682660241D48
:100680002D1D5E1EF3B2002BF7D100BF80F3108842
:1006900000BFF0BD0020024070B5054601F044F9EE
:1006A000064606E001F040F9801BA84201D903206C
:1006B00070BD1A48006900F48030B0F5803FF1D079
:1006C000164800694CF2FA3100EA0104CCB1144832
:1006D000406820431249486000BF04F0404030B1F8
:1006E0000E48806904F0404108430C49886124F0B9
:1006F000404018B124F040400849086100BF012083
:10070000D6E70648006900F0010020B100BF0120D3
:100710000249086100BF0020CAE700000020024033
:100720000C0000200146002091F82520022A03D069
:100730000422CA63012027E00A68126822F00E0230
:100740000B681A608A6C126822F480728B6C1A60D3
:100750000A68126822F001020B681A6091F84420BE
:1007600002F01F0301229A400B6C5A60D1E9133248
:100770005A604A6D42B14A6D126822F480724B6D24
:100780001A60D1E916325A60012281F8252000BF93
:10079000002281F8242000BF704770B50446002570
:1007A00094F8250002280BD00420E063012084F88F
:1007B000250000BF002084F8240000BF012534E09C
:1007C0002068006820F00E0021680860206800683A
:1007D00020F0010021680860A06C006820F480709F
:1007E000A16C086094F8440000F01F0101208840CB
:1007F000216C4860D4E913104860606D40B1606DB1
:10080000006820F48070616D0860D4E916104860BB
:10081000012084F8250000BF002084F8240000BFD8
:10082000A06B10B12046A16B8847284670BD000020
:1008300010B504460CB9012010BD2068006820F0F6
:100840000100216808602749206888420BD22649A8
:100850002068401A1421B0FBF1F080006064224847
:10086000083820640AE01F492068401A1421B0FBB0
:10087000F1F0800060641B48083820640020216883
:10088000086094F8440000F01F0101208840216CAA
:1008900048602046FFF756FD0020A16C0860D4E9AF
:1008A00013104860606858B16068042808D8204672
:1008B000FFF76AFD0020616D0860D4E916104860FA
:1008C00000206065A065E065E06220636063A0636E
:1008D000E06384F8250000BF84F8240000BF00BF57
:1008E000AAE7000008040240080002400146C86B65
:1008F000704770B50446206C05682068066894F857
:10090000440000F01F01042088402840E0B106F0B8
:100910000400C8B12068006800F0200028B92068F1
:10092000006820F004002168086094F8440000F09A
:100930001F0104208840216C4860206B002856D09D
:100940002046216B884752E094F8440000F01F01D4
:1009500002208840284018B306F0020000B3206847
:10096000006800F0200040B92068006820F00A000C
:1009700021680860012084F8250094F8440000F004
:100980001F0102208840216C486000BF002084F8CD
:10099000240000BFE06A50B32046E16A884726E0A1
:1009A00094F8440000F01F01082088402840F0B16E
:1009B00006F00800D8B12068006820F00E00216819
:1009C000086094F8440000F01F0101208840216C69
:1009D00048600120E06384F8250000BF002084F80F
:1009E000240000BF606B10B12046616B884770BD6A
:1009F00070B504460CB9012070BD2F4920688842AB
:100A00000BD22E492068401A1421B0FBF1F080006F
:100A100060642A48083820640AE027492068401AA0
:100A20001421B0FBF1F08000606423480838206492
:100A3000022084F825002068056847F6F070854399
:100A4000D4E9020108432169084361690843A169A7
:100A50000843E1690843216A0843054320680560AB
:100A60002046FFF76FFCA068B0F5804F01D1002051
:100A700060602079A16C0860D4E913104860606858
:100A800060B16068042809D82046FFF77DFC00208B
:100A9000616D0860D4E91610486003E000206065CD
:100AA000A065E0650020E063012084F825000020B7
:100AB00084F8240000BF9FE70804024008000240B9
:100AC0002DE9F04104460D4616461F464FF000083A
:100AD00000BF94F82400012802D10220BDE8F08173
:100AE000012084F8240000BF94F8250001283FD19C
:100AF000022084F825000020E0632068006820F0D0
:100B00000100216808603B46324629462046FFF72F
:100B10004DFC206B30B12068006840F00E00216869
:100B200008600BE02068006820F00400216808607D
:100B30002068006840F00A0021680860A06C006826
:100B400000F4803028B1A06C006840F48070A16C83
:100B50000860606D28B1606D006840F48070616D60
:100B600008602068006840F001002168086006E025
:100B700000BF002084F8240000BF4FF00208404668
:100B8000ACE7000010B54FF0FF300C49886300203F
:100B90008863401E086400200864401E88620020AC
:100BA0008862401EC8620020C862401E08630020A0
:100BB000086300F007FF002010BD00000010024095
:100BC00070B5044600F0B0FE06462546681C10B11C
:100BD00004480068054400BF00F0A6FE801BA84240
:100BE000FAD370BD0800002070B50346144693F890
:100BF0005C5001F4C07000B100BF012D01D0022D86
:100C00007DD11868826D01F0070010B102F001007B
:100C100018B301F0380010B102F00200E8B101F49D
:100C2000E07010B102F00400B8B101F4F05010B15E
:100C300002F0080088B101F4604010B102F0100029
:100C400058B101F4403010B102F0200028B101F495
:100C50007C0040B102F0400028B91868C06D40F037
:100C600001001E68F06501F0070010B102F00100FC
:100C700018BB01F0380010B102F00200E8B901F42D
:100C8000E07010B102F00400B8B901F4F05010B1F6
:100C900002F0080088B901F4604010B102F01000C1
:100CA00058B901F4403010B102F0200028B901F425
:100CB0007C0040B102F0400028B11868C06D40F0DF
:100CC00002001E68F06501F0800030B11868D0F8AD
:100CD000DC0020431E68C6F8DC0001F4807030B1EF
:100CE0001868D0F8E00020431E68C6F8E0001868D5
:100CF000406D08431E687065002070BDFFE7186EE8
:100D000040F0020018660120F7E72DE9F0410446A3
:100D10000E461746706800B900E000BF94F85C000A
:100D2000022821D12068D0F8C40000F4001030B1AE
:100D3000206E40F4007020660120BDE8F08120683C
:100D4000D0F8C400C0F301452B463A463146204650
:100D5000FFF7A2FB0120A8402168C1F8CC000120C8
:100D6000A840A0650020E8E7206E40F0080020665B
:100D70000120E2E7F0B5024692F85C60012E01D056
:100D8000022E23D1086880B9087A80070F7B40EAD9
:100D9000C7600F8A40EA07404F6940EA0704176CB2
:100DA000486807EB80031C600EE00F7B086940EA8F
:100DB00047740F7A486940EA8775576C486807EBB3
:100DC000C0031C601B1D1D600020F0BD106E40F0B4
:100DD000020010660120F8E770B50446049D94F8FF
:100DE0005C00012810D1080140EA820040EA43007B
:100DF00028432668D6F8806026F03F0630432668F0
:100E0000C6F88000002070BD206E40F0040020660F
:100E10000120F8E710B5034693F85C00012805D1DE
:100E200042EA01201C68A064002010BD186E40F04A
:100E3000040018660120F8E7014691F85C000128DB
:100E400007D10868C06840F400000A68D06000203C
:100E50007047086E40F0040008660120F8E770470C
:100E6000704700002DE9F04304460E469C4694F876
:100E70005C80B8F1020F79D1402E17D12068D0F8EC
:100E8000900000F00F0030B9206E40F480702066B2
:100E90000120BDE8F0832068D0F89000C0F3012362
:100EA00003EBC309A06C00EBC90115E02068D0F882
:100EB000980000F00F0028B9206E40F48070206682
:100EC0000120E6E72068D0F89800C0F3012303EB87
:100ED000C309E06C00EBC901086800F08040506075
:100EE000506820B90868C0F38A40106003E00868C1
:100EF00020F060401060086800F0005090600868C2
:100F000000F000401061091D088880B2D0610868B7
:100F100000F47020D060086800F480105061086808
:100F200000F4001090610868C0F306601062086861
:100F3000C00F5062091D0F46002503E0785D0CF8D4
:100F400005006D1CDFF83090D06809EB1040007888
:100F5000A842F3D8402E04D12068C0F8943003E0B2
:100F600004E02068C0F89C30002092E7206E40F03A
:100F70000800206601208CE71048000870472DE922
:100F8000F05F04462068006D00F4E0552068406D75
:100F900005402068006D00F007062068406D06409F
:100FA0002068006D00F038072068406D0740206819
:100FB000006D00F471082068406D00EA08082068A0
:100FC000006D00F460292068406D00EA090920687E
:100FD000006D00F0400050B12068406D00F040000E
:100FE00028B14020216808652046FFF7C7FF206828
:100FF000006D00F48070A0B12068406D00F4807036
:1010000078B12068D0F8D8B02068D0F8E00000EAC5
:101010000B0B4FF48070216808655946204600F09C
:1010200008FA2DB1206805652946204600F003FA2C
:101030002EB1206806653146204600F0DFF92FB159
:10104000206807653946204600F0D9F92068006D10
:1010500000F4007058B12068406D00F4007030B1A9
:101060004FF4007021680865204600F0E5F920681B
:10107000006D00F0800098B12068406D00F08000A5
:1010800070B12068D0F8D4A02068D0F8DC0000EA65
:101090000A0A8020216808655146204600F0CAF9F6
:1010A0002068006D00F4005058B12068406D00F4D5
:1010B000005030B14FF4005021680865204600F020
:1010C000B7F92068006D00F4004058B12068406D09
:1010D00000F4004030B14FF400402168086520461C
:1010E00000F0A5F92068006D00F4804060B1206830
:1010F000406D00F4804038B14FF4804021680865AD
:10110000206E40F080002066B9F1000F06D0206804
:10111000C0F8509049462046FFF7A2FEB8F1000FF4
:1011200006D02068C0F85080206E40EA0800206693
:10113000206E10B12046FFF792FEBDE8F09F000040
:1011400070B504460CB9012070BD81492068884201
:1011500000D100BFA068B0F5407F00D100BF94F877
:101160005C0028B9002084F85D00204600F0F4F807
:101170002068806920F010002168886100F0D4FBAD
:1011800005460DE000F0D0FB401B0A2808D9206E70
:1011900040F001002066032084F85C000120D3E7C2
:1011A0002068806900F008000828EBD0206880697A
:1011B00040F001002168886100F0B6FB05460DE0B3
:1011C00000F0B2FB401B0A2808D9206E40F0010055
:1011D0002066032084F85C000120B5E72068806960
:1011E00000F001000028EBD02068806940F0020088
:1011F0002168886156492068884202D15549606853
:101200000860207C012806D12068806920F0400019
:101210002168886105E02068806940F0400021680D
:101220008861607C012806D12068806940F4804094
:101230002168886105E02068806920F48040216889
:101240008861A07C012806D12068806920F4805044
:101250002168886105E02068806940F48050216839
:1012600088612068806920F44070A1680843216883
:1012700088612068806920F0A40021688861206866
:10128000006920F0100021680861E068012806D19B
:101290002068806940F004002168886120E0E068EF
:1012A000F0B1E068022815D02068806940F0800025
:1012B000216888612068006940F010002168086199
:1012C000E06803280CD12068806940F02000216884
:1012D000886105E02068806940F02000216888610D
:1012E000207E401E4106E069401E41EA0020216A3E
:1012F000491E0843A18A491E40EA01402168C8618D
:10130000A068B0F5407F0FD1A06A401EE16A491E77
:1013100040EA0121206B401E41EA0011A08C401ED2
:1013200041EA00402168C8602068D0F8C000E16B45
:1013300008432168C1F8C0002046FFF777F8002075
:10134000A0652066012084F85C000020FCE6000017
:10135000006400400065004010B598B004461421B8
:1013600013A8FEF7A1FF442102A8FEF79DFF204924
:10137000206888423AD18014029040030E9002A85F
:1013800000F062FC08B1FFF732F800BF1948806D29
:1013900040F00070174988650846806D00F00070C5
:1013A000019000BF00BF00BF0846C06C40F00200C3
:1013B000C8640846C06C00F00200019000BF00BF86
:1013C0004FF4407013900220149000201590169056
:1013D0000920179013A9084800F0BAF90022114615
:1013E000152000F049FB152000F032FB18B010BDAD
:1013F000006400400010024000040048704770473D
:10140000014691F85C0001280BD1022081F85C00B4
:101410000868806920F001000A6890610020086671
:101420007047086E40F0040008660120F8E7704736
:101430007047704770477047704700002DE9F041D2
:1014400004460F4600BF3B480078012802D1022025
:10145000BDE8F08101203749087000BF4FF47A7071
:10146000FFF71AF90646002E5DD13249486032482E
:10147000006800F4007090B12F48006800F48060AC
:1014800048B12D48006820F480602B490860032093
:101490002849087715E001202649087711E02648F9
:1014A000006800F4806048B12348006820F4806040
:1014B0002149086002201F49087702E000201D49E9
:1014C0000877206801280ED16068FFF789F84FF48B
:1014D0007A70FFF7E1F806461748406920F00400EB
:1014E000154948611DE04FF0FF303860A56812E0F3
:1014F00028466168FFF786F84FF47A70FFF7CCF85A
:1015000006460D48406920F4FD700B4948610EB154
:101510003D6005E06D1CD4E902010844A842E7D80B
:1015200000BFFFF721F800BF00200249087000BF8C
:1015300030468DE70C0000200020024001200649C3
:10154000496941F00041044A51611146496901F07D
:10155000004101B100207047002002402DE9F04712
:101560000446884615461E464FF0000900BF1F4836
:101570000078012802D10220BDE8F08701201B4934
:10158000087000BF4FF47A70FFF786F807462FBB4C
:101590000020164948603CB92A4633464046FFF7CA
:1015A00047F84FF001090BE0012C01D0022C07D1C4
:1015B00029464046FFF750F8022C01D14FF480290C
:1015C0004FF47A70FFF768F80746B9F1000F05D0BD
:1015D0000748406920EA09000549486100BF00202A
:1015E0000249087000BF3846C6E700000C00002022
:1015F0000020024000200849496901F0004151B132
:101600000649054A9160064991601146496901F011
:10161000004101B1012070470020024023016745CD
:10162000AB89EFCDF0B50B4600217DE001258D4063
:1016300005EA0302002A76D03E4D8E0855F8264072
:101640008D072E0F0F25B5402C40B0F1904F01D1E2
:10165000002519E0384DA84201D1012514E0374D8D
:10166000A84201D102250FE0354DA84201D1032542
:101670000AE0344DA84201D1042505E0324DA842CC
:1016800001D1052500E006258E07360FB540A5429D
:1016900023D12E4D2D6895432C4E3560351D2D6878
:1016A0009543361D3560294D0C352D689543274EE1
:1016B0000C363560351F2D689543361F35608D0714
:1016C0002E0F0F2505FA06F41A4D8E0855F82650F0
:1016D000A543184E8F0846F8275005684F0003268B
:1016E000BE4035430560CE0800F1200555F8265070
:1016F0004E07F70E0F26BE40B543CF0800F1200677
:1017000046F82750C5684F000326BE40B543C56064
:10171000456801268E40B543456085684F00032625
:10172000BE40B5438560491C23FA01F5002D7FF4C6
:101730007DAFF0BD080001400004004800080048EB
:10174000000C00480010004800140048000401404C
:1017500078B502460B460021CAE001268E401D687E
:1017600005EA0604002C73D01D7905F00305012D50
:1017700004D01D7905F00305022D13D190684E00A9
:101780000325B540A8434E00DD68B540284390606E
:10179000506801258D40A8431D79C5F300158D4083
:1017A000284350601D7905F00305032D09D0D0684A
:1017B0004E000325B540A8434E009D68B540284320
:1017C000D0601D7905F00305022D13D1CE0802F17A
:1017D000200555F826004D07EE0E0F25B540A8430D
:1017E0004E07F60E1D69B5402843CE0802F12005CC
:1017F00045F8260010684E000325B540A8431D7922
:1018000005F003054E00B540284310605D6805F4FF
:101810004035002D6BD000BF384D2D6E45F00105D1
:10182000364E356635462D6E05F00105009500BF34
:1018300000BF4FEAB6358E0855F826008D072E0FEB
:101840000F25B540A843B2F1904F02D100251AE010
:101850004DE02B4DAA4201D1012514E0294DAA42A9
:1018600001D102250FE0284DAA4201D103250AE04B
:10187000264DAA4201D1042505E0254DAA4201D1F9
:10188000052500E006258E07360FB5402843214D7B
:101890008E0845F82600204D2868A0435D6805F4B1
:1018A000801505B120431C4D28602D1D2868A043DC
:1018B0005D6805F4001505B12043174D2D1D286006
:1018C000154D2D1F2868A0435D6805F4003505B14E
:1018D0002043114D2D1F28602D1F2868A0435D68EF
:1018E00005F4803505B120430B4D083D2860491CA7
:1018F0001D68CD40002D7FF430AF78BD0010024050
:101900000004004800080048000C0048001000488F
:101910000014004808000140080401400AB1816138
:1019200000E08162704700000148006870470000D5
:101930000000002003480068034909680844014981
:1019400008607047000000200800002010B5002447
:10195000032000F0CFF80F2000F008F808B10124B0
:1019600001E000F031F8204610BD000070B50446DB
:10197000002511480068D8B10F4800684FF47A710B
:10198000B1FBF0F00D490968B1FBF0F6304600F00C
:101990004FFF58B9102C07D200222146501E00F0EC
:1019A0006BF80748046004E0012502E0012500E02F
:1019B0000125284670BD0000080000202C000020F2
:1019C000040000207047000008B500BF0E48006EFC
:1019D00040F001000C4908660846006E00F0010066
:1019E000009000BF00BF00BF0846806D40F08050EF
:1019F00088650846806D00F08050009000BF00BFF1
:101A000000F018F908BD00000010024010B50146B2
:101A10000846002817DB00F01F0301229A400B4BF9
:101A2000440943F8242000BF00BF00BFBFF34F8F1D
:101A300000BF00BF00BF00BF00BF00BFBFF36F8F7C
:101A400000BF00BF00BF00BF10BD000080E100E08C
:101A50000146084600280DDB00BF00BF00F01F0351
:101A600001229A4043099B0003F1E023C3F80021BF
:101A700000BF00BF00BF70472DE9F05F80460D46F4
:101A8000164602F0EBF8074639462A46334601F07F
:101A90000700C0F1070ABAF1040F02D94FF0040A97
:101AA00001E0C0F1070AD14600F1040ABAF1070FBC
:101AB00002D24FF0000A01E0A0F1030AD4464FF031
:101AC000010A0AFA09FAAAF1010A0AEA020A0AFA5A
:101AD0000CFA4FF0010B0BFA0CFBABF1010B0BEA0C
:101AE000030B4AEA0B042146404602F0BFF8BDE86A
:101AF000F09F000000BF00F00702064B19684FF688
:101B0000FF031940044B0B4343EA0221014B1960C8
:101B100000BF70470CED00E00000FA0502468ABBEA
:101B20004148006800F4C060B0F5806F2BD13E489A
:101B30008030006820F480703B4BC3F8800018466A
:101B4000006820F4C06040F40070186037480068F6
:101B500032235843364BB0FBF3F0411C00E0491EE2
:101B60003148406900F48060B0F5806F01D10029F0
:101B7000F5D12D48406900F48060B0F5806F51D1F7
:101B80000320704708E028488030006820F4807007
:101B9000254BC3F8800045E0B2F5007F3AD12248DA
:101BA000006800F4C060B0F5806F2AD11E48803014
:101BB000006840F480701C4BC3F880001846006831
:101BC00020F4C06040F400701860184800683223A8
:101BD0005843174BB0FBF3F0411C00E0491E12487C
:101BE000406900F48060B0F5806F01D10029F5D123
:101BF0000D48406900F48060B0F5806F12D1032079
:101C0000BFE709488030006840F48070064BC3F895
:101C1000800007E00448006820F4C06040F4806061
:101C2000014B18600020ACE7007000402C00002041
:101C300040420F000348806840F4804001498860BA
:101C400070470000007000402DE9F843044600276B
:101C5000B846206800F40020B0F5002F73D1B946D3
:101C6000D348806D00F0805078B900BFD048806DB7
:101C700040F08050CE4988650846806D00F0805065
:101C8000009000BF00BF4FF00109CA48006840F44F
:101C90008070C8490860FFF747FE064606E0FFF778
:101CA00043FE801B022801D9032705E0C1480068D4
:101CB00000F480700028F2D000BF002F46D1BC484D
:101CC0009030006800F44075CDB1206CA84216D069
:101CD000B7489030006820F44075B548D0F89000BF
:101CE00040F48030B249C1F890000846D0F8900026
:101CF00020F48030C1F890000846C0F8905005F0FC
:101D00000100A0B1FFF710FE064608E0FFF70CFE49
:101D1000801B41F28831884201D9032706E0A4489C
:101D20009030006800F002000028EFD000BF5FB9DB
:101D30009F489030006820F44070216C08439C4913
:101D4000C1F8900003E00CE0B84600E0B846B9F1F5
:101D5000010F05D19648806D20F080509449886528
:101D600000BF207800F0010048B191488830006839
:101D700020F00300616808438D49C1F8880020788D
:101D800000F00200022809D189488830006820F05C
:101D90000C00A16808438649C1F88800207800F04B
:101DA0000400042809D182488830006820F03000FF
:101DB000E16808437E49C1F88800207800F00800F7
:101DC000082809D17A488830006820F0C0002169CD
:101DD00008437749C1F88800207800F020002028C7
:101DE00009D173488830006820F440606169084375
:101DF0006F49C1F88800207800F04000402809D1E0
:101E00006B488830006820F44050A1690843684955
:101E1000C1F88800207800F08000802809D164484B
:101E20008830006820F44040E16908436049C1F807
:101E30008800208800F48070B0F5807F09D15C486C
:101E40008830006820F44030216A08435849C1F8BE
:101E50008800208800F40070B0F5007F09D1544854
:101E60008830006820F44020616A08435049C1F876
:101E70008800208800F48060B0F5806F13D14C4852
:101E80008830006820F44010A16A0843484988312E
:101E90000860A06AB0F5801F05D14548C06840F4CD
:101EA00080104349C860208800F40060B0F5006FDE
:101EB00013D13F488830006820F44000E16A0843AD
:101EC0003B4988310860E06AB0F5800F05D1384899
:101ED000C06840F480103649C860208800F4805003
:101EE000B0F5805F13D132488830006820F0407030
:101EF000216B08432E4988310860206BB0F1807F48
:101F000005D12B48C06840F480102949C86020885A
:101F100000F40050B0F5005F13D125488830006808
:101F200020F04060616B0843214988310860606B94
:101F3000B0F1006F05D11E48C06840F480101C4904
:101F4000C860208800F48040B0F5804F13D1184855
:101F50008830006820F04060A16B08431449883144
:101F60000860A06BB0F1006F05D11148C06840F463
:101F700080100F49C860208800F40040B0F5004F81
:101F800013D10B488830006820F04050E16B0843C3
:101F9000074988310860E06BB0F1805F05D10448E3
:101FA000C06840F480300249C8604046BDE8F8830C
:101FB00000100240007000402DE9F04104460D463B
:101FC0004FF0000814B90120BDE8F0817D48006899
:101FD00000F00F00A8420ED27A48006820F00F00EF
:101FE0002843784908600846006800F00F00A842BE
:101FF00001D00120E8E7207800F00100002864D03B
:102000006068032823D17048006800F0007008B9A8
:102010000120D9E701F0BEF806466C48864237D960
:102020006948806800F0F00030B1207800F00200CC
:1020300002282DD1A06858BB6348806820F0F000CA
:1020400040F08000604988604FF0800820E06068C0
:10205000022806D15C48006800F4003040B9012035
:10206000B2E75948006800F4806008B90120ABE786
:1020700000F0DEF806465548864209D95248806885
:1020800020F0F00040F080004F4988604FF0800859
:102090004D48806820F00300616808434A49886021
:1020A000FFF742FC074608E0FFF73EFCC01B41F289
:1020B0008831884201D9032086E74348806800F0D0
:1020C0000C006168B0EB810FEED1207800F00200C7
:1020D000022820D1207800F00400042805D13A48D5
:1020E000806840F4E06038498860207800F008009B
:1020F000082807D13448806820F4605040F4E0603C
:10210000314988603048806820F0F000A1680843B9
:102110002D49886008E0B8F1800F05D12A48806811
:1021200020F0F000284988602648006800F00F0081
:10213000A84219D92348006820F00F0028432149FC
:102140000860FFF7F1FB074608E0FFF7EDFBC01B57
:1021500041F28831884201D9032035E719480068E7
:1021600000F00F00A842F0D1207800F0040004280D
:1021700007D11548806820F4E060E16808431249FF
:102180008860207800F00800082808D10E48806890
:1021900020F46050216940EAC1000B49886000F0DA
:1021A00047F809498968C1F30311094A515C01F0F4
:1021B0001F01C8400749086007480068FFF7D6FBC1
:1021C00002E70000002002400010024000B4C404F6
:1021D000384800082C000020040000200148006856
:1021E000704700002C00002000B5FFF7F7FF0549FD
:1021F0008968C1F30221044A515C01F01F01C84003
:1022000000BD0000001002404848000800B5FFF77C
:10221000E5FF05498968C1F3C221044A515C01F018
:102220001F01C84000BD00000010024048480008DF
:1022300070B5224DAD6805F00C05042D01D1204884
:102240003AE01E4DAD6805F00C05082D01D11D4882
:1022500032E01A4DAD6805F00C050C2D2BD1174D51
:10226000ED6805F00304154DED68C5F303156A1C10
:10227000022C0CD0032C09D1124DB5FBF2F50F4EF8
:10228000F668C6F3062605FB06F10AE000BF0C4D12
:10229000B5FBF2F5094EF668C6F3062605FB06F116
:1022A00000BF00BF054DED68C5F341656D1C6B00B7
:1022B000B1FBF3F000E0002070BD00000010024010
:1022C0000024F40000127A002DE9F843044614B902
:1022D0000120BDE8F883207800F00100002865D0D7
:1022E000FC48806800F00C07FA48C06800F003065C
:1022F0000C2F01D1032E01D0082F0AD1F548006818
:1023000000F40030002851D0606800284ED1012030
:10231000DFE700BF6068B0F5803F06D1ED48006898
:1023200040F48030EB4908601AE06068B0F5A02FF7
:102330000BD1E848006840F48020E6490860084670
:10234000006840F4803008600AE0E248006820F449
:102350008030E04908600846006820F4802008606A
:1023600000BF606888B1FFF7DFFA054606E0FFF7B7
:10237000DBFA401B642801D90320AAE7D54800688E
:1023800000F400300028F2D010E0FFF7CDFA054647
:1023900006E0FFF7C9FA401B642801D9032098E73B
:1023A000CC48006800F400300028F2D1207800F01A
:1023B0000200022860D1C748806800F00C07C548B9
:1023C000C06800F003060C2F01D1022E01D0042FAB
:1023D00018D1C048006800F4806018B1E06808B9FE
:1023E000012076E7BB48406820F0FE40217C40EAAF
:1023F0000160B8494860B8480068FFF7B7FA18B3F9
:10240000012066E7E06800B3B248006840F48070DD
:10241000B0490860FFF788FA054606E0FFF784FA3E
:10242000401B022801D9032053E7AA48006800F4A2
:1024300080600028F2D0A748406820F0FE40217C50
:1024400040EA0160A349486016E0A248006820F411
:102450008070A0490860FFF767FA054606E0FFF7BD
:1024600063FA401B022801D9032032E7994800682B
:1024700000F480600028F2D1207800F008000828DD
:1024800036D16069D0B193489430006840F00100C3
:102490009049C1F89400FFF747FA054606E0FFF7B8
:1024A00043FA401B022801D9032012E789489430DF
:1024B000006800F002000028F1D019E0854894304F
:1024C000006820F001008349C1F89400FFF72CFA5E
:1024D000054606E0FFF728FA401B022801D9032031
:1024E000F7E67C489430006800F002000028F1D143
:1024F000207800F00400042872D14FF000087548DD
:10250000806D012121EA107078B100BF7148806DA3
:1025100040F080506F4988650846806D00F080501B
:10252000009000BF00BF4FF001086C48006800F445
:102530008070B0B96948006840F4807067490860ED
:10254000FFF7F2F9054606E0FFF7EEF9401B022817
:1025500001D90320BDE66148006800F480700028BE
:10256000F2D000BFA068012808D15A489030006816
:1025700040F001005749C1F8900021E0A06805280B
:102580000FD154489030006840F004005149C1F820
:1025900090000846D0F8900040F00100C1F890008B
:1025A0000EE04C489030006820F001004949C1F825
:1025B00090000846D0F8900020F00400C1F8900088
:1025C00000BFA068A8B1FFF7AFF9054609E0FFF723
:1025D000ABF9401B41F28831884202D9032078E6EA
:1025E00025E03C489030006800F002000028EED062
:1025F00013E0FFF799F9054608E0FFF795F9401B4E
:1026000041F28831884201D9032062E63148903096
:10261000006800F002000028EFD1B8F1010F05D1E9
:102620002C48806D20F080502A49886500BF2078B2
:1026300000F02000202836D1A069D0B1254898307C
:10264000006840F001002349C1F89800FFF76CF9D9
:10265000054606E0FFF768F9401B022801D9032070
:1026600037E61C489830006800F002000028F1D0DE
:1026700019E018489830006820F001001549C1F8A9
:102680009800FFF751F9054606E0FFF74DF9401BAA
:10269000022801D903201CE60E489830006800F09B
:1026A00002000028F1D1E069002860D00948806864
:1026B00000F00C000C287FD0E069022858D10548B2
:1026C000006820F0807003490860FFF72DF9054687
:1026D0000DE00000001002400400002000700040E7
:1026E000FFF722F9401B022801D90320F1E54D48EC
:1026F000006800F000700028F2D1D4E90810401EF4
:1027000041EA0011A06A41EA0021208E0122C2EBB9
:10271000500041EA40513420005DC2EB500041EAD4
:1027200040612C20005D41EAC0603E49C9683E4AD4
:10273000114008433B49C8600846006840F080707B
:1027400008600846C06840F08070C860FFF7ECF889
:10275000054606E0FFF7E8F8401B022801D90320F0
:10276000B7E53048006800F000700028F2D056E06D
:102770002C48006820F080702A4908600846C0682C
:1027800020F00300C8600846C06828490840254971
:10279000C860FFF7C9F8054607E00DE0FFF7C4F889
:1027A000401B022801D9032093E51E48006800F071
:1027B00000700028F2D132E0E069012800D188E5FC
:1027C0001848C66806F00301206A814225D106F048
:1027D000F001606A401EB1EB001F1ED106F4FE41FD
:1027E000A06AB1EB002F18D106F078412C20005DD3
:1027F000B1EBC06F11D106F4C001208E0122C2EBF3
:102800005000B1EB405F08D106F0C0613420005D9C
:10281000C2EB5000B1EB406F01D0012059E5002020
:1028200057E50000001002400C809F01FFFFEEFE04
:1028300070B504462546681EB0F1807F01D30120A3
:102840000FE0681E4FF0E02148610F214FF0FF308C
:1028500001F00CFA00204FF0E021886107200861A8
:10286000002070BD704770477047704770B50446D0
:10287000D4F88450D4F888602068806800F0800024
:10288000802823D1212D21D100BF00BF216808312C
:1028900051E8001F21F080002168083141E8000262
:1028A000002AF3D100BFA06F68B1A06FFDF73AFF17
:1028B00048B1A06FFEF71AF8202804D11020C4F800
:1028C0008C00032070BD204600F08AFE20688068DE
:1028D00000F04000402823D1222E21D100BF00BFAC
:1028E0002168083151E8001F21F0400021680831BB
:1028F00041E80002002AF3D100BFE06F68B1E06F49
:10290000FDF710FF48B1E06FFDF7F0FF202804D17C
:102910001020C4F88C000320D4E7204600F012FEFB
:102920000020CFE710B504460CB9012010BD2420CB
:10293000C4F884002068006820F001002168086065
:10294000002021680860216848602168886020466E
:1029500000F060FA00206C342062A061E06144F86D
:102960006C0900BF84F8800000BF00BFDEE70000F4
:1029700010B504461F492068884214D100BF0020CA
:1029800084F8800000BF0820216808621A480068A7
:10299000006840F01000184909680860642217496F
:1029A000154800F043FB16492068884207D100BF54
:1029B000002084F8800000BF0820216808621149C7
:1029C0002068884214D100BF002084F8800000BF36
:1029D0000820216808620C480068006840F0100078
:1029E00009490968086064220449074800F01EFB91
:1029F00010BD000000380140480A00208009002076
:102A00000044004000480040380B00202DE9F0470A
:102A100004462068C569206806682068876840F613
:102A20000F0005EA0009B9F1000F0FD105F02000F1
:102A300060B106F0200010B907F0805030B1206F6F
:102A400010B12046216F8847BDE8F087B9F1000F2B
:102A50007ED0CF48384018B9CE4830400028F7D053
:102A600005F0010058B106F4807040B101202168E2
:102A70000862D4F88C0040F00100C4F88C0005F026
:102A8000020058B107F0010040B10220216808623D
:102A9000D4F88C0040F00400C4F88C0005F0040069
:102AA00058B107F0010040B1042021680862D4F851
:102AB0008C0040F00200C4F88C0005F0080070B1F2
:102AC00006F0200010B9B248384040B10820216813
:102AD0000862D4F88C0040F00800C4F88C0005F4BB
:102AE000006060B106F0806048B14FF4006021687A
:102AF0000862D4F88C0040F02000C4F88C00D4F8B0
:102B00008C0000284ED005F0200050B106F02000C7
:102B100010B907F0805020B1206F10B12046216F0E
:102B20008847D4F88CA02068806800F040004028D6
:102B300002D00AF0280070B3204600F003FD2068A0
:102B4000806800F04000402821D100BF00BF00E0B5
:102B500029E02168083151E8001F21F04000216878
:102B6000083141E80002002AF1D100BFE06F50B106
:102B70008948E16F8863E06FFDF70FFE90B1E06F69
:102B8000816B88470EE02046FFF7F2FE0AE0204600
:102B9000FFF7EEFE06E0FFE72046FFF7E9FE002024
:102BA000C4F88C0050E7E06E012870D105F01000E9
:102BB00000286CD006F010000028FAD01020216800
:102BC00008622068806800F04000402860D1E06F13
:102BD000006840681FFA80F8B8F1000F56D0B4F8CA
:102BE0005C00404552DDA4F85E80E06F006800683C
:102BF00000F02000F0BB00BF00BF216851E8001FBB
:102C000021F48070226842E800010029F5D100BF5C
:102C100000BF00BF2168083151E8001F21F001000A
:102C20002168083141E80002002AF3D100BF00BF4B
:102C300000BF2168083151E8001F21F040002168E1
:102C4000083141E80002002AF3D100BF2020C4F877
:102C500088000020E06600BF00BF216851E8001F27
:102C600021F01000226842E800010029F5D100BFE0
:102C7000E06F00E001E0FDF755FDB4F85C00B4F84A
:102C80005E20801A81B22046FFF7ECFDDCE641E0D1
:102C900034F85C0F6188401A1FFA80F860885C3C49
:102CA000B8B3B8F1000F34D000BF00BF216851E8BD
:102CB000001F21F49070226842E800010029F5D13C
:102CC00000BF00BF00BF2168083151E8001F304A33
:102CD000D24301EA02002168083141E80002002ADB
:102CE000F1D100BF2020C4F888000020E0662067F2
:102CF00000BF00BF216851E8001F21F010002268CA
:102D000042E800010029F5D100BF41462046FFF707
:102D1000A9FD99E605F4801050B107F4800038B1A0
:102D20004FF48010216808622046FFF79EFD8BE675
:102D300005F0800058B106F0800010B907F40000DB
:102D400028B1606F10B12046616F88477CE605F0BE
:102D5000400030B106F0400018B1204600F028FCD9
:102D600072E605F4000030B106F0804018B120464C
:102D7000FFF77AFD68E605F0807030B106F000409C
:102D800018B12046FFF76FFD5EE600BF5CE600006D
:102D90000100001020010004FB33000810B50446B8
:102DA0000CB9012010BDA06900B100E000BFD4F84B
:102DB000840028B9002084F88000204600F062F8E2
:102DC0002420C4F884002068006820F001002168F5
:102DD0000860204600F024FC012800D1E2E7A06A48
:102DE00010B1204600F052FA2068406820F490406C
:102DF000216848602068806820F02A002168886087
:102E00002068006840F0010021680860204600F05A
:102E1000B9FAC7E710B5044615492068884210D1B1
:102E20001448006E20F4804012490866C021124800
:102E3000FEF7F8FBE06FFDF7FBFC2520FEF7E6FD53
:102E400014E00E492068884210D10A48806D20F4B1
:102E50008020084988654FF440610948FEF7E2FB8D
:102E6000E06FFDF7E5FC2720FEF7D0FD10BD000068
:102E700000380140001002400004004800480040B3
:102E80000008004810B598B00446142113A8FDF7B7
:102E90000BFA442102A8FDF707FA5C492068884232
:102EA00056D1012002900020039002A8FEF7CCFE2C
:102EB00008B1FDF79CFA00BF5548006E40F4804011
:102EC000534908660846006E00F48040019000BF38
:102ED00000BF00BF0846C06C40F00200C86408464E
:102EE000C06C00F00200019000BF00BFC020139032
:102EF000022014900020159016900720179013A917
:102F00004448FEF725FC44484449086018204860BE
:102F1000002142488160C16080210161002141613E
:102F200081612021C16100210162FDF761FD08B1CD
:102F3000FDF75DFA00BF3948E067846200BF0022F8
:102F400011462520FEF798FD2520FEF781FD5BE068
:102F500033492068884257D1042002900020059010
:102F600002A8FEF771FE08B1FDF741FA00BF28483C
:102F7000806D40F48020264988650846806D00F405
:102F80008020019000BF00BF00BF0846C06C40F029
:102F90000400C8640846C06C00F00400019000BF43
:102FA00000BF4FF440601390022014900020159051
:102FB00016900720179013A91A48FEF7C9FB164868
:102FC0001438194908601C204860002116488160A7
:102FD000C160802101610021416181612021C161C5
:102FE00000210162FDF704FD08B1FDF700FA00BF02
:102FF0000D48E067846200BF002211462720FEF7DB
:103000003BFD2720FEF724FD18B010BD003801401D
:10301000001002400004004830000240D80A00209E
:103020000048004000080048C80B002070B5044666
:103030000D461646D4F8880020282CD105B10EB9CB
:10304000012070BD00BF94F88000012801D102204A
:10305000F7E7012084F8800000BF0020E0660F49F8
:103060002068884211D02068406800F4000060B1F8
:1030700000BF00BF216851E8001F41F08060226856
:1030800042E800010029F5D100BF3246294620461A
:1030900000F088FCD5E70220D3E700000080004064
:1030A000704770472DE9F84F04460E46174699467B
:1030B000D4F88400202862D106B117B90120BDE8F8
:1030C000F88F00BF94F88000012801D10220F6E7B4
:1030D000012084F8800000BF00205434A063212028
:1030E0002063FEF721FC824627806780543CA0685D
:1030F000B0F5805F04D1206910B90025B04602E028
:1031000035464FF0000800BF002084F8800000BF63
:1031100021E05346002280212046CDF8009000F0A7
:10312000ABFC08B10320CAE745B9B8F80000C0F30A
:1031300008002168886208F1020803E02878216805
:1031400088626D1CB4F85600002804DDB4F85600FF
:10315000401EA4F85600B4F856000028D9D15346B2
:10316000002240212046CDF8009000F085FC08B1F7
:103170000320A4E72020C4F8840000209FE7022059
:103180009DE7704700BFFEE700BFFEE700BFFEE718
:103190007047000070B5164DED6805F00304144D3E
:1031A000ED68C5F303156B1C022C0CD0032C09D160
:1031B000104DB5FBF3F50E4EF668C6F3062605FB7B
:1031C00006F10AE000BF0C4DB5FBF3F5084EF668BA
:1031D000C6F3062605FB06F100BF00BF044DED68EF
:1031E000C5F341656D1C6A00B1FBF2F070BD0000D3
:1031F0000010024000127A000024F4007047000022
:10320000004870475808002010B5FEF793FB10BD2A
:1032100000B593B0382105A8FDF746F8142168469B
:10322000FDF742F80020FEF779FC0120059000042C
:10323000069002200C9003210D9102210E91552140
:103240000F91022110911191129105A8FFF73CF8FE
:1032500008B1FDF7CCF80F2000900320019000206A
:1032600002900390049004216846FEF7A5FE08B181
:10327000FDF7BDF813B000BD0348006840F47000CE
:10328000014908607047000088ED00E090F82810C0
:1032900001F0010139B10168496821F40031C26AC5
:1032A00011430268516090F8281001F002010229D0
:1032B00007D10168496821F48031026B114302682B
:1032C000516090F8281001F00401042907D1016829
:1032D000496821F48021426B11430268516090F8E3
:1032E000281001F00801082907D10168496821F474
:1032F0000041826B11430268516090F8281001F080
:103300001001102907D10168896821F48051C26B2E
:1033100011430268916090F8281001F020012029E3
:1033200007D10168896821F40051026C11430268D9
:10333000916090F8281001F04001402913D10168F4
:10334000496821F48011426C114302685160416C5C
:10335000B1F5801F07D10168496821F4C001826C72
:1033600011430268516090F8281001F08001802913
:1033700007D10168496821F40021C26C1143026839
:103380005160704738B504460020C4F88C00FEF741
:10339000CBFA05462068006800F0080008280CD128
:1033A0006FF07E402B4600224FF400110090204623
:1033B00000F062FB08B1032038BD2068006800F00F
:1033C000040004280CD16FF07E402B4600224FF4FD
:1033D00080010090204600F04FFB08B10320EBE78E
:1033E0002020C4F88400C4F888000020E06600BFF4
:1033F00084F8800000BF00BFDEE770B50546AC6A08
:103400000020A4F85E00A4F856002046FFF7B0FAAA
:1034100070BD2DE9F0410546AC6AD4F88460D4F85B
:1034200088702068806800F08000802807D1212EF5
:1034300005D10020A4F85600204600F0D1F82068FD
:10344000806800F04000402807D1222F05D10020DD
:10345000A4F85E00204600F075F8D4F88C0040F027
:103460001000C4F88C002046FFF782FABDE8F08116
:1034700070B50546AC6A2868006800F02000E0BB23
:103480000020A4F85E0000BF00BF216851E8001FC3
:1034900021F48070226842E800010029F5D100BFC4
:1034A00000BF00BF2168083151E8001F21F0010072
:1034B0002168083141E80002002AF3D100BF00BFB3
:1034C00000BF2168083151E8001F21F04000216849
:1034D000083141E80002002AF3D100BF2020C4F8DF
:1034E0008800E06E01280ED100BF00BF216851E8BE
:1034F000001F21F01000226800E004E042E8000113
:103500000029F3D100BFE06E012805D1B4F85C10AA
:103510002046FFF7A7F902E02046FFF7C1FD70BD86
:1035200070B50546AC6AE06E012806D1B4F85C00BF
:1035300041082046FFF796F902E02046FFF7B1FD6B
:1035400070BD000000BF00BF026852E8002F22F4E7
:103550009071036843E80012002AF5D100BF00BF54
:1035600000BF0268083252E8002F104B02EA030144
:103570000268083242E80013002BF2D100BFC16E8E
:1035800001290CD100BF00BF026852E8002F22F0D1
:103590001001036843E80012002AF5D100BF202182
:1035A000C0F888100021C16601677047FEFFFFEF79
:1035B00010B5044600BF00BF216851E8001F21F08C
:1035C0004000226842E800010029F5D100BF202018
:1035D000C4F88400002060672046FFF7D2FD10BDCC
:1035E00000BF00BF026852E8002F22F0C00103684C
:1035F00043E80012002AF5D100BF00BF00BF0268F7
:10360000083252E8002F22F400010268083242E832
:103610000013002BF3D100BF2021C0F884107047A5
:103620002DE9FE4F044600200290D44920688842CC
:1036300000D100E000BF2169A06808436169084328
:10364000E16940EA010820680068CD49084040EA85
:103650000800216808602068406820F44050E16854
:10366000084321684860D4F81880C449206888421B
:1036700002D0206A40EA080820688068C1490840F2
:1036800040EA0800216888602068C06A20F00F00C6
:10369000616A08432168C86200BFBB49206888424C
:1036A00016D1BA48006800F0030030B1012808D0F4
:1036B000022804D0032808D105E0012507E00225EF
:1036C00005E0042503E0082501E0102500BF6FE0B8
:1036D000AF492068884216D1AC48006800F00C0061
:1036E00030B1042808D0082804D00C2808D105E0FF
:1036F000002507E0022505E0042503E0082501E098
:10370000102500BF54E0A3492068884216D19F4885
:10371000006800F0300030B1102808D0202804D014
:10372000302808D105E0002507E0022505E0042542
:1037300003E0082501E0102500BF39E09649206824
:10374000884216D19148006800F0C00030B140288E
:1037500008D0802804D0C02808D105E0002507E063
:10376000022505E0042503E0082501E0102500BF3F
:103770001EE082492068884219D18448006800F41C
:10378000406048B1B0F5806F0AD0B0F5006F05D049
:10379000B0F5406F08D105E0002507E0022505E0FF
:1037A000042503E0082501E0102500BF00E01025F6
:1037B00000BF72492068884259D135B1022D08D026
:1037C000042D08D0082D0DD109E0FEF70DFD0646A9
:1037D0000CE0724E0AE0FEF72BFD064606E04FF4C1
:1037E000004603E000260120029000BF00BF002E2B
:1037F00010D06B49606A31F81000B6FBF0F96068D0
:1038000000EB4000484503D860680003484502D2F9
:1038100001200290A6E06249606A31F810C0624659
:10382000002330461946FCF7F5FC4FF4807C00225B
:10383000A0FB0C3B01FB0CB100FB021160684008CF
:1038400018185141CDE90001D4F804C062460023A4
:10385000FCF7E0FC0746B7F5407F05D3B7F5801FBE
:1038600002D22068C7607DE0012002907AE0E06922
:10387000B0F5004F3FD1092D17D2DFE805F005095B
:103880000D160F1616161300FEF7AEFC064610E0D6
:10389000FEF7BCFC06460CE0404E0AE0FEF7C8FC12
:1038A000064606E04FF4004603E0002601200290A1
:1038B00000BF00BF86B33A49606A31F81000B6FB1A
:1038C000F0F04000616800EB5100B0FBF1F7102F01
:1038D0000ED3B7F5803F0BD24FF6F07007EA000A1F
:1038E000C7F342004AEA000A2068C0F80CA039E099
:1038F0000120029036E0092D18D2DFE805F0050915
:103900000E17101717171400FEF76EFC064611E08D
:10391000FEF77CFC06460DE024E0204E0AE0FEF7B0
:1039200087FC064606E04FF4004603E0002601202F
:10393000029000BF00BFAEB11949606A31F81000B3
:10394000B6FBF0F0616800EB5100B0FBF1F7102F0F
:1039500006D3B7F5803F03D2B8B22168C86001E052
:10396000012002900120A4F86A00A4F86800002059
:10397000206760670298BDE8FE8F0000008000406D
:10398000F369FFCFFFF4FF110038014088100240B7
:103990000044004000480040004C00400024F40077
:1039A0002048000870B504460E46154644F8586F86
:1039B000A5800020606322202063606A583C08B321
:1039C0002A48E16FC8622A48E16F08632948E16F1D
:1039D00048630020E16F8863236803F124012B46CC
:1039E000A26DE06FFDF76CF860B11020C4F88C0098
:1039F00000BF002084F8800000BF2020C4F88800A9
:103A0000012070BD00BF002084F8800000BF206945
:103A100060B100BF00BF216851E8001F41F4807011
:103A2000226842E800010029F5D100BF00BF00BFB5
:103A30002168083151E8001F41F001002168083178
:103A400041E80002002AF3D100BF00BF00BF216897
:103A5000083151E8001F41F040002168083141E879
:103A60000002002AF3D100BF0020CAE77134000829
:103A700021350008133400082DE9F04104460D46B5
:103A800017469846069E6AE0701C002867D0FDF72E
:103A90004BFFA0EB0800B04200D846BB00BF00BF00
:103AA000216851E8001F21F4D070226842E800012B
:103AB0000029F5D100BF00BF00BF2168083151E8DF
:103AC000001F21F001002168083141E80002002AAE
:103AD000F3D100BF2020C4F88400C4F8880000BFE0
:103AE000002084F8800000BF0320BDE8F08120683A
:103AF000006800F0040088B32068C069C0F3C020EB
:103B000060B34FF400602168086200BF00BF216805
:103B100051E8001F21F4D070226842E8000100291A
:103B2000F5D100BF00BF00BF2168083151E8001F78
:103B300021F001002168083141E80002002AF3D198
:103B400000BF202044F8840F6060A060843C00BF68
:103B5000002084F8800000BF0320C6E7FFE720684C
:103B6000C0692840A84201D1012000E00020B842ED
:103B70008AD00020B9E7000010B51A48FEF746FFCA
:103B800018480068C069C0F30014ECB11020154952
:103B9000096808621348FEF769FE13480068406828
:103BA000C0F16400114908600846006830B1084659
:103BB000008881B20E480F4A1268904764220C496F
:103BC0000848FFF733FA0BE010200649096808623D
:103BD0000448FEF74BFE642205490248FFF726FA27
:103BE00010BD0000480A0020D80A00204400002030
:103BF000800900204000002070B51448FEF706FF41
:103C000012480068C069C0F300148CB110200F493D
:103C1000096808620D48FEF729FE0D4800684068F3
:103C2000C0F1640564220B490848FFF7FFF90BE077
:103C300010200649096808620448FEF717FE64224E
:103C400004490248FFF7F2F970BD0000380B00206C
:103C5000C80B0020E409002000BFFEE7024800680E
:103C6000C0F30220704700000CED00E010B5002802
:103C700004DB0A07130E054A135406E00A07140E64
:103C8000034A00F00F031B1FD45410BD00E400E0F2
:103C900018ED00E008B500BF1948806C40F0040042
:103CA000174988640846806C00F00400009000BF4B
:103CB00000BF00BF0846806C40F0010088640846E1
:103CC000806C00F00100009000BF00BF0022114690
:103CD0000B20FDF7D1FE0B20FDF7BAFE00221146A6
:103CE0000C20FDF7C9FE0C20FDF7B2FE00221146A4
:103CF0000D20FDF7C1FE0D20FDF7AAFE08BD000056
:103D00000010024038B50446344804603448354950
:103D10000860002048604FF4407132488160002103
:103D2000C1600174417481740A214161042181617F
:103D30000C21C161042101620221416204218162DE
:103D40000C21C162042101630221416300218163CE
:103D5000C163FDF7F5F908B1FCF749FB00202249E2
:103D600008604860022088600120C8600861FF2068
:103D700048611C48FCF7FEFF08B1FCF738FB012046
:103D800003460222114600901648FDF725F808B1B7
:103D9000FCF72DFB01201549086000204860886071
:103DA0004FF44020C860002008614FF48010486143
:103DB000400088610020C86108620A480022C16A88
:103DC000FDF728F80748FDF737F8002201210548DC
:103DD000FCF70AFF0348FDF713FB38BD3C00002049
:103DE0000064004068080020CC0800200C09002076
:103DF00000B587B0142102A8FCF756FA00BF2E4880
:103E0000C06C40F004002C49C8640846C06C00F047
:103E10000400019000BF00BF00BF0846C06C40F026
:103E20002000C8640846C06C00F02000019000BF6C
:103E300000BF00BF0846C06C40F00100C8640846DF
:103E4000C06C00F00100019000BF00BF00BF084639
:103E5000C06C40F00200C8640846C06C00F002006C
:103E6000019000BF00BF202002900120039002209B
:103E700004900020059002A91048FDF769FC00227B
:103E800020210E48FDF74AFD4FF40040029001202A
:103E90000390022004900020059002A94FF090406A
:103EA000FDF756FC00224FF400414FF09040FDF723
:103EB00035FD07B000BD00000010024000040048BE
:103EC00070B504460D462D48056024B94FF41650D0
:103ED0002B49486026E0012C04D14FF49640284934
:103EE00048601FE0022C04D14FF41640244948607A
:103EF00018E0032C04D14FF461402149486011E0DF
:103F0000042C04D14FF4E1301D4948600AE0052C2F
:103F100004D14FF4E1201A49486003E04FF4E13046
:103F2000174948601648FEF7FDFC0A20FCF748FEDA
:103F3000144813490860002111488160C160016183
:103F40000C21416100218161C16101624162002057
:103F50000B4988620846FEF721FF08B1FCF747FAD3
:103F600007480068006840F01000054909680860CB
:103F7000642205490248FFF759F870BD400000204F
:103F8000480A0020003801408009002010B5174879
:103F9000FEF7C8FC0A20FCF713FE15481349086019
:103FA0004FF4E1304860002110488160C160016138
:103FB0000C21416100218161C161016241620020E7
:103FC0000A4988620846FEF7E9FE08B1FCF70FFAD5
:103FD00006480068006840F010000449096808605D
:103FE000642204490148FFF721F810BD380B002076
:103FF00000480040E409002002E008C8121F08C180
:10400000002AFAD170477047002001E001C1121F59
:10401000002AFBD17047000070B504462568666829
:10402000012080F3138800BF284680F3088800BF72
:1040300002480460FCF7A6FDB04770BD08ED00E043
:1040400010B504488078012802D10348FFF7E4FF47
:1040500010BD00004800002000800008FEB50546A5
:104060000E46144600200090019002900A27EE2090
:104070008DF8000016208DF80100104840788DF86A
:10408000020005208DF80300FE208DF804008DF855
:1040900005508DF80660E0B28DF80700200A8DF813
:1040A000080007210DF1020000F052FA8DF8090016
:1040B0003946684600F0A4F9FEBD00004800002023
:1040C0002DE9F04105460C462888C0F30B06370A57
:1040D000012F13D12078022810D1607849280DD102
:1040E00007480078022809D1A078052806D0A178D1
:1040F000002203480078FFF7B1FF00BFBDE8F08160
:10410000310000202DE9F84304460D46002600202A
:104110000090FDF76FFA00BF4FF40040234908619B
:1041200000BF0020224908600120486008468460E2
:104130000120C86072B600BF4FF400401B490861FF
:1041400000BF00BFF320086100BF4FF47A70FCF796
:10415000A3FA38B969461648FDF770F920B1002076
:10416000BDE8F8830020FBE74FF47A70FCF794FA7F
:10417000B8B9E00200F10066601CC00200F10069FD
:104180000CE0D5E900733A4631460020FDF7E6F928
:1041900010B90836083501E00020E1E74E45F0D3BC
:1041A00000BFFDF7CBF962B60120D9E7002002403D
:1041B0007009002070B504460D46034908782A4668
:1041C000214600F06FF870BD4800002070B59AB02D
:1041D00005460C461646642101A8FCF765F8022046
:1041E0008DF804008DF80550E0B28DF80600200A25
:1041F0008DF8070003490878324601A900F052F80B
:104200001AB070BD4800002010B504463CB90E221B
:104210000449054800F0DCF808B1002010BD014851
:10422000FCE700005808002000F0010801200349C5
:104230004870042088700020C8707047580800201B
:1042400010B50020FFF7E0FF30B113480078FE28DA
:1042500020D0FFF7EBFF1DE000BF00BF00BF00BF95
:1042600000BFBFF34F8F00BF00BF00BF0B48006807
:1042700000F4E0600A490843001D0849086000BFD7
:1042800000BF00BFBFF34F8F00BF00BF00BF00BF24
:1042900000BFFDE710BD0000580800200CED00E055
:1042A0000000FA0570B505460E461446192C5AD280
:1042B000DFE804F00D11161B20252A2F34393A3B74
:1042C0003C41424344494A4B4C5152535400002014
:1042D0003D49C8605FE04FF480303B49C8605AE018
:1042E0004FF400303849C86055E04FF4403036494B
:1042F000C86050E04FF480203349C8604BE04FF471
:10430000A0203149C86046E04FF4C0202E49C86063
:1043100041E04FF4E0202C49C8603CE04FF400201D
:104320002949C86037E000BF00BF00BF4FF410202C
:104330002549C8602FE000BF00BF00BF4FF4202018
:104340002149C86027E000BF00BF00BF4FF4302004
:104350001D49C8601FE000BF00BF00BF4FF44020F0
:104360001949C86017E0202C04D84FF45020164992
:10437000C8600FE0302C04D84FF460201249C860A8
:1043800008E0402C04D84FF470200F49C86001E0C9
:10439000022070BD00BF00BF0B48056000200A4925
:1043A0004860886008614FF480104861400088616F
:1043B0000020C861086232460448FCF7A6FC08B138
:1043C0000120E6E70020E4E70C090020680800204F
:1043D00030B503461446B3F1006F02D303F0030077
:1043E00008B1012030BD1A4603E012F8010B01F8B4
:1043F000010B201EA4F10104F7D100BFF2E7000079
:1044000070B504460D46012220210C48FDF786FABE
:104410004FF47A732A4621460948FEF743FE00BF4F
:1044200007480068C069C0F380100028F8D0002257
:1044300020210248FDF772FA70BD00000004004818
:10444000480A0020FDF782FAFEF7E2FE00F034F899
:1044500003E0FFF7F5FD00F001F8FAE710B5FDF70E
:1044600063FA1149096801F57A7188421AD9FDF792
:104470005BFA0D4908600D48007898B10C48007847
:1044800001280ADA032200214920FFF79FFE642059
:10449000FCF796FB01200749887005480078401E0C
:1044A0000349087010BD00003400002030000020D7
:1044B000380000204800002010B5FFF7C1FEFFF7CC
:1044C00097FCFFF7E7FB1D48FFF71CFCFEF798FE83
:1044D00084781B492046FFF7F3FCFFF757FD0120C6
:1044E00018490870FEF78CFE407816494870FEF7B0
:1044F00087FEC078144908700846007801280ED15C
:104500004FF49660FCF75CFB032200214920FFF783
:104510005DFE6420FCF754FB00F068F80DE00A48EB
:104520000078022806D14FF47A70FCF749FB00F0BE
:104530005FF902E001200549087010BDC140000884
:1045400069450008480000203100002030000020AC
:1045500010B502460023002002E0145C2344401CF6
:104560008842FADBD8B210BD70B504460D462078FB
:10457000EB281ED1607890281BD1E81E81B2A01CC8
:10458000FFF7E6FF691E615C884200D070BDA0782D
:1045900009494978884200D0F8E7A078FF2804D17B
:1045A0002946204600F00AF803E02946204600F09C
:1045B00005F800BFEAE70000480000202DE9F041BF
:1045C00004460E462779FE2F0ED16579012D04D1C0
:1045D0003146204600F022F805E0022D03D1314695
:1045E000204600F0CDF800BFBDE8F08110B50020F6
:1045F0000749C860C8801020888000220221054831
:104600000078FFF72BFD01200349087010BD000062
:104610004800002031000020300000202DE9F0414A
:1046200004460F46A7F10A00C6B294F80580A579A2
:10463000217AE07961F31F204B498860022D45D132
:1046400000204A4908704849C988494A88183246B2
:1046500004F10901FBF70FFE4348C088304442498A
:10466000C8800846C0683044C8600846C088B0F5B5
:10467000006F17DB08E03C48008982B20421404605
:10468000FFF7ECFCBDE8F081374908793849FFF7BE
:1046900039FD0028EFD000203349C88008468088C3
:1046A000401C888030488088332807DD2E480089E8
:1046B00082B204214046FFF7D1FC52E02A4800892B
:1046C00082B202214046FFF7C9FC4AE0032D1ED109
:1046D0002548C08800280FDD07E02348008982B202
:1046E00004214046FFF7BAFCCCE71F49087920496E
:1046F000FFF708FD0028F0D01B48008982B2032193
:104700004046FFF7ABFC6420FCF75AFA29E0042D81
:104710001DD100BF00BF00BF00BF00BFBFF34F8F60
:1047200000BF00BF00BF1348006800F4E0601249FA
:104730000843001D0F49086000BF00BF00BFBFF362
:104740004F8F00BF00BF00BF00BF00BFFDE745B1F6
:10475000062D06D0012D04D1012008490870FFF76D
:1047600045FF00BF8EE70000480000203000002019
:10477000580000200CED00E00000FA053100002098
:1047800070B505460E46AC79022C0AD100201649B8
:104790000870A6F10A0081B205F10900FFF70AFDD1
:1047A00021E0032C05D1032211464920FFF70EFD1D
:1047B00019E0042C05D1032204214920FFF706FD4E
:1047C00011E0062C05D1032206214920FFF7FEFC4B
:1047D00009E044B1012C05D102200449087000F021
:1047E00007F800E000BF70BD30000020310000205D
:1047F00010B50022052104480078FFF72FFC0120A6
:104800000249087010BD0000310000203000002077
:104810000001020304050607080C1014182030409C
:10482000010002000400060008000A000C0010004D
:104830002000400080000001000000000000000097
:104840000102030406070809000000000102030436
:10485000704800080000002048000000F83F0008F1
:10486000B848000848000020F80F00000840000881
:104870000000000010000000010000000000000027
:104880000000000000000000000000000100000027
:104890000000000000000000000000000024F40000
:1048A0000000000000000000030000000000000005
:0848B000000000000000000000
:04000005080001D915
:00000001FF
