:020000040800F2
:10800000E06C00206D83000841DA000809DA0008FE
:108010003DDA0008F1A00008B1E600080000000009
:10802000000000000000000000000000B9DA0008B5
:1080300031A200080000000045DA0008C5DA000897
:1080400087830008878300088783000887830008E8
:1080500087830008878300088783000887830008D8
:1080600087830008878300088783000859A10008D8
:1080700069A1000879A100088783000887830008A8
:108080008783000800000000E1A000088783000843
:1080900087830008C9A20008878300088783000837
:1080A0008783000887830008878300088783000888
:1080B00049DB00088783000887830008878300085E
:1080C0008783000887830008878300088783000868
:1080D00087830008D1E500088783000851E600087F
:1080E0008783000887830008878300088783000848
:1080F000878300088783000887830008000000004A
:10810000000000008783000800000000878300084B
:108110008783000800000000878300088783000829
:108120008783000887830008878300088783000807
:10813000878300080000000000000000878300081B
:10814000878300088783000800000000000000000B
:10815000000000000000000000000000000000001F
:1081600000000000000000000000000087830008FD
:1081700087830008000000000000000000000000ED
:1081800000000000878300080000000000000000DD
:1081900000000000000000000000000000000000DF
:1081A00000000000000000008783000887830008AB
:1081B0008783000887830008878300080000000089
:1081C000000000008783000800000000000000009D
:1081D000878300088783000800F002F800F0B6F8F3
:1081E0000AA090E8000C82448344AAF10107DA4512
:1081F00001D100F0ABF8AFF2090EBAE80F0013F0AE
:10820000010F18BFFB1A43F00103184710FB0000D1
:1082100030FB00000A444FF0000C10F8013B13F053
:10822000070408BF10F8014B1D1108BF10F8015BCF
:10823000641E05D010F8016B641E01F8016BF9D1C2
:1082400013F0080F1EBF10F8014BAD1C0C1B09D119
:108250006D1E58BF01F801CBFAD505E014F8016B8B
:1082600001F8016B6D1EF9D59142D6D3704700001D
:108270000023002400250026103A28BF78C1FBD82F
:10828000520728BF30C148BF0B6070476E2900F00D
:10829000F582702900F0378466290FF0F88265298D
:1082A0000FF0F58267290FF0F28261290FF0F18259
:1082B00003681B0A28BF41F08001692900F0A282EF
:1082C000642900F09F82752900F09C826F2900F0DC
:1082D000C483782900F00384E92900F05F83E4294E
:1082E00000F05C83F52900F05983EF2900F0C18389
:1082F000F82900F002840368DB0928BF41F08001FF
:10830000632901F05981732901F05E81E32901F0AD
:108310006981F32901F06E81002070471FB50FF0CD
:10832000ACFA9DE8030000F0A3F901F0BDF90400E8
:10833000002000210EF00EFC401C60600020002197
:108340000EF0F2FBE0601FBD10B510BD01F07EF92C
:108350001146FFF7E3FF0CF0FAFB01F05BFA03B400
:10836000FFF7F2FF03BC01F08BFA000009488047D9
:1083700009480047FEE7FEE7FEE7FEE7FEE7FEE707
:10838000FEE7FEE7FEE7FEE704480549054A064B1F
:108390007047000035DB0008D9810008E00C0020A0
:1083A000E06C0020E02C0020E02C002070B5064698
:1083B00000F042F9056806F10B0020F00704B44212
:1083C0009CBF002070BD2B466A68BAB11068A042FD
:1083D00010D304F1080188423CBF5068586007D3AD
:1083E0005168101941601168091B016058601460E0
:1083F000101D70BD13465268002AE7D12146284659
:1084000000F022F90028DED170BD53EA020C00F022
:1084100069802DE9F04B4FF00006002B1FBFB3FA27
:1084200083F503FA05F424FA05F65E4012BF1643FD
:10843000B2FA82F502FA05F4C5F120051EBF22FA50
:1084400005FC44EA0C04203556EA044C4FEA144477
:1084500018BF641C4FF000084FF00009904271EB08
:10846000030C39D3002919BFB1FA81F701FA07F6D5
:10847000B0FA80F700FA07F6C7F120071EBF20FA0E
:1084800007FC46EA0C062037B6FBF4FCA7EB050711
:10849000103F07F01F0BCBF120060CFA0BFB2CFA58
:1084A00006F644BFB3460026202FA4BF5E464FF019
:1084B000000B5BEA060C08BF4FF0010B19EB0B0930
:1084C000ABFB027C48EB0608C01B06FB02CC0BFB97
:1084D00003CC71EB0C01C1E70B460246414648460E
:1084E000BDE8F08B13B54FF000004FF00001AFF383
:1084F0000080BDE81C4070471CB50C46064B7B4411
:1085000069460090204600F0D2F9044600206946F2
:1085100000F0E0F920461CBDD303000010B5431C59
:1085200002E010F8011B71B18107FAD14FF001325E
:1085300002C88C1A8C4314EAC211F9D0C01A0A0678
:1085400003D0C01E10BDC01A10BD0A0401D0801E89
:1085500010BD0902FCD0401E10BD032A40F230803D
:1085600010F0030C00F0158011F8013BBCF1020F74
:10857000624498BF11F801CB00F8013B38BF11F8F5
:10858000013BA2F1040298BF00F801CB38BF00F80C
:10859000013B11F0030300F08583083AC0F0088026
:1085A00051F8043B083A51F804CBA0E80810F5E76D
:1085B000121D5CBF51F8043B40F8043BAFF3008050
:1085C000D20724BF11F8013B11F801CB48BF11F8C5
:1085D000012B24BF00F8013B00F801CB48BF00F895
:1085E000012B70474FF0000200B5134694469646A3
:1085F000203922BFA0E80C50A0E80C50B1F12001B6
:10860000BFF4F7AF090728BFA0E80C5048BF0CC063
:108610005DF804EB890028BF40F8042B08BF7047C1
:1086200048BF20F8022B11F0804F18BF00F8012B33
:10863000704770477047704700487047840C0020AF
:10864000704770477047704738B504460A460020A7
:108650006946AFF30080002808BF38BD0246009984
:10866000204600F059FB012038BD012000F0E6BF94
:10867000F8B5AFF30080054600200C46102000BF7F
:108680000646A819A0420DD9324669460020AFF32C
:108690000080070008BF00F0D1FF0098A04218BF7B
:1086A0000546C419FFF7C8FF05600746F01D20F016
:1086B00007004619284600F00AF8B44208BFF8BD82
:1086C000A21B31463868BDE8F84000F025BB002108
:1086D0000160C0E9011070471020704770B5044672
:1086E000051FFFF7A9FF0068002C14BF446870BD88
:1086F000002C18BFAC423CBF20466468F8D3016828
:108700000A18AA4218BF456003D12A6805461144D9
:10871000016028684119A1421CBF6C6070BD61688E
:10872000696021680844286070BD10B500F0F0FA57
:10873000006810BD10B5044600F0EAFA046010BDF0
:1087400070B5044685690068C10601D5302600E091
:108750002026C00707D070BDD4E9012130469047DC
:10876000206A401C20626D1EF6D570BD70B50446AF
:1087700085690078C00707D170BDD4E901212020A8
:108780009047206A401C20626D1EF6D570BD0968B6
:108790004A0501D540B27047C905FCD500B2704703
:1087A00009684A0501D5C0B27047C905FCD580B239
:1087B000704770B50C460546012A05D0287880061A
:1087C00000D5EA69002302E0012305E05B1C934227
:1087D00002D2E05C0028F9D1A869E618C01AA861A5
:1087E000286A184428622846FFF7AAFF04E0D5E962
:1087F000012114F8010B9047B442F8D32846FFF743
:10880000B5FF70BD2DE9F0410646002410687529BA
:10881000314616A510D0FFF7BAFF002802DA404211
:1088200013A507E031688A0701D512A502E04907C0
:1088300004D511A5012401E0FFF7B2FF00210A22AF
:1088400006F1240709E0B0FBF2FCB0FBF2F302FBF7
:108850001C00303078541846491C0028F3D12346B8
:108860002A463046BDE8F04100F0B5BA00000000ED
:108870002D0000002B00000020000000116802689D
:10888000006A530501D508700AE0D30501D50880B8
:1088900006E0130603D5C217C1E9000200E0086034
:1088A0000120704701694A1C02610878704700B5D1
:1088B0008FB0CDE901310021059105497944CDE919
:1088C00003101146684600F029F90FB000BD000002
:1088D000E5FFFFFF0A6802F8010B0A60704700001D
:1088E0002DE9FF5F15468A460446DFF8AC80F84460
:1088F0000027D8E900103E46CDE9001010E03AF814
:1089000016106A4602A800F079FE411C07D02178B3
:10891000890603D5E269391891420DD80744761CBF
:108920002078800602D5E069B84205DDAE42E6DB7C
:108930003AF816000028E2D1A069C01BA0612046C9
:10894000FFF7FEFED8E90010CDE90010002017E087
:108950003AF818106A4602A800F050FEB0F1FF3F46
:1089600081460BD000250DF1080B05E0D4E901216B
:108970001BF8050090476D1C4D45F7D308F1010029
:10898000B0428046E4DB206A384420622046FFF78C
:10899000EDFEBDE8FF9F0000FEF100002DE9F04173
:1089A0008046D21D22F007020025D2E90002F529F7
:1089B00015A614D0011E72F1000106DA0023D0EBD7
:1089C000030063EB020211A608E0D8F800108B0741
:1089D00001D50FA602E0490701D50EA601251146D3
:1089E000002408F1240704E000F0B0F930323A55D1
:1089F000641C50EA0102F7D12B463246214640461C
:108A0000BDE8F04100F0E7B9000000002D000000D3
:108A10002B0000002000000030B4002100F12404ED
:108A200008E002F00705D208303542EA4372DB085D
:108A30006554491C52EA0305F3D10468002310A2CF
:108A4000250707D5A40600D421B1C46901230DA2CE
:108A5000641EC46130BC00F0BEB910B504462146A6
:108A60001068FFF79DFE02462046BDE81040002337
:108A7000D2E7D21D22F00701D1E90023CCE70000A4
:108A80000000000030000000F0B40D460188090528
:108A900002D5214C7C4402E01F4C7C440E34002162
:108AA00000F1240608E002F00F071209E75D42EA30
:108AB00003721B097754491C52EA0307F3D1027869
:108AC0000023120704D5702D06D009B102231134FA
:108AD0002246F0BC00F07FB901231034F8E770B5EE
:108AE00004460D4621461068FFF75AFE0246294605
:108AF0002046BDE870400023C6E7D21D22F00703E0
:108B0000D3E90023C0E70368126843F02003036041
:108B10000823C3610023B7E760F000002DE9F05F90
:108B2000894604464FF0000ADFF874B1FB44C0F8F0
:108B300020A02046E1688847002874D0252806D068
:108B4000D4E901219047206A401C2062F1E7002609
:108B50005F462046E16888472028054607DB312D1F
:108B600005D2781910F8200C08B10643F1E7B007D8
:108B700001D526F00406C4F81CA00027C4F818A0EC
:108B80002A2D09D0284607F037FF38B304EB8708B1
:108B9000303DC8F8185019E059F8041B204604EB82
:108BA00087029161E1688847012F054618D1E06985
:108BB000002820DA26F020061DE0D8F8180000EB87
:108BC000800005EB40003038C8F818002046E16806
:108BD0008847054607F010FF0028EED1012F0AD084
:108BE0002E2D08D12046E16888477F1C0546022FBC
:108BF00046F02006C4DBA069002803DA404246F0B4
:108C00000106A061F00701D026F010066C2D0BD0F4
:108C1000682D09D04C2D39D06A2D35D0742D35D022
:108C20007A2D33D016E038E0E1682F462046884799
:108C3000B842054609D16C2F26D04FF48060E16818
:108C4000064320468847054604E06C2F1AD04FF4AF
:108C5000807006430DB3A5F14100192802D82035D4
:108C600046F400664A462946204626604E46FFF7EF
:108C70000DFB80B101280BD0F61D26F0070000F196
:108C8000080956E74020E4E78020D8E70020D6E72F
:108C900006F104094DE7284652E7206ABDE8F09F37
:108CA000F0EF000010B5203AC0F00B80B1E818508A
:108CB000203AA0E81850B1E81850A0E81850BFF4C6
:108CC000F5AF5FEA027C24BFB1E81850A0E8185065
:108CD00044BF18C918C0BDE810405FEA827C24BFB9
:108CE00051F8043B40F8043B08BF7047D20728BF47
:108CF00031F8023B48BF11F8012B28BF20F8023B96
:108D000048BF00F8012B7047004870477C0C0020DA
:108D1000004870477C0C0020034640688C460028C1
:108D200018BF88423CBF03464068F8D3186818440F
:108D3000884207D00CF1030020F00700001D411A03
:108D4000521A0146081D0A60FFF7C8BC30B5B0F1E1
:108D50000A024FEA900E71F100034EEA817EB0EBF9
:108D60000E0061EB91014FEA101E4EEA017E10EBFE
:108D70000E0041EB11114FEA102E4EEA016E10EB7E
:108D80000E0041EB11214FEA104E4EEA014E10EB5E
:108D90000E0041EB1141401841F100014FEAD000B3
:108DA00040EA41704FEAD10110EB80054FEA81049F
:108DB00044EA907444EB01046D1944EB0404521B23
:108DC000A3414FF0000348BF0A3200D530BD401C1C
:108DD00041F1000130BD2DE9F0470D46994692461C
:108DE000044600F124080168880604D5E06921F0F2
:108DF0001001216000E00120A84201DD471B00E0D6
:108E00000027A1697A1902EB0900081AA0612078ED
:108E1000C00602D42046FFF793FC002608E0D4E900
:108E200001211AF806009047206A401C761C206237
:108E30004E45F4DB2078C0060AD52046FFF780FCBB
:108E400006E0D4E9012130209047206A401C2062CE
:108E5000381EA7F10107F4DC07E0D4E9012118F876
:108E600005009047206A401C2062281EA5F10105DC
:108E7000F3DC2046FFF77AFC2078000602D50220BA
:108E8000BDE8F0870120FBE770472DE9FF4F0C4656
:108E90001E464FF0FF378BB0D2E90001DDF860804D
:108EA0000A908A46C1F30A5505B93D460021084695
:108EB0004FF00000BAF1000F00F4400005DA00EBBB
:108EC00080004FF4400101EA50004FEA9059B9F197
:108ED000010F00DDB9460A9850EA4A000ED044F668
:108EE0001050A5F2FF3545432F14B8F1000F1ED0E6
:108EF0007542291E1EDDC9F100021CE0B8F1010F08
:108F00004FF0000001D0302103E0F24305E021548E
:108F1000401CB042FBDB30460022002121540B995B
:108F2000C1F80880C1E900200FB0BDE8F08FBD1B7B
:108F30006D1CDEE74A4600DA694206A800F0F8FB3D
:108F400006AB93E8070003AB83E8070050460A9995
:108F500000F0FDFC8DE80700A0F500501F380090E0
:108F60000398002D0ADD42F21F014A4608440023FF
:108F700003A90390684600F066FF09E0A0F50050E1
:108F80004A461F38002303A90390684600F070FF8B
:108F90008DE807000004000C03D04FF0FF304108BB
:108FA00000E01046B8F1000F03D0002200921546F1
:108FB0001EE0751E05D4FFF7C9FE303262556D1EE6
:108FC000F9D5B3460122084302D000227F1C04E0F9
:108FD0002078302801D100227F1E002A099784D0F2
:108FE0001DE0112D07DAFFF7B1FE303262556D1C1E
:108FF00050EA0102F5D1084302D00098C8B10EE052
:109000000021681E05E0235C625C63542254401E0C
:10901000491C8142F7DBAB46A81B401E099000208B
:1090200004F80B000B98099AC0F80880C0E9002BDF
:109030007AE711264FF0000857E72DE9F04F8846F0
:109040000446D21D22F0070191B0D1E90001CDE91B
:109050000A0105F02FFB02460B98C00F01D02D200E
:1090600007E02068810701D52B2002E0202101EADA
:10907000C000032A099001D0072A05DB03464146B8
:10908000204600F015FB0BE12078800601D5E06951
:1090900000E00620B8F1650F814606D0B8F1660FF2
:1090A00018D0B8F1670F70D131E00020B9F1110F7D
:1090B000009001DB112301E009F101030AAA01A9D3
:1090C0000CA8FFF7E2FEDDE90C70002609F10105AE
:1090D000834647E001204B4600904FF000470AAA24
:1090E00001A90CA8FFF7D1FEDDE90DB00C995D4692
:1090F000002610B909F101000D18B9EB050003D4E1
:10910000C0F1FF3609F10105A5EB09002BE0B9F12B
:10911000010F01DA4FF001090020B9F1110F0090A1
:10912000484601DD112300E003460AAA01A90CA864
:10913000FFF7ABFEDDE90C704D4600268346207834
:1091400000070AD4AB4500DA5D4601A8012D04DD15
:10915000411911F8011C302907D04F4502DA17F1E7
:10916000040F04DA012082460FE06D1EEEE7002FA7
:1091700002DCED1B3E4403E0781CA84200DD7D1CB0
:10918000B81B00F1010A4FF000472078000703D414
:10919000AA4501DB4FF0FF3A0021B7F1004F0DF176
:1091A00043088DF8431024D002202B23002F01DA2E
:1091B0007F422D230A21021EA0F1010000DC5FB1D5
:1091C00097FBF1FC97FBF1F201FB1C7C17460CF1BD
:1091D000300C08F801CDEEE7A8F1010003702188FA
:1091E000090501D5452100E06521A0F1010800F83D
:1091F000011C09980FA9A1EB0807FF1D00B1012070
:10920000411901EBEA70A1693844081A401EA061B7
:109210002078C00602D42046FFF792FA099828B1B8
:10922000D4E901219047206A401C20622078C006C2
:1092300022D52046FFF784FA1EE0002E04DBB3455A
:1092400002DD01A8805D00E03020D4E901219047D3
:10925000206A401C2062761CAAF101005FEA000A25
:109260000AD100F021FAC0680168405CD4E901210C
:109270009047206A401C2062281EA5F10105DCDC15
:1092800007E0D4E9012118F8010B9047206A401C3F
:109290002062381EA7F10107F3DC2046FFF766FACB
:1092A000032011B041E600002DE9F04F04460D46C1
:1092B000D21D22F0070089B0D0E900974846394610
:1092C00005F0F8F90246F80F01D02D2307E02068D9
:1092D000810701D52B2302E0202101EAC0038DF88C
:1092E00020300BB1012000E00020032A824601D08B
:1092F000072A04DB2946204600F0DAF93FE120780E
:10930000800601D40D2500E0E569C7F30A560D2D4E
:1093100049DA00214FEA175B08464FF00000002FA2
:1093200000F4400007DA00EB80004FF4400100EB4E
:10933000D07001EA60008115012901DD4FF0FF3195
:1093400000224FEA850CBCF1180F06D31346ACF18E
:1093500018004FF08052C24003E04FF4801323FA0C
:109360000CF30CF10C0CBCF1200F04D3ACF1200C6D
:1093700009FA0CF001E007FA0CF000294FF0004860
:1093800001DD18B90FE00ED140450CD319EB0209ED
:109390005F4121B9404502D19F4329EA0209BBEB55
:1093A000175F00D0761C2088000502D57B487844E2
:1093B00002E07A487844193808AA302302F80A30C3
:1093C000037C0AF10101002E0AF1020A53546A4695
:1093D00002DC4FF0300101E04FF031014FF00108A5
:1093E0008DF8001002D0A6F2FF3603E059EA4701DB
:1093F00000D06B4E002D02DC2178090704D54FF018
:1094000002082E218DF80110C44600210BE0C7F39D
:1094100003433F01C35C491C6D1E02F80830052957
:1094200008F1010801DA002DF1DC00210CE000EB6D
:109430001973491C1B786D1E082902F808304FEA81
:10944000091908F1010801DA002DF0DC21688B060A
:1094500002D516E0A8F10108E04505DD02EB08039E
:1094600013F8013C302BF5D0B8F1000F09DD02EB09
:10947000080313F8013C2E2B03D1090701D4A8F1EE
:109480000108002D05DD3E2102F808106D1E08F1CF
:109490000108407C002E02F8080008F1010804DAF7
:1094A0002D20764202F8080002E02B2002F8080086
:1094B0000A214FF47A70864208F101080BDB96FB13
:1094C000F0F3303302F8083096FBF0F308F10108AE
:1094D00000FB136601E0642E0CDB642096FBF0F3C6
:1094E000303302F8083096FBF0F308F1010800FB76
:1094F000136601E00A2E06DB96FBF1F0303002F82D
:10950000080008F1010896FBF1F001FB1060303013
:1095100002F80800A16908F1010808EB050202EB56
:109520000A00081AA0612078C00602D42046FFF77E
:1095300007F9216A08AE01EB0A00206204E0D4E9D1
:10954000012116F8010B9047BAF1010AF7D22078F1
:10955000C00602D52046FFF7F3F86E4609E016F87C
:10956000010B3E280FD0D4E901219047206A401C0E
:109570002062B8F10108F2D22046FFF7F7F809B0EF
:109580000320BDE8F08F206A2844206203E0D4E97C
:109590000121302090476D1EEBD3F8E7C1E80000B1
:1095A00002FCFFFF10B5436913B1AFF3008001E087
:1095B000FFF7FFF8012010BD127800F124010A70B6
:1095C00000224A700122EDE711684FF0FF32E9E70F
:1095D00010B5436913B1AFF3008001E0FFF780F9E4
:1095E000012010BD128800F1240182840022C2846F
:1095F0000122EDE711684FF0FF32E9E770B516463A
:109600000C46054600F048F8036893F8010101286C
:1096100006D0FF2C0FD8185D68B101202C7070BDEA
:10962000D3F807013246214603F2071303442846C4
:10963000BDE8704018474FF0FF3070BD10B500F026
:10964000F7F8BDE8104000F0EEB870477546FFF738
:109650005BFBAE4605006946534620F00700854691
:1096600018B020B5FEF790FEBDE820404FF0000690
:109670004FF000074FF000084FF0000B21F00701FA
:10968000AC46ACE8C009ACE8C009ACE8C009ACE83D
:10969000C0098D467047000010B500F005F8001DA8
:1096A00010BD00BFB1D40000004870479C0C0020E2
:1096B0002DE9F0411F46044603260168072A01F4FC
:1096C000006004DB08B116A505E016A503E008B1AB
:1096D00015A500E015A521F010002060A069C01EAE
:1096E000A0610FB1401EA0612046FFF729F84FB1DD
:1096F000D4E9012138469047206A401C2062C01CF2
:10970000206206E0206AFAE7D4E9012115F8010B8E
:109710009047761EF8D22046FFF728F8BDE8F08182
:109720004E414E006E616E00494E4600696E660005
:109730002DE9F047814616468AB0354878440DC871
:109740008DE80D0032487844801C03AC0DC884E8D5
:109750000D0041F69B300844372190FBF1F290FB5D
:10976000F1F5A5F1800501FB12041B3C02D5644212
:10977000012000E00020DFF898A080460027FA448E
:10978000AAF1BE0A0EE0E0070AD03246684607EBAF
:10979000470101230AEB810100F06AFB8DE8070015
:1097A00064107F1C002CEED1194F7F44AE3F19E0AE
:1097B000E80715D007EB04100DF1180A90E80E0029
:1097C0008AE80E00C068F04201D19819089032462C
:1097D000012306A903A800F04BFB03AB83E80700B5
:1097E0006D10641C002DE3D14FF001033246694631
:1097F000B8F1000F03A802D000F025FB01E000F053
:1098000037FBC9E90001C9F808200AB0BDE8F087B4
:10981000C4E5000010B50446AFF300802046BDE863
:109820001040FEF79CBD002801D000F029B8704719
:1098300010B5012805D0002103A000F027F8012071
:1098400010BD09A1F8E7000053494752544D454D5A
:109850003A204F7574206F662068656170206D65D1
:109860006D6F7279000000003A2048656170206DCC
:10987000656D6F727920636F7272757074656400C4
:1098800001491820ABBEFEE72600020070B5054670
:109890000C460A2000E06D1C00F052F835B1287823
:1098A0000028F8D102E0641C00F04AF814B12078D6
:1098B0000028F8D1BDE870400A2000F041B800004F
:1098C0004FF0013C50F8042B51F8043B9A4221D14F
:1098D000A2EB0C03934313EACC1317D150F8042BDB
:1098E00051F8043B9A4215D1A2EB0C03934313EABF
:1098F000CC130BD150F8042B51F8043B9A4209D1F8
:10990000A2EB0C03934313EACC13DBD04FF000001F
:10991000704700BFD01A01BAB1FA81F101F0180105
:1099200022FA01F0CB40C1F12001DBB2C0B2C01A73
:109930002CFA01F3D11A914311EAC311E6D1704711
:1099400008B569468DF800000320ABBE08BD5FEA8C
:10995000400C08BF91F0000F4FEA8C234FEAC12260
:1099600043EA51514FEA1C5018BF00F5F0404FEA4E
:10997000300018BF41F000415FEA6C5C00F02980C4
:10998000BCF1FF3F08BF40F080407047130C06BF9A
:1099900012044FF0100C4FF0000C130E04BF120213
:1099A0000CF1080C130F04BF12010CF1040C930FFF
:1099B00004BF92000CF1020CD30F04BF52000CF153
:1099C000010C11464FF00002A0F11F00A0EB0C00AB
:1099D000704711F0004F08BF704731F000413FF46D
:1099E000D5AF0B0C06BF09044FF0100C4FF0000C64
:1099F0000B0E04BF09020CF1080C0B0F04BF090188
:109A00000CF1040C8B0F04BF89000CF1020CCB0F7E
:109A100004BF49000CF1010CCCF12003A0EB0C00B9
:109A200022FA03F302FA0CF241EA030100F1010009
:109A3000704720F07F4C80EA030023F07F47ACEBB7
:109A4000070303F57C5300F0004003F1FF032DE909
:109A500080494FEA154B09B44FEA144325EA0B4EEF
:109A600024EA03480FF2042606EB132749083E7840
:109A70005FEA320203FB0667C7F5000707FB06F63D
:109A80004FEA54374FEAD64606F1020607FB066C4A
:109A9000CCF1005C4FEA1C472CEA074C07FB06F4AC
:109AA0000CFB06F504EB15464FEA961634BF002072
:109AB0004FF000404FEAD13706FB07FC4FEA1C4C41
:109AC0000CFB0BF7D21B03FB0CF761EB07010CFB44
:109AD0000EF7B0EB074072EB17420CFB08F734BFF0
:109AE000A2EB0742B2EB074261EB17414FEA0C448D
:109AF0004FEA910706FB07FC4FEA1C4C0CFB0BF7E7
:109B0000B0EBC74072EB573203FB0CF734BFA2EB4C
:109B1000C742B2EBC74261EB57310CFB0EF7B0EB1B
:109B2000C70072EB57720CFB08F734BFA2EBC702F9
:109B3000B2EBC70261EB5771039F4FEA816141EAC3
:109B4000921104EBCC044FEAD1374FEA826206FB54
:109B500007FC42EA90124FEA80604FEA1C4C0CFB73
:109B60000BF7D21B03FB0CF761EB07010CFB0EF7A5
:109B7000B0EB074072EB17420CFB08F734BFA2EBC7
:109B80000742B2EB074261EB17414FEA8C554FEAAF
:109B9000910704EB9C2406FB07FC4FEA1C4C0CFBD2
:109BA0000BF7B0EBC74072EB573203FB0CF734BF37
:109BB000A2EBC742B2EBC74261EB57310CFB0EF789
:109BC000B0EBC70072EB57720CFB08F734BFA2EB87
:109BD000C702B2EBC70261EB577115EB4C254FEA98
:109BE000816141EA92114FEA82624FEAD13742EA3B
:109BF000901206FB07FC44F100044FEA80604FEA34
:109C00001C4C0CFB0BF7D21B03FB0CF761EB0701A1
:109C10000CFB0EF7B0EB074072EB17420CFB08F79A
:109C200034BFA2EB0742B2EB074261EB174115EBE1
:109C30001C154FEA813141EA92414FEA823242EAF1
:109C400090424FEA80304FEA0C7644F1000448EA33
:109C500003434EEA0B484FF0000EB2EB080C71EBD9
:109C6000030724BF624639464EEB0E0E4FF0000B41
:109C70000018524149414BEB0B0BB2EB080C71EB56
:109C800003077BF1000B24BF624639464EEB0E0EF4
:109C90004FF0000B0018524149414BEB0B0BB2EB5C
:109CA000080C71EB03077BF1000B24BF62463946B9
:109CB0004EEB0E0E51EA020718BF46F0010616EBF6
:109CC0000E7655F1000254F1000103D5BDE889017B
:109CD000BDE80088BDE88901BDE80048B6195241D9
:109CE00041EB0101A3F10103704780807F7E7D7C01
:109CF0007B7A7978777676757473727171706F6E1E
:109D00006E6D6C6C6B6A6A696868676666656464C8
:109D1000636362616160605F5F5E5E5D5D5C5C5B52
:109D20005B5A5A59595858575756565555555454C1
:109D3000535352525251515050504F4F4F4E4E4D1F
:109D40004D4D4C4C4C4B4B4B4A4A4A49494948486B
:109D500048474747474646464545454444444443AB
:109D600043434342424242414141002B9C4630D44E
:109D700077002BD01CB54FEA370703B44FF0100023
:109D80004FF01001BAF1000F06D0BCF1000FDCBF9C
:109D900040F0080040F008014FF000000FBCBDE8A3
:109DA00010400BF1010BBBF1010F08BF5FEA170771
:109DB00022BF12F1010211F101014FF0004143F104
:109DC000000300F0004043EA00007047F9D3570851
:109DD000D0E746EA064613F1400F4FEA16461FDD6C
:109DE00013F1200FDFBF16430A46002120335B42E8
:109DF000BED0C3F1200746EA064602FA07F74FEA4B
:109E0000164646EA0706C3F1200722FA03F201FAD2
:109E100007F721FA03F14FF0000342EA0702A7E730
:109E200046EA020646EA06464FEA164646EA0106B2
:109E3000BCBF46EA0646360C4FF000034FF0000266
:109E40004FF0000194E72DE9804C9A46934670B498
:109E500091E8380007C831EA400C48BF34EA430CA7
:109E600003D5FFF7E6FDFFF780FFF0BCBDE8008CEF
:109E70002DE9804C9A46934670B491E8380007C8A3
:109E800010F0804F08BF13F0804F03D100F005F8A9
:109E9000FFF76BFFF0BCBDE8008C20F07F4780EA45
:109EA000030023F07F4C07EB0C03A3F57C5300F079
:109EB0000040A3F1FE0392F0000F00F0B38095F094
:109EC000000F00F077802DE901494FEA11404FEA79
:109ED000144621EA004800FB06FC24EA064708FB7A
:109EE00006F607FB08F800FB07F718EB06484CEBF3
:109EF000164C4FEA124B18EB07484FEA15464CEB4D
:109F0000174022EA0B4E0BFB06FC25EA06470EFB28
:109F100006F607FB0EFE0BFB07F71EEB064E4CEB9F
:109F2000164C4FF000061EEB074E4CEB174B18EB90
:109F30000B0840F1000018EB0E0B58EB000840F145
:109F400000008F1A4FF000013CBFC943661B14BFCD
:109F5000B5EB040C00213CBFC943F61B4FEA174484
:109F60004EEA8E0E27EA04454FEA1C4704FB0762BF
:109F70002CEA074C05FB07F70CFB05F604FB0CFC71
:109F800016EB074642EB174216EB0C4642EB1C421F
:109F90001BEB060658EB0202414146EA9E0601D53C
:109FA000BDE80189B619524141EB0101A3F101035A
:109FB000BDE801894FEA14454FEA114724EA0546F6
:109FC00021EA074C05FB07F406FB07F70CFB06F13B
:109FD00005FB0CFC11EB074144EB17444FEA124719
:109FE00011EB0C4144EB1C4422EA074C05FB07F241
:109FF00006FB07F70CFB06F605FB0CFC16EB074609
:10A0000042EB174216EB0C4642EB1C456A1854F122
:10A01000000148BF7047B619524141EB0101A3F15D
:10A020000103704795F0000F37D04FEA11424FEA15
:10A03000144721EA024624EA074C02FB07F106FB1B
:10A0400007F70CFB06F402FB0CFC14EB074441EB96
:10A0500017414FEA154714EB0C4441EB1C4125EA2C
:10A06000074C02FB07F506FB07F70CFB06F602FBA5
:10A070000CFC16EB074645EB174516EB0C4645EB7B
:10A080001C42121951F1000148BF7047B6195241E4
:10A0900041EB0101A3F1010370474FEA14454FEA78
:10A0A000114724EA054621EA074C05FB07F106FBA8
:10A0B00007F70CFB06F24FF0000605FB0CFC12EB59
:10A0C000074241EB174112EB0C4251EB1C4148BFD8
:10A0D0007047921841EB0101A3F1010370470000A2
:10A0E00010B5024800F0D0FA10BD0000FC050020B9
:10A0F00000BFFEE770B502460C46FF25FF2309E0CE
:10A1000012F8010B80EA03010648405C80EA05036F
:10A110000548455C201EA4F10106F4B2F0D143EAE3
:10A12000052070BD5D0100205D02002070B5044671
:10A130000D46164606FB05F0FEF738F9206020684C
:10A1400008B9002070BD266100206060A060E56055
:10A1500060610120F6E7000010B5024800F013FD31
:10A1600010BD00006806002010B5024800F00BFD8D
:10A1700010BD0000740A002010B5024800F003FD75
:10A1800010BD00008409002030B50E4D0468AC42BB
:10A1900001D20D4901E00C4920310B460478083CFE
:10A1A0001425B4FBF5F2446CA40803EB8404846426
:10A1B000054C8034C46402F01F050124AC400465E2
:10A1C00030BD0000080402400008024001794A1E28
:10A1D000064B03EB82024265044A403282654A1E06
:10A1E00002F01F0301229A40C26570470009024035
:10A1F00030B5D0E913546C60446D14B1D0E91654F5
:10A200006C6090F8444004F01F050124AC40056CDC
:10A210006C60046863608468102C04D10468A260D8
:10A220000468E16003E00468A1600468E26030BD96
:10A23000704770B504460D46204600F019F808B185
:10A24000002070BD2669D4E9000303FB06013246F5
:10A250002846FEF782F96068401CE16890FBF1F245
:10A2600001FB120060606069401E60610120E8E748
:10A270000146D1E90102904201D10120704700203E
:10A28000FCE770B504460D46204600F0E7F908B13A
:10A29000002070BD2669A368216803FB06103246C2
:10A2A0002946FEF75AF9A068401CE16890FBF1F2DC
:10A2B00001FB1200A0606069401C60610120E8E7BA
:10A2C00072B600BFFEE7000010B5094800F083FF3A
:10A2D00000BF084B084A4021054800F0EFFE002867
:10A2E000F7D004490448054A1268904710BD0000A1
:10A2F000C8060020900700204407002068030020C3
:10A30000014688B260BB0814102829D2DFE800F0AB
:10A31000080A0C0E10121416181A1C1E20222426CD
:10A32000002070470120FCE70220FAE70320F8E74D
:10A330000420F6E70520F4E70620F2E70720F0E71F
:10A340000820EEE70C20ECE71020EAE71420E8E70D
:10A350001820E6E71820E4E73020E2E74020E0E7B5
:10A360000020DEE710B5194901640368D3F8803096
:10A3700023F4F814838E44EA03430468C4F880305D
:10A3800001F1700343640368D3F8803023F07064F4
:10A3900090F8383044EA03630468C4F8803001F16F
:10A3A000B003836401F5C473C36401F518730365D6
:10A3B00001F51E7343650A4602E000231360121D77
:10A3C00001F554739A42F8D310BD000000A4004078
:10A3D0002DE9F041054614461E46D1F804C0BCF1F3
:10A3E000000F0AD1D1F810C0D1F808804CEA080C4F
:10A3F000B1F800804CEA88430BE0D1F810C04CF073
:10A40000804CD1F808804CEA080CD1F800804CEA66
:10A41000080391F82080D1F81CC04CEA086CD1F8F0
:10A4200018804CEA080CD1F814804CEA080CD1F8DA
:10A430000C804CEA080706EBC608D5F854C00CEBB4
:10A44000C8021360121D1760121D002019E000F1F0
:10A45000030C14F80CC04FEA0C6800F1020C14F85D
:10A460000CC048EA0C4800F1010C14F80CC048EA92
:10A470000C2C14F800804CEA080CC2F800C0121D25
:10A48000001DDFF81880D1F80CC008EB1C4C9CF8BC
:10A4900000C08445DBD8BDE8F08100008679010862
:10A4A0001B49087F012801D0032816D119490968E2
:10A4B00021F40071174A116000BF1146096841F488
:10A4C000006111601146096821F40061116000BF4C
:10A4D0001146096841F400711160022801D0032877
:10A4E00011D100BF0B49096841F48051094A11603C
:10A4F0001146096821F48051116000BF11460968B6
:10A5000041F4806111600021014A11777047000019
:10A510000C0000200020024000F0010129B1064992
:10A52000496941F00401044A51610349496941F410
:10A530008031014A5161704700200240094A526946
:10A5400022F4FC72C3B242EAC302064B5A611A46B5
:10A55000526942F002025A611A46526942F480324C
:10A560005A6170470020024010B50849496941F01E
:10A570000101064C6161026000BF00BF00BFBFF374
:10A580006F8F00BF00BF00BF436010BD00200240BE
:10A59000F0B50246402314460D460C4E766946F44B
:10A5A00080260A4F7E6100BFEFF31086304672B6F8
:10A5B00000BF2E682660241D2D1D5E1EF3B2002BE9
:10A5C000F7D100BF80F3108800BFF0BD002002402B
:10A5D00070B5054601F0E6FA064606E001F0E2FA3B
:10A5E000801BA84201D9032070BD1A48006900F4FD
:10A5F0008030B0F5803FF1D0164800694CF2FA3156
:10A6000000EA0104CCB11448406820431249486074
:10A6100000BF04F0404030B10E48806904F0404172
:10A6200008430C49886124F0404018B124F04040B0
:10A630000849086100BF0120D6E70648006900F01C
:10A64000010020B100BF01200249086100BF0020C5
:10A65000CAE70000002002400C0000200146886884
:10A66000401CCA6890FBF2F302FB13004A68904258
:10A6700001D1012070470020FCE770477047704708
:10A6800070477047704770472DE9F84F0446002027
:10A6900000902068056820684668C54803F0B6F950
:10A6A000074605F00200022811D106F00200022838
:10A6B0000DD1E06D00F0100018B9E06D40F40060BD
:10A6C000E0652046FFF7D9FF02202168086005F009
:10A6D0000400042803D106F00400042807D005F084
:10A6E000080008285FD106F0080008285BD1E06D5B
:10A6F00000F0100018B9E06D40F40070E0652068CB
:10A7000003F093F9002848D0AA492068884202D172
:10A710004FF0A04000E020682168884204D01FB1BB
:10A72000052F01D0092F03D12068D0F80C800AE052
:10A73000A0492068884202D14FF0A04000E0206884
:10A740008346DBF80C8008F40050B0F5005F24D09D
:10A750002068006800F0080008281ED1206803F077
:10A760005FF990B92068406820F00C0021684860CB
:10A77000E06D20F48070E065E06D00F4805060B919
:10A78000E06D40F00100E06507E0E06D40F0100092
:10A79000E065206E40F0010020662046FFF772FF62
:10A7A0000C202168086005F02000202803D106F065
:10A7B0002000202807D005F04000402872D106F084
:10A7C000400040286ED1E06D00F0100018B9E06D37
:10A7D00040F40050E0652068C16C01F4C07109B913
:10A7E000012100E000218A4600BF206803F01DF926
:10A7F000814670492068884202D14FF0A04000E0B5
:10A8000020682168884204D01FB1062F01D0072F8D
:10A8100003D12068D0F80C800AE06649206888429D
:10A8200002D14FF0A04000E020688346DBF80C80A6
:10A83000BAF1000F30D008F0007028B1B9F1000F64
:10A840002AD008F4005038BB2068006800F04000AF
:10A85000402821D108F40010F0B9206803F0DBF89B
:10A8600090B92068406820F0600021684860E06D81
:10A8700020F48050E065E06D00F4807060B9E06D18
:10A8800040F00100E06507E0E06D40F01000E06599
:10A89000206E40F0010020662046FFF7EFFE6020AA
:10A8A0002168086005F0800080280DD106F0800046
:10A8B000802809D1E06D40F48030E065204600F04A
:10A8C0007BF880202168086005F48070B0F5807FF7
:10A8D0000FD106F48070B0F5807F0AD1E06D40F4AE
:10A8E0000030E0652046FFF7CBFE4FF48070216812
:10A8F000086005F40070B0F5007F0FD106F4007019
:10A90000B0F5007F0AD1E06D40F48020E06520467C
:10A91000FFF7B7FE4FF400702168086005F01000E3
:10A9200010282AD106F01000102826D1E06B10B9AB
:10A930000120009010E047B100BF1D48806800F47E
:10A94000604048B10120009006E02068C06800F037
:10A95000010008B101200090009801280AD1E06DA3
:10A9600040F48060E065206E40F0020020662046E2
:10A97000FFF789FE10202168086005F48060B0F5BB
:10A98000806F13D106F48060B0F5806F0ED1E06D5A
:10A9900040F48040E065206E40F0080020664FF4EF
:10A9A0008060216808602046FFF769FEBDE8F88FE7
:10A9B000000300500001005070470146002091F84C
:10A9C0002520022A03D00422CA63012027E00A6856
:10A9D000126822F00E020B681A608A6C126822F468
:10A9E00080728B6C1A600A68126822F001020B6890
:10A9F0001A6091F8442002F01F0301229A400B6C68
:10AA00005A60D1E913325A604A6D42B14A6D1268F8
:10AA100022F480724B6D1A60D1E916325A6001221D
:10AA200081F8252000BF002281F8242000BF704754
:10AA300070B50446002594F8250002280BD00420A8
:10AA4000E063012084F8250000BF002084F8240082
:10AA500000BF012534E02068006820F00E00216866
:10AA600008602068006820F0010021680860A06C80
:10AA7000006820F48070A16C086094F8440000F035
:10AA80001F0101208840216C4860D4E91310486000
:10AA9000606D40B1606D006820F48070616D086089
:10AAA000D4E916104860012084F8250000BF00207A
:10AAB00084F8240000BFA06B10B12046A16B88472A
:10AAC000284670BD10B504460CB9012010BD2068A1
:10AAD000006820F00100216808602749206888424A
:10AAE0000BD226492068401A1421B0FBF1F08000F7
:10AAF00060642248083820640AE01F492068401A30
:10AB00001421B0FBF1F0800060641B480838206419
:10AB100000202168086094F8440000F01F01012023
:10AB20008840216C48602046FFF72EFB0020A16C76
:10AB30000860D4E913104860606858B16068042860
:10AB400008D82046FFF742FB0020616D0860D4E979
:10AB50001610486000206065A065E065E062206333
:10AB60006063A063E06384F8250000BF84F82400DC
:10AB700000BF00BFAAE7000008040240080002402E
:10AB80000146C86B704770B50446206C05682068A4
:10AB9000066894F8440000F01F0104208840284013
:10ABA000E0B106F00400C8B12068006800F02000A1
:10ABB00028B92068006820F004002168086094F833
:10ABC000440000F01F0104208840216C4860206B85
:10ABD000002856D02046216B884752E094F8440064
:10ABE00000F01F0102208840284018B306F0020040
:10ABF00000B32068006800F0200040B920680068B9
:10AC000020F00A0021680860012084F8250094F8EB
:10AC1000440000F01F0102208840216C486000BF02
:10AC2000002084F8240000BFE06A50B32046E16AA7
:10AC3000884726E094F8440000F01F01082088406F
:10AC40002840F0B106F00800D8B12068006820F074
:10AC50000E002168086094F8440000F01F010120F4
:10AC60008840216C48600120E06384F8250000BF23
:10AC7000002084F8240000BF606B10B12046616B97
:10AC8000884770BD70B504460CB9012070BD2F49CE
:10AC9000206888420BD22E492068401A1421B0FB4C
:10ACA000F1F0800060642A48083820640AE02749EF
:10ACB0002068401A1421B0FBF1F080006064234842
:10ACC00008382064022084F825002068056847F6CB
:10ACD000F0708543D4E902010843216908436169A2
:10ACE0000843A1690843E1690843216A0843054311
:10ACF000206805602046FFF747FAA068B0F5804F4E
:10AD000001D1002060602079A16C0860D4E91310A3
:10AD10004860606860B16068042809D82046FFF781
:10AD200055FA0020616D0860D4E91610486003E010
:10AD300000206065A065E0650020E063012084F8E4
:10AD40002500002084F8240000BF9FE7080402408B
:10AD5000080002402DE9F04104460D4616461F4604
:10AD60004FF0000800BF94F82400012802D102200F
:10AD7000BDE8F081012084F8240000BF94F825008C
:10AD800001283FD1022084F825000020E0632068DC
:10AD9000006820F00100216808603B4632462946E1
:10ADA0002046FFF725FA206B30B12068006840F09C
:10ADB0000E00216808600BE02068006820F00400A5
:10ADC000216808602068006840F00A002168086077
:10ADD000A06C006800F4803028B1A06C006840F4DA
:10ADE0008070A16C0860606D28B1606D006840F4EF
:10ADF0008070616D08602068006840F00100216883
:10AE0000086006E000BF002084F8240000BF4FF077
:10AE100002084046ACE7000070B5044600F0C2FEF0
:10AE200006462546681C10B104480068054400BF6A
:10AE300000F0B8FE801BA842FAD370BD08000020C5
:10AE400070B50346144693F85C5001F4C07000B12D
:10AE500000BF012D01D0022D7DD11868826D01F057
:10AE6000070010B102F0010018B301F0380010B172
:10AE700002F00200E8B101F4E07010B102F0040049
:10AE8000B8B101F4F05010B102F0080088B101F43B
:10AE9000604010B102F0100058B101F4403010B120
:10AEA00002F0200028B101F47C0040B102F0400023
:10AEB00028B91868C06D40F001001E68F06501F007
:10AEC000070010B102F0010018BB01F0380010B10A
:10AED00002F00200E8B901F4E07010B102F00400E1
:10AEE000B8B901F4F05010B102F0080088B901F4CB
:10AEF000604010B102F0100058B901F4403010B1B8
:10AF000002F0200028B901F47C0040B102F04000BA
:10AF100028B11868C06D40F002001E68F06501F0AD
:10AF2000800030B11868D0F8DC0020431E68C6F8F5
:10AF3000DC0001F4807030B11868D0F8E0002043E4
:10AF40001E68C6F8E0001868406D08431E6870650A
:10AF5000002070BDFFE7186E40F002001866012067
:10AF6000F7E72DE9F04104460E461746706800B930
:10AF700000E000BF94F85C00022821D12068D0F8DE
:10AF8000C40000F4001030B1206E40F40070206660
:10AF90000120BDE8F0812068D0F8C400C0F301456D
:10AFA0002B463A4631462046FFF712FA0120A840C8
:10AFB0002168C1F8CC000120A840A0650020E8E786
:10AFC000206E40F0080020660120E2E7F0B502465E
:10AFD00092F85C60012E01D0022E23D1086880B95E
:10AFE000087A80070F7B40EAC7600F8A40EA074073
:10AFF0004F6940EA0704176C486807EB80031C6040
:10B000000EE00F7B086940EA47740F7A486940EA0E
:10B010008775576C486807EBC0031C601B1D1D60DB
:10B020000020F0BD106E40F0020010660120F8E72D
:10B0300070B50446049D94F85C00012810D1080105
:10B0400040EA820040EA430028432668D6F8806040
:10B0500026F03F0630432668C6F88000002070BD09
:10B06000206E40F0040020660120F8E710B503468A
:10B0700093F85C00012805D142EA01201C68A06415
:10B08000002010BD186E40F0040018660120F8E79B
:10B09000014691F85C00012807D10868C06840F4B7
:10B0A00000000A68D06000207047086E40F004007D
:10B0B00008660120F8E77047704700002DE9F0436B
:10B0C00004460E469C4694F85C80B8F1020F79D194
:10B0D000402E17D12068D0F8900000F00F0030B952
:10B0E000206E40F4807020660120BDE8F083206867
:10B0F000D0F89000C0F3012303EBC309A06C00EB70
:10B10000C90115E02068D0F8980000F00F0028B9B8
:10B11000206E40F4807020660120E6E72068D0F8B9
:10B120009800C0F3012303EBC309E06C00EBC901F5
:10B13000086800F080405060506820B90868C0F38B
:10B140008A40106003E0086820F0604010600868E2
:10B1500000F000509060086800F000401061091D88
:10B16000088880B2D061086800F47020D060086858
:10B1700000F480105061086800F4001090610868C5
:10B18000C0F3066010620868C00F5062091D0F46C8
:10B19000002503E0785D0CF805006D1CDFF83090A9
:10B1A000D06809EB10400078A842F3D8402E04D1B3
:10B1B0002068C0F8943003E004E02068C0F89C30B8
:10B1C000002092E7206E40F00800206601208CE706
:10B1D0008679010870472DE9F05F04462068006D0C
:10B1E00000F4E0552068406D05402068006D00F0D7
:10B1F00007062068406D06402068006D00F03807A3
:10B200002068406D07402068006D00F471082068D8
:10B21000406D00EA08082068006D00F4602920688D
:10B22000406D00EA09092068006D00F0400050B14F
:10B230002068406D00F0400028B14020216808657A
:10B240002046FFF7C7FF2068006D00F48070A0B1B2
:10B250002068406D00F4807078B12068D0F8D8B0D4
:10B260002068D0F8E00000EA0B0B4FF480702168F2
:10B2700008655946204600F008FA2DB1206805659A
:10B280002946204600F003FA2EB1206806653146B3
:10B29000204600F0DFF92FB12068076539462046C7
:10B2A00000F0D9F92068006D00F4007058B12068F2
:10B2B000406D00F4007030B14FF4007021680865F3
:10B2C000204600F0E5F92068006D00F0800098B19C
:10B2D0002068406D00F0800070B12068D0F8D4A0E4
:10B2E0002068D0F8DC0000EA0A0A8020216808659E
:10B2F0005146204600F0CAF92068006D00F4005065
:10B3000058B12068406D00F4005030B14FF4005047
:10B3100021680865204600F0B7F92068006D00F448
:10B32000004058B12068406D00F4004030B14FF447
:10B33000004021680865204600F0A5F92068006DEE
:10B3400000F4804060B12068406D00F4804038B166
:10B350004FF4804021680865206E40F08000206630
:10B36000B9F1000F06D02068C0F850904946204639
:10B37000FFF7A2FEB8F1000F06D02068C0F8508099
:10B38000206E40EA08002066206E10B12046FFF7CC
:10B3900092FEBDE8F09F000070B504460CB9012094
:10B3A00070BD81492068884200D100BFA068B0F517
:10B3B000407F00D100BF94F85C0028B9002084F8D9
:10B3C0005D00204600F0F4F82068806920F010004D
:10B3D0002168886100F0E6FB05460DE000F0E2FB25
:10B3E000401B0A2808D9206E40F001002066032087
:10B3F00084F85C000120D3E72068806900F0080031
:10B400000828EBD02068806940F00100216888613D
:10B4100000F0C8FB05460DE000F0C4FB401B0A2805
:10B4200008D9206E40F001002066032084F85C00FB
:10B430000120B5E72068806900F001000028EBD00A
:10B440002068806940F002002168886156492068C0
:10B45000884202D1554960680860207C012806D1E5
:10B460002068806920F040002168886105E020683C
:10B47000806940F0400021688861607C012806D125
:10B480002068806940F480402168886105E0206878
:10B49000806920F4804021688861A07C012806D161
:10B4A0002068806920F480502168886105E0206868
:10B4B000806940F48050216888612068806920F4A8
:10B4C0004070A1680843216888612068806920F085
:10B4D000A400216888612068006920F010002168BC
:10B4E0000861E068012806D12068806940F0040006
:10B4F0002168886120E0E068F0B1E068022815D09A
:10B500002068806940F080002168886120680069B7
:10B5100040F0100021680861E06803280CD1206821
:10B52000806940F020002168886105E0206880691A
:10B5300040F0200021688861207E401E4106E069BD
:10B54000401E41EA0020216A491E0843A18A491E83
:10B5500040EA01402168C861A068B0F5407F0FD182
:10B56000A06A401EE16A491E40EA0121206B401E8C
:10B5700041EA0011A08C401E41EA00402168C860E9
:10B580002068D0F8C000E16B08432168C1F8C00012
:10B590002046FEF7E7FE0020A0652066012084F823
:10B5A0005C000020FCE600000064004000650040F4
:10B5B00010B598B00446142113A8FDF713F84421E0
:10B5C00002A8FDF70FF82049206888423AD180147C
:10B5D000029040030E9002A800F0B2FC08B1FEF702
:10B5E0006FFE00BF1948806D40F0007017498865F4
:10B5F0000846806D00F00070019000BF00BF00BFE2
:10B600000846C06C40F00200C8640846C06C00F0F8
:10B610000200019000BF00BF4FF440701390022061
:10B6200014900020159016900920179013A908482F
:10B6300000F0BAF900221146152000F099FB152000
:10B6400000F082FB18B010BD006400400010024002
:10B650000004004870477047014691F85C000128DB
:10B660000BD1022081F85C000868806920F001009D
:10B670000A689061002008667047086E40F0040078
:10B6800008660120F8E770477047704770477047B9
:10B69000704700002DE9F04104460F4600BF3B48CB
:10B6A0000078012802D10220BDE8F081012037494D
:10B6B000087000BF4FF47A70FEF78AFF0646002E2E
:10B6C0005DD1324948603248006800F4007090B1A2
:10B6D0002F48006800F4806048B12D48006820F4CD
:10B6E00080602B49086003202849087715E0012075
:10B6F0002649087711E02648006800F4806048B1C8
:10B700002348006820F480602149086002201F4916
:10B71000087702E000201D490877206801280ED133
:10B720006068FEF7F9FE4FF47A70FEF751FF0646A7
:10B730001748406920F00400154948611DE04FF0AA
:10B74000FF303860A56812E028466168FEF7F6FE13
:10B750004FF47A70FEF73CFF06460D48406920F42E
:10B76000FD700B4948610EB13D6005E06D1CD4E9E8
:10B7700002010844A842E7D800BFFEF791FE00BFCF
:10B7800000200249087000BF30468DE70C00002001
:10B790000020024001200649496941F00041044A65
:10B7A00051611146496901F0004101B10020704723
:10B7B000002002402DE9F0470446884615461E4603
:10B7C0004FF0000900BF1F480078012802D1022075
:10B7D000BDE8F08701201B49087000BF4FF47A7064
:10B7E000FEF7F6FE07462FBB0020164948603CB91D
:10B7F0002A4633464046FEF7B7FE4FF001090BE0FC
:10B80000012C01D0022C07D129464046FEF7C0FE8C
:10B81000022C01D14FF480294FF47A70FEF7D8FE44
:10B820000746B9F1000F05D00748406920EA090032
:10B830000549486100BF00200249087000BF384632
:10B84000C6E700000C00002000200240002008494C
:10B85000496901F0004151B10649054A9160064924
:10B8600091601146496901F0004101B10120704722
:10B870000020024023016745AB89EFCDF0B50B46B0
:10B8800000217DE001258D4005EA0302002A76D0E3
:10B890003E4D8E0855F826408D072E0F0F25B540DA
:10B8A0002C40B0F1904F01D1002519E0384DA8424D
:10B8B00001D1012514E0374DA84201D102250FE046
:10B8C000354DA84201D103250AE0344DA84201D1EB
:10B8D000042505E0324DA84201D1052500E00625EA
:10B8E0008E07360FB540A54223D12E4D2D689543C6
:10B8F0002C4E3560351D2D689543361D3560294D1C
:10B900000C352D689543274E0C363560351F2D6854
:10B910009543361F35608D072E0F0F2505FA06F467
:10B920001A4D8E0855F82650A543184E8F0846F834
:10B93000275005684F000326BE4035430560CE08FA
:10B9400000F1200555F826504E07F70E0F26BE4091
:10B95000B543CF0800F1200646F82750C5684F00D0
:10B960000326BE40B543C560456801268E40B543F9
:10B97000456085684F000326BE40B5438560491C7D
:10B9800023FA01F5002D7FF47DAFF0BD08000140E2
:10B990000004004800080048000C0048001000485F
:10B9A000001400480004014078B502460B4600210F
:10B9B000CAE001268E401D6805EA0604002C73D0FB
:10B9C0001D7905F00305012D04D01D7905F003054F
:10B9D000022D13D190684E000325B540A8434E00B8
:10B9E000DD68B54028439060506801258D40A8432C
:10B9F0001D79C5F300158D40284350601D7905F071
:10BA00000305032D09D0D0684E000325B540A84397
:10BA10004E009D68B5402843D0601D7905F00305B0
:10BA2000022D13D1CE0802F1200555F826004D074E
:10BA3000EE0E0F25B540A8434E07F60E1D69B54022
:10BA40002843CE0802F1200545F8260010684E0074
:10BA50000325B540A8431D7905F003054E00B54008
:10BA6000284310605D6805F44035002D6BD000BFA1
:10BA7000384D2D6E45F00105364E356635462D6E36
:10BA800005F00105009500BF00BF4FEAB6358E08EE
:10BA900055F826008D072E0F0F25B540A843B2F1AB
:10BAA000904F02D100251AE04DE02B4DAA4201D162
:10BAB000012514E0294DAA4201D102250FE0284DAD
:10BAC000AA4201D103250AE0264DAA4201D104254C
:10BAD00005E0254DAA4201D1052500E006258E0787
:10BAE000360FB5402843214D8E0845F82600204DDD
:10BAF0002868A0435D6805F4801505B120431C4DFE
:10BB000028602D1D2868A0435D6805F4001505B167
:10BB10002043174D2D1D2860154D2D1F2868A0436B
:10BB20005D6805F4003505B12043114D2D1F2860D7
:10BB30002D1F2868A0435D6805F4803505B12043BA
:10BB40000B4D083D2860491C1D68CD40002D7FF439
:10BB500030AF78BD001002400004004800080048E3
:10BB6000000C004800100048001400480800014084
:10BB700008040140024613690B400BB1012000E0AC
:10BB80000020704710B5426921EA020302EA01046D
:10BB900043EA0443836110BD0AB1816100E0816220
:10BBA0007047000001480068704700000000002056
:10BBB00070B504460CB9012070BD4CF6CC4021682C
:10BBC000086045F2555021680860D4E900104860CB
:10BBD0002168A0688860FFF7E5FF05460BE0FFF7E6
:10BBE000E1FF401B312806D92068C06800F007003B
:10BBF00008B10320E0E72068C06800F007000028D3
:10BC0000EDD120680169E068814203D02168E068D5
:10BC1000086103E04AF6AA20216808600020CBE70B
:10BC200001464AF6AA200A6810600020704700000A
:10BC300003480068034909680844014908607047DF
:10BC4000000000200800002010B50024032000F0B0
:10BC5000CDF80F2000F008F808B1012401E000F051
:10BC60002FF8204610BD000070B50446002511488D
:10BC70000068D8B10F4800684FF47A71B1FBF0F05A
:10BC80000D490968B1FBF0F6304600F04DFF58B998
:10BC9000102C07D200222146501E00F069F80748F8
:10BCA000046004E0012502E0012500E001252846AA
:10BCB00070BD0000080000202C00002004000020BF
:10BCC00008B500BF0E48006E40F001000C49086640
:10BCD0000846006E00F00100009000BF00BF00BFEA
:10BCE0000846806D40F0805088650846806D00F001
:10BCF0008050009000BF00BF00F018F908BD0000A0
:10BD00000010024010B501460846002817DB00F07D
:10BD10001F0301229A400B4B440943F8242000BF23
:10BD200000BF00BFBFF34F8F00BF00BF00BF00BF09
:10BD300000BF00BFBFF36F8F00BF00BF00BF00BFD9
:10BD400010BD000080E100E00146084600280DDB40
:10BD500000BF00BF00F01F0301229A4043099B006F
:10BD600003F1E023C3F8002100BF00BF00BF70470C
:10BD70002DE9F05F80460D46164602F0B7FC0746F7
:10BD800039462A46334601F00700C0F1070ABAF1E6
:10BD9000040F02D94FF0040A01E0C0F1070AD146AE
:10BDA00000F1040ABAF1070F02D24FF0000A01E0D5
:10BDB000A0F1030AD4464FF0010A0AFA09FAAAF1DF
:10BDC000010A0AEA020A0AFA0CFA4FF0010B0BFA0E
:10BDD0000CFBABF1010B0BEA030B4AEA0B04214607
:10BDE000404602F08BFCBDE8F09F000000BF00F071
:10BDF0000702064B19684FF6FF031940044B0B432B
:10BE000043EA0221014B196000BF70470CED00E0CE
:10BE10000000FA0502468ABB4148006800F4C06091
:10BE2000B0F5806F2BD13E488030006820F48070E0
:10BE30003B4BC3F880001846006820F4C06040F413
:10BE4000007018603748006832235843364BB0FB07
:10BE5000F3F0411C00E0491E3148406900F4806065
:10BE6000B0F5806F01D10029F5D12D48406900F46B
:10BE70008060B0F5806F51D10320704708E02848FA
:10BE80008030006820F48070254BC3F8800045E0C6
:10BE9000B2F5007F3AD12248006800F4C060B0F5E6
:10BEA000806F2AD11E488030006840F480701C4B9F
:10BEB000C3F880001846006820F4C06040F40070A9
:10BEC00018601848006832235843174BB0FBF3F052
:10BED000411C00E0491E1248406900F48060B0F542
:10BEE000806F01D10029F5D10D48406900F48060D0
:10BEF000B0F5806F12D10320BFE709488030006899
:10BF000040F48070064BC3F8800007E004480068E6
:10BF100020F4C06040F48060014B18600020ACE762
:10BF2000007000402C00002040420F000348806851
:10BF300040F4804001498860704700000070004074
:10BF40002DE9F84304460027B846206800F4002095
:10BF5000B0F5002F73D1B946D348806D00F0805002
:10BF600078B900BFD048806D40F08050CE498865D8
:10BF70000846806D00F08050009000BF00BF4FF079
:10BF80000109CA48006840F48070C8490860FFF79A
:10BF900009FE064606E0FFF705FE801B022801D9D0
:10BFA000032705E0C148006800F480700028F2D043
:10BFB00000BF002F46D1BC489030006800F44075A7
:10BFC000CDB1206CA84216D0B7489030006820F45C
:10BFD0004075B548D0F8900040F48030B249C1F8BF
:10BFE00090000846D0F8900020F48030C1F890000E
:10BFF0000846C0F8905005F00100A0B1FFF7D2FD4F
:10C00000064608E0FFF7CEFD801B41F288318842EA
:10C0100001D9032706E0A4489030006800F0020030
:10C020000028EFD000BF5FB99F489030006820F42F
:10C030004070216C08439C49C1F8900003E00CE07B
:10C04000B84600E0B846B9F1010F05D19648806DB9
:10C0500020F080509449886500BF207800F00100EE
:10C0600048B191488830006820F0030061680843B7
:10C070008D49C1F88800207800F00200022809D11B
:10C0800089488830006820F00C00A1680843864980
:10C09000C1F88800207800F00400042809D1824803
:10C0A0008830006820F03000E16808437E49C1F81C
:10C0B0008800207800F00800082809D17A488830E4
:10C0C000006820F0C000216908437749C1F8880062
:10C0D000207800F02000202809D1734888300068BB
:10C0E00020F44060616908436F49C1F888002078F6
:10C0F00000F04000402809D16B488830006820F4E7
:10C100004050A16908436849C1F88800207800F0D0
:10C110008000802809D164488830006820F44040BD
:10C12000E16908436049C1F88800208800F4807004
:10C13000B0F5807F09D15C488830006820F4403039
:10C14000216A08435849C1F88800208800F400702B
:10C15000B0F5007F09D154488830006820F44020B1
:10C16000616A08435049C1F88800208800F4806063
:10C17000B0F5806F13D14C488830006820F440102F
:10C18000A16A0843484988310860A06AB0F5801F59
:10C1900005D14548C06840F480104349C8602088F4
:10C1A00000F40060B0F5006F13D13F48883000689C
:10C1B00020F44000E16A08433B4988310860E06AA6
:10C1C000B0F5800F05D13848C06840F4801036497A
:10C1D000C860208800F48050B0F5805F13D13248E9
:10C1E0008830006820F04070216B08432E49883168
:10C1F0000860206BB0F1807F05D12B48C06840F407
:10C2000080102949C860208800F40050B0F5005F14
:10C2100013D125488830006820F04060616B0843E6
:10C22000214988310860606BB0F1006F05D11E486C
:10C23000C06840F480101C49C860208800F4804029
:10C24000B0F5804F13D118488830006820F0406066
:10C25000A16B0843144988310860A06BB0F1006FEE
:10C2600005D11148C06840F480100F49C86020888B
:10C2700000F40040B0F5004F13D10B48883000683F
:10C2800020F04050E16B0843074988310860E06BBB
:10C29000B0F1805F05D10448C06840F480300249A5
:10C2A000C8604046BDE8F8830010024000700040BE
:10C2B0002DE9F04104460D464FF0000814B9012065
:10C2C000BDE8F0817D48006800F00F00A8420ED262
:10C2D0007A48006820F00F00284378490860084633
:10C2E000006800F00F00A84201D00120E8E72078A4
:10C2F00000F00100002864D06068032823D1704852
:10C30000006800F0007008B90120D9E701F09CFB3B
:10C3100006466C48864237D96948806800F0F000CC
:10C3200030B1207800F0020002282DD1A06858BB5F
:10C330006348806820F0F00040F080006049886029
:10C340004FF0800820E06068022806D15C48006851
:10C3500000F4003040B90120B2E75948006800F409
:10C36000806008B90120ABE700F0DEF806465548CA
:10C37000864209D95248806820F0F00040F08000E1
:10C380004F4988604FF080084D48806820F00300D6
:10C39000616808434A498860FFF704FC074608E0E3
:10C3A000FFF700FCC01B41F28831884201D903200D
:10C3B00086E74348806800F00C006168B0EB810FAD
:10C3C000EED1207800F00200022820D1207800F081
:10C3D0000400042805D13A48806840F4E0603849F8
:10C3E0008860207800F00800082807D13448806869
:10C3F00020F4605040F4E060314988603048806843
:10C4000020F0F000A16808432D49886008E0B8F1E9
:10C41000800F05D12A48806820F0F0002849886004
:10C420002648006800F00F00A84219D92348006888
:10C4300020F00F00284321490860FFF7B3FB0746AF
:10C4400008E0FFF7AFFBC01B41F28831884201D9F9
:10C45000032035E71948006800F00F00A842F0D12A
:10C46000207800F00400042807D11548806820F4E3
:10C47000E060E168084312498860207800F0080015
:10C48000082808D10E48806820F46050216940EAED
:10C49000C1000B49886000F047F809498968C1F379
:10C4A0000311094A515C01F01F01C84007490860A7
:10C4B00007480068FFF7D8FB02E7000000200240B1
:10C4C0000010024000B4C404AE7901082C00002022
:10C4D0000400002001480068704700002C00002084
:10C4E00000B5FFF7F7FF05498968C1F30221044A47
:10C4F000515C01F01F01C84000BD00000010024067
:10C50000BE79010800B5FFF7E5FF05498968C1F369
:10C51000C221044A515C01F01F01C84000BD000067
:10C5200000100240BE79010870B5224DAD6805F0DB
:10C530000C05042D01D120483AE01E4DAD6805F0F0
:10C540000C05082D01D11D4832E01A4DAD6805F0EB
:10C550000C050C2D2BD1174DED6805F00304154D7E
:10C56000ED68C5F303156A1C022C0CD0032C09D10D
:10C57000124DB5FBF2F50F4EF668C6F3062605FB25
:10C5800006F10AE000BF0C4DB5FBF2F5094EF66866
:10C59000C6F3062605FB06F100BF00BF054DED689A
:10C5A000C5F341656D1C6B00B1FBF3F000E00020AA
:10C5B00070BD0000001002400024F40000127A0058
:10C5C0002DE9F843044614B90120BDE8F88320782A
:10C5D00000F00100002865D0FC48806800F00C07DE
:10C5E000FA48C06800F003060C2F01D1032E01D0D9
:10C5F000082F0AD1F548006800F40030002851D017
:10C60000606800284ED10120DFE700BF6068B0F508
:10C61000803F06D1ED48006840F48030EB49086067
:10C620001AE06068B0F5A02F0BD1E848006840F42C
:10C630008020E64908600846006840F480300860C1
:10C640000AE0E248006820F48030E04908600846CB
:10C65000006820F48020086000BF606888B1FFF7A0
:10C66000A1FA054606E0FFF79DFA401B642801D9B0
:10C670000320AAE7D548006800F400300028F2D073
:10C6800010E0FFF78FFA054606E0FFF78BFA401B34
:10C69000642801D9032098E7CC48006800F40030F2
:10C6A0000028F2D1207800F00200022860D1C748AB
:10C6B000806800F00C07C548C06800F003060C2F26
:10C6C00001D1022E01D0042F18D1C048006800F417
:10C6D000806018B1E06808B9012076E7BB4840687F
:10C6E00020F0FE40217C40EA0160B8494860B8482B
:10C6F0000068FFF7B9FA18B3012066E7E06800B3F5
:10C70000B248006840F48070B0490860FFF74AFA08
:10C71000054606E0FFF746FA401B022801D9032030
:10C7200053E7AA48006800F480600028F2D0A748C8
:10C73000406820F0FE40217C40EA0160A349486047
:10C7400016E0A248006820F48070A0490860FFF756
:10C7500029FA054606E0FFF725FA401B022801D911
:10C76000032032E79948006800F480600028F2D185
:10C77000207800F00800082836D16069D0B19348CD
:10C780009430006840F001009049C1F89400FFF730
:10C7900009FA054606E0FFF705FA401B022801D911
:10C7A000032012E789489430006800F00200002856
:10C7B000F1D019E085489430006820F001008349E9
:10C7C000C1F89400FFF7EEF9054606E0FFF7EAF935
:10C7D000401B022801D90320F7E67C48943000680A
:10C7E00000F002000028F1D1207800F004000428B5
:10C7F00072D14FF000087548806D012121EA107058
:10C8000078B100BF7148806D40F080506F498865F5
:10C810000846806D00F08050009000BF00BF4FF0D0
:10C8200001086C48006800F48070B0B9694800687D
:10C8300040F4807067490860FFF7B4F9054606E0E8
:10C84000FFF7B0F9401B022801D90320BDE661487B
:10C85000006800F480700028F2D000BFA0680128B2
:10C8600008D15A489030006840F001005749C1F89B
:10C87000900021E0A06805280FD15448903000684E
:10C8800040F004005149C1F890000846D0F89000EB
:10C8900040F00100C1F890000EE04C489030006874
:10C8A00020F001004949C1F890000846D0F89000F6
:10C8B00020F00400C1F8900000BFA068A8B1FFF705
:10C8C00071F9054609E0FFF76DF9401B41F2883127
:10C8D000884202D9032078E625E03C489030006881
:10C8E00000F002000028EED013E0FFF75BF90546E8
:10C8F00008E0FFF757F9401B41F28831884201D91F
:10C90000032062E631489030006800F00200002801
:10C91000EFD1B8F1010F05D12C48806D20F0805087
:10C920002A49886500BF207800F02000202836D1F1
:10C93000A069D0B125489830006840F00100234933
:10C94000C1F89800FFF72EF9054606E0FFF72AF92F
:10C95000401B022801D9032037E61C4898300068A4
:10C9600000F002000028F1D019E018489830006863
:10C9700020F001001549C1F89800FFF713F90546AA
:10C9800006E0FFF70FF9401B022801D903201CE63F
:10C990000E489830006800F002000028F1D1E069EC
:10C9A000002860D00948806800F00C000C287FD077
:10C9B000E069022858D10548006820F080700349DA
:10C9C0000860FFF7EFF805460DE000000010024098
:10C9D0000400002000700040FFF7E4F8401B02282C
:10C9E00001D90320F1E54D48006800F000700028EF
:10C9F000F2D1D4E90810401E41EA0011A06A41EAD0
:10CA00000021208E0122C2EB500041EA4051342027
:10CA1000005DC2EB500041EA40612C20005D41EA1C
:10CA2000C0603E49C9683E4A114008433B49C8605E
:10CA30000846006840F0807008600846C06840F012
:10CA40008070C860FFF7AEF8054606E0FFF7AAF869
:10CA5000401B022801D90320B7E53048006800F0E8
:10CA600000700028F2D056E02C48006820F080705A
:10CA70002A4908600846C06820F00300C8600846DC
:10CA8000C068284908402549C860FFF78BF805466B
:10CA900007E00DE0FFF786F8401B022801D90320CC
:10CAA00093E51E48006800F000700028F2D132E0E3
:10CAB000E069012800D188E51848C66806F003013E
:10CAC000206A814225D106F0F001606A401EB1EB78
:10CAD000001F1ED106F4FE41A06AB1EB002F18D151
:10CAE00006F078412C20005DB1EBC06F11D106F447
:10CAF000C001208E0122C2EB5000B1EB405F08D193
:10CB000006F0C0613420005DC2EB5000B1EB406F15
:10CB100001D0012059E5002057E500000010024037
:10CB20000C809F01FFFFEEFE70B504462546681E8F
:10CB3000B0F1807F01D301200FE0681E4FF0E021AB
:10CB400048610F214FF0FF3001F0D8FD00204FF079
:10CB5000E021886107200861002070BD70477047A0
:10CB6000704770477047704730B502460B4600BFAC
:10CB700092F83C00012801D1022030BD012082F84A
:10CB80003C0000BF022082F83D0010684168106838
:10CB900084681D4D1068A84203D01C4D1068A8423F
:10CBA00003D121F470015868014319480140186805
:10CBB000014310684160144D1068A84213D01068FA
:10CBC000B0F1804F0FD0134D1068A8420BD0124D1A
:10CBD0001068A84207D00D4D1068A84203D00F4D31
:10CBE0001068A84205D124F08004986804431068B6
:10CBF0008460012082F83D0000BF002082F83C00E4
:10CC000000BF00BFB9E70000002C01400034014024
:10CC10008FFFFFFD0004004000080040004001407D
:10CC2000704710B504460CB9012010BD94F83D00C2
:10CC300028B9002084F83C00204600F029F80220A2
:10CC400084F83D00211D206800F0B0FF012084F829
:10CC5000480000BF84F83E0001213F2001554020DC
:10CC6000015541200155422001554320015500BF87
:10CC700000BF012084F8440045200155462001559D
:10CC80004720015500BF012084F83D000020CCE77B
:10CC900038B504462068B0F1804F15D100BF0B486D
:10CCA000806D40F00100094988650846806D00F0FC
:10CCB0000100009000BF00BF002211461C20FFF7BA
:10CCC00057F81C20FFF740F838BD00000010024064
:10CCD000014691F83D00012801D001207047022053
:10CCE00081F83D000868C06840F001000B68D8601A
:10CCF000184B0868984213D00868B0F1804F0FD0E5
:10CD0000154B086898420BD0144B0868984207D01E
:10CD1000134B0868984203D0124B0868984210D110
:10CD200008688068104B00EA0302062A0FD0B2F5AB
:10CD3000803F0CD00868006840F001000B68186064
:10CD400005E00868006840F001000B6818600020EA
:10CD5000C4E70000002C014000040040000800402F
:10CD60000034014000400140070001002DE9F0417E
:10CD700004460D46002700BF94F83C00012802D16C
:10CD80000220BDE8F081012084F83C0000BF0220B1
:10CD900084F83D00206886683F48064026F47F46B8
:10CDA000206886602868702824D00CDC00F00F0111
:10CDB000002964D10011072861D2DFE800F0535444
:10CDC000555649353F00354A811A90424FD009DC0B
:10CDD000B0F5805F0DD0B0F5005F18D0B0F1101F36
:10CDE0004DD143E0102943D0202942D0502946D1CB
:10CDF00040E046E0D5E902136A68206800F034FF9D
:10CE00002068866846F077062068866039E0D5E9B4
:10CE100002136A68206800F027FF2068806840F4E9
:10CE20008040216888602CE0EA686968206800F02A
:10CE300033FF5021206800F023FF22E0EA68696890
:10CE4000206800F03CFF6021206800F019FF18E026
:10CE5000EA686968206800F01FFF4021206800F040
:10CE60000FFF0EE000BF00BF00BF00BF00BF00BF4C
:10CE700000BF00BF2968206800F002FF01E0012721
:10CE800000BF00BF012084F83D0000BF002084F8EF
:10CE90003C0000BF384674E788FFCEFF200010003A
:10CEA000704710B5044620680069C0F34000D8B14F
:10CEB0002068C068C0F34000B0B16FF00200216884
:10CEC0000861012020772068806900F0030018B114
:10CED0002046FFF7E5FF05E0204600F002F9204676
:10CEE00000F000F90020207720680069C0F380007E
:10CEF000D8B12068C068C0F38000B0B16FF0040002
:10CF000021680861022020772068806900F4407061
:10CF100018B12046FFF7C4FF05E0204600F0E1F815
:10CF2000204600F0DFF80020207720680069C0F379
:10CF3000C000D8B12068C068C0F3C000B0B16FF0C5
:10CF4000080021680861042020772068C06900F08B
:10CF5000030018B12046FFF7A3FF05E0204600F0CC
:10CF6000C0F8204600F0BEF8002020772068006955
:10CF7000C0F30010D8B12068C068C0F30010B0B191
:10CF80006FF0100021680861082020772068C069D0
:10CF900000F4407018B12046FFF782FF05E02046FC
:10CFA00000F09FF8204600F09DF8002020772068D0
:10CFB000006900F0010058B12068C06800F001006D
:10CFC00030B16FF0010021680861204600F08BF855
:10CFD00020680069C0F3C01058B12068C068C0F371
:10CFE000C01030B16FF08000216808612046FFF763
:10CFF000B6FD20680069C0F3002058B12068C06801
:10D00000C0F3C01030B16FF4807021680861204611
:10D01000FFF7A4FD20680069C0F3801058B12068B4
:10D02000C068C0F3801030B16FF040002168086123
:10D03000204600F059F820680069C0F3401058B14C
:10D040002068C068C0F3401030B16FF02000216844
:10D0500008612046FFF784FD20680069C0F3005096
:10D0600058B12068C068C0F3005030B16FF4801030
:10D07000216808612046FFF775FD20680069C0F34C
:10D08000405058B12068C068C0F3405030B16FF4D0
:10D090000010216808612046FFF763FD20680069E1
:10D0A000C0F3805058B12068C068C0F3805030B1E0
:10D0B0006FF48000216808612046FFF754FD206866
:10D0C0000069C0F3C05058B12068C068C0F3C050B8
:10D0D00030B16FF40000216808612046FFF7A0FD21
:10D0E00010BD704770477047704770477047704772
:10D0F000704770B50446D4F88450D4F8886020682E
:10D10000806800F08000802823D1212D21D100BF2C
:10D1100000BF2168083151E8001F21F0800021681C
:10D12000083141E80002002AF3D100BFA06F68B1C6
:10D13000A06FFDF742FC48B1A06FFDF721FD20284C
:10D1400004D11020C4F88C00032070BD204600F0EC
:10D1500073FF2068806800F04000402823D1222E11
:10D1600021D100BF00BF2168083151E8001F21F024
:10D1700040002168083141E80002002AF3D100BFD5
:10D18000E06F68B1E06FFDF718FC48B1E06FFDF7A4
:10D19000F7FC202804D11020C4F88C000320D4E729
:10D1A000204600F0FBFE0020CFE710B504460CB986
:10D1B000012010BD2420C4F884002068006820F0FD
:10D1C000010021680860002021680860216848602B
:10D1D00021688860204600F05FFA00206C342062ED
:10D1E000A061E06144F86C0900BF84F8800000BFD2
:10D1F00000BFDEE710B504461F492068884214D1FD
:10D2000000BF002084F8800000BF08202168086269
:10D210001A480068006840F0100018490968086062
:10D2200064221749154800F043FB164920688842DC
:10D2300007D100BF002084F8800000BF08202168CB
:10D24000086211492068884214D100BF002084F888
:10D25000800000BF0820216808620C480068006850
:10D2600040F0100009490968086064220449074831
:10D2700000F01EFB10BD000000380140F408002043
:10D280002C0800200044004000480040E409002031
:10D290002DE9F04704462068C569206806682068C3
:10D2A000876840F60F0005EA0009B9F1000F0FD1B9
:10D2B00005F0200060B106F0200010B907F08050A2
:10D2C00030B1206F10B12046216F8847BDE8F0874C
:10D2D000B9F1000F7ED0CF48384018B9CE48304061
:10D2E0000028F7D005F0010058B106F4807040B175
:10D2F000012021680862D4F88C0040F00100C4F8D5
:10D300008C0005F0020058B107F0010040B1022086
:10D3100021680862D4F88C0040F00400C4F88C0046
:10D3200005F0040058B107F0010040B10420216865
:10D330000862D4F88C0040F00200C4F88C0005F0BC
:10D34000080070B106F0200010B9B248384040B172
:10D35000082021680862D4F88C0040F00800C4F866
:10D360008C0005F4006060B106F0806048B14FF4B5
:10D37000006021680862D4F88C0040F02000C4F8F6
:10D380008C00D4F88C0000284ED005F0200050B15D
:10D3900006F0200010B907F0805020B1206F10B1C6
:10D3A0002046216F8847D4F88CA02068806800F060
:10D3B0004000402802D00AF0280070B3204600F058
:10D3C000EDFD2068806800F04000402821D100BFBA
:10D3D00000BF00E029E02168083151E8001F21F07A
:10D3E00040002168083141E80002002AF1D100BF65
:10D3F000E06F50B18948E16F8863E06FFDF718FB7B
:10D4000090B1E06F816B88470EE02046FFF7F2FE97
:10D410000AE02046FFF7EEFE06E0FFE72046FFF7B2
:10D42000E9FE0020C4F88C0050E7E06E012870D1BE
:10D4300005F0100000286CD006F010000028FAD08B
:10D440001020216808622068806800F040004028B1
:10D4500060D1E06F006840681FFA80F8B8F1000FF3
:10D4600056D0B4F85C00404552DDA4F85E80E06F11
:10D470000068006800F02000F0BB00BF00BF21681A
:10D4800051E8001F21F48070226842E80001002961
:10D49000F5D100BF00BF00BF2168083151E8001F6F
:10D4A00021F001002168083141E80002002AF3D18F
:10D4B00000BF00BF00BF2168083151E8001F21F004
:10D4C00040002168083141E80002002AF3D100BF82
:10D4D0002020C4F888000020E06600BF00BF21685B
:10D4E00051E8001F21F01000226842E800010029E5
:10D4F000F5D100BFE06F00E001E0FDF75EFAB4F89F
:10D500005C00B4F85E20801A81B22046FFF7EDFD82
:10D51000DCE641E034F85C0F6188401A1FFA80F8BD
:10D5200060885C3CB8B3B8F1000F34D000BF00BFD6
:10D53000216851E8001F21F49070226842E8000140
:10D540000029F5D100BF00BF00BF2168083151E8B4
:10D55000001F304AD24301EA02002168083141E845
:10D560000002002AF1D100BF2020C4F8880000206A
:10D57000E066206700BF00BF216851E8001F21F06E
:10D580001000226842E800010029F5D100BF4146A1
:10D590002046FFF7AAFD99E605F4801050B107F484
:10D5A000800038B14FF48010216808622046FFF7F0
:10D5B0009FFD8BE605F0800058B106F0800010B9A1
:10D5C00007F4000028B1606F10B12046616F8847F2
:10D5D0007CE605F0400030B106F0400018B120466E
:10D5E00000F012FD72E605F4000030B106F0804054
:10D5F00018B12046FFF77BFD68E605F0807030B17A
:10D6000006F0004018B12046FFF770FD5EE600BF4F
:10D610005CE60000010000102001000455DE000857
:10D6200010B504460CB9012010BDA06900B100E09E
:10D6300000BFD4F8840028B9002084F88000204678
:10D6400000F062F82420C4F884002068006820F00C
:10D65000010021680860204600F00EFD012800D17D
:10D66000E2E7A06A10B1204600F03DFB2068406868
:10D6700020F49040216848602068806820F02A00EB
:10D68000216888602068006840F001002168086017
:10D69000204600F0A4FBC7E710B5044615492068F2
:10D6A000884210D11448006E20F480401249086668
:10D6B000C0211248FEF7E2F8E06FFDF703FA2520DB
:10D6C000FEF720FB14E00E492068884210D10A487A
:10D6D000806D20F48020084988654FF44061094836
:10D6E000FEF7CCF8E06FFDF7EDF92720FEF70AFB17
:10D6F00010BD000000380140001002400004004846
:10D70000004800400008004810B598B004461421B5
:10D7100013A8FAF767FF442102A8FAF763FF5C49F0
:10D720002068884256D1012002900020039002A870
:10D73000FEF706FC08B1FCF7C3FD00BF5548006EBC
:10D7400040F48040534908660846006E00F480406B
:10D75000019000BF00BF00BF0846C06C40F002004F
:10D76000C8640846C06C00F00200019000BF00BF12
:10D77000C0201390022014900020159016900720CE
:10D78000179013A94448FEF70FF94448444908602C
:10D7900018204860002142488160C16080210161F9
:10D7A0000021416181612021C16100210162FDF7F9
:10D7B00069FA08B1FCF784FD00BF3948E06784626C
:10D7C00000BF002211462520FEF7D2FA2520FEF7E1
:10D7D000BBFA5BE033492068884257D104200290AD
:10D7E0000020059002A8FEF7ABFB08B1FCF768FD2E
:10D7F00000BF2848806D40F480202649886508468F
:10D80000806D00F48020019000BF00BF00BF08467B
:10D81000C06C40F00400C8640846C06C00F004000E
:10D82000019000BF00BF4FF440601390022014909D
:10D830000020159016900720179013A91A48FEF79C
:10D84000B3F816481438194908601C2048600021B4
:10D8500016488160C16080210161002141618161C0
:10D860002021C16100210162FDF70CFA08B1FCF72B
:10D8700027FD00BF0D48E067846200BF002211460B
:10D880002720FEF775FA2720FEF75EFA18B010BDC4
:10D8900000380140001002400004004830000240FF
:10D8A000840900200048004000080048740A002055
:10D8B00070B504460D461646D4F8880020282CD1B1
:10D8C00005B10EB9012070BD00BF94F88000012899
:10D8D00001D10220F7E7012084F8800000BF00207A
:10D8E000E0660F492068884211D02068406800F443
:10D8F000000060B100BF00BF216851E8001F41F087
:10D900008060226842E800010029F5D100BF32465C
:10D910002946204600F072FDD5E70220D3E700003B
:10D9200000800040704770472DE9F84F04460E46CE
:10D9300017469946D4F88400202862D106B117B959
:10D940000120BDE8F88F00BF94F88000012801D1C4
:10D950000220F6E7012084F8800000BF0020543444
:10D96000A06321202063FEF71DF98246278067808F
:10D97000543CA068B0F5805F04D1206910B900253F
:10D98000B04602E035464FF0000800BF002084F8A2
:10D99000800000BF21E05346002280212046CDF8C0
:10D9A000009000F095FD08B10320CAE745B9B8F82A
:10D9B0000000C0F308002168886208F1020803E053
:10D9C0002878216888626D1CB4F85600002804DDB0
:10D9D000B4F85600401EA4F85600B4F856000028CB
:10D9E000D9D15346002240212046CDF8009000F0C6
:10D9F0006FFD08B10320A4E72020C4F884000020B4
:10DA00009FE702209DE7704700BFFEE70146886858
:10DA100000F01F00704701468868C0F3C0007047DF
:10DA200001468868C0F3800070470146C86800F46A
:10DA3000406008B9012070470020FCE700BFFEE706
:10DA400000BFFEE77047000070B5164DED6805F0A9
:10DA50000304144DED68C5F303156B1C022C0CD0A8
:10DA6000032C09D1104DB5FBF3F50E4EF668C6F345
:10DA7000062605FB06F10AE000BF0C4DB5FBF3F5E9
:10DA8000084EF668C6F3062605FB06F100BF00BF88
:10DA9000044DED68C5F341656D1C6A00B1FBF2F001
:10DAA00070BD00000010024000127A000024F40053
:10DAB000004870472005002070470000004870476C
:10DAC0005805002010B5FEF7B3F810BD00B593B0AF
:10DAD000382105A8FAF786FD14216846FAF782FD79
