:020000040800F2
:10800000F06C0020C18200083DC1000805C10008D5
:1080100039C1000801880008ADCD0008000000004B
:10802000000000000000000000000000B5C10008D2
:10803000418900080000000041C10008C1C10008DA
:10804000DB820008DB820008DB820008DB8200089C
:10805000DB820008DB820008DB820008DB8200088C
:10806000DB820008DB820008DB82000869880008E8
:108070007988000889880008DB820008DB82000814
:10808000DB82000800000000F1870008DB820008A6
:10809000DB820008D9890008DB820008DB82000847
:1080A000DB820008DB820008DB820008DB8200083C
:1080B00045C20008DB820008DB820008DB82000882
:1080C000DB820008DB820008DB820008DB8200081C
:1080D000DB820008CDCC0008DB8200084DCD000813
:1080E000DB820008DB820008DB820008DB820008FC
:1080F000DB820008DB820008DB8200080000000051
:1081000000000000DB82000800000000DB820008A5
:10811000DB82000800000000DB820008DB82000830
:10812000DB820008DB820008DB820008DB820008BB
:10813000DB8200080000000000000000DB82000875
:10814000DB820008DB820008000000000000000065
:10815000000000000000000000000000000000001F
:10816000000000000000000000000000DB820008AA
:10817000DB8200080000000000000000000000009A
:1081800000000000DB82000800000000000000008A
:1081900000000000000000000000000000000000DF
:1081A0000000000000000000DB820008DB82000805
:1081B000DB820008DB820008DB8200080000000090
:1081C00000000000DB82000800000000000000004A
:1081D000DB820008DB82000800F002F800F060F8A3
:1081E0000AA090E8000C82448344AAF10107DA4512
:1081F00001D100F055F8AFF2090EBAE80F0013F004
:10820000010F18BFFB1A43F00103184734E10000C7
:1082100054E100000A444FF0000C10F8013B13F049
:10822000070408BF10F8014B1D1108BF10F8015BCF
:10823000641E05D010F8016B641E01F8016BF9D1C2
:1082400013F0080F1EBF10F8014BAD1C0C1B09D119
:108250006D1E58BF01F801CBFAD505E014F8016B8B
:1082600001F8016B6D1EF9D59142D6D3704700001D
:108270000023002400250026103A28BF78C1FBD82F
:10828000520728BF30C148BF0B6070471FB50DF0C3
:108290008AFE9DE8030000F065F91FBD10B510BD12
:1082A00000F024FA1146FFF7F1FF0AF0BFFF00F0DB
:1082B00042FA03B4FFF7F2FF03BC00F073FA0000C8
:1082C0000948804709480047FEE7FEE7FEE7FEE76A
:1082D000FEE7FEE7FEE7FEE7FEE7FEE704480549A6
:1082E000054A064B7047000031C20008D9810008DA
:1082F000F00C0020F06C0020F02C0020F02C00206E
:1083000070B5064600F012F9056806F10B0020F082
:108310000704B4429CBF002070BD2B466A68BAB106
:108320001068A04210D304F1080188423CBF506895
:10833000586007D35168101941601168091B01602A
:1083400058601460101D70BD13465268002AE7D1B2
:108350002146284600F0F2F80028DED170BD53EA2D
:10836000020C00F069802DE9F04B4FF00006002B65
:108370001FBFB3FA83F503FA05F424FA05F65E404D
:1083800012BF1643B2FA82F502FA05F4C5F12005D0
:108390001EBF22FA05FC44EA0C04203556EA044CC0
:1083A0004FEA144418BF641C4FF000084FF0000956
:1083B000904271EB030C39D3002919BFB1FA81F750
:1083C00001FA07F6B0FA80F700FA07F6C7F12007BE
:1083D0001EBF20FA07FC46EA0C062037B6FBF4FC69
:1083E000A7EB0507103F07F01F0BCBF120060CFA97
:1083F0000BFB2CFA06F644BFB3460026202FA4BF81
:108400005E464FF0000B5BEA060C08BF4FF0010B15
:1084100019EB0B09ABFB027C48EB0608C01B06FB03
:1084200002CC0BFB03CC71EB0C01C1E70B460246FF
:1084300041464846BDE8F08B13B54FF000004FF0C1
:108440000001AFF30080BDE81C407047032A40F2F2
:10845000308010F0030C00F0158011F8013BBCF1E6
:10846000020F624498BF11F801CB00F8013B38BFFE
:1084700011F8013BA2F1040298BF00F801CB38BF0C
:1084800000F8013B11F0030300F0D480083AC0F07B
:10849000088051F8043B083A51F804CBA0E80810D2
:1084A000F5E7121D5CBF51F8043B40F8043BAFF305
:1084B0000080D20724BF11F8013B11F801CB48BF5F
:1084C00011F8012B24BF00F8013B00F801CB48BF95
:1084D00000F8012B70474FF0000200B51346944698
:1084E0009646203922BFA0E80C50A0E80C50B1F10C
:1084F0002001BFF4F7AF090728BFA0E80C5048BF20
:108500000CC05DF804EB890028BF40F8042B08BFBD
:10851000704748BF20F8022B11F0804F18BF00F8B9
:10852000012B704770477047704700000048704744
:10853000940C0020704770477047704738B5044668
:108540000A4600206946AFF30080002808BF38BD06
:1085500002460099204600F0A7F8012038BD01200E
:1085600000F0BCB8F8B5AFF30080054600200C461B
:10857000102000BF0646A819A0420DD93246694610
:108580000020AFF30080070008BF00F0A7F80098B4
:10859000A04218BF0546C419FFF7C8FF056007468B
:1085A000F01D20F007004619284600F00AF8B442F2
:1085B00008BFF8BDA21B31463868BDE8F84000F09E
:1085C00073B800210160C0E90110704710207047A6
:1085D00070B50446051FFFF7A9FF0068002C14BF03
:1085E000446870BD002C18BFAC423CBF2046646894
:1085F000F8D301680A18AA4218BF456003D12A6857
:1086000005461144016028684119A1421CBF6C60F5
:1086100070BD6168696021680844286070BD10B54C
:1086200000F03EF8006810BD10B5044600F038F8C0
:10863000046010BD10B5203AC0F00B80B1E81850AE
:10864000203AA0E81850B1E81850A0E81850BFF43C
:10865000F5AF5FEA027C24BFB1E81850A0E81850DB
:1086600044BF18C918C0BDE810405FEA827C24BF2F
:1086700051F8043B40F8043B08BF7047D20728BFBD
:1086800031F8023B48BF11F8012B28BF20F8023B0C
:1086900048BF00F8012B7047004870478C0C002041
:1086A000004870478C0C0020034640688C46002828
:1086B00018BF88423CBF03464068F8D31868184486
:1086C000884207D00CF1030020F00700001D411A7A
:1086D000521A0146081D0A60FFF77ABF10B500F074
:1086E00039F8BDE8104000F02FB870477546FFF725
:1086F000D3FFAE4605006946534620F00700854685
:1087000018B020B5FFF7EAFDBDE820404FF00006A5
:108710004FF000074FF000084FF0000B21F0070169
:10872000AC46ACE8C009ACE8C009ACE8C009ACE8AC
:10873000C0098D46704710B50446AFF3008020464F
:10874000BDE81040FFF7B5BD002801D000F02AB801
:108750007047000010B5012805D0002103A000F0EB
:1087600027F8012010BD09A1F8E70000534947523E
:10877000544D454D3A204F7574206F6620686561F1
:1087800070206D656D6F7279000000003A204865B9
:108790006170206D656D6F727920636F7272757094
:1087A0007465640001491820ABBEFEE72600020094
:1087B00070B505460C460A2000E06D1C00F011F86B
:1087C00035B128780028F8D102E0641C00F009F8DF
:1087D00014B120780028F8D1BDE870400A20AFF32A
:1087E000008008B569468DF800000320ABBE08BDC7
:1087F00010B5024800F0D0FA10BD00000C060020B1
:1088000000BFFEE770B502460C46FF25FF2309E0D6
:1088100012F8010B80EA03010648405C80EA050378
:108820000548455C201EA4F10106F4B2F0D143EAEC
:10883000052070BD650100206502002070B504466A
:108840000D46164606FB05F0FFF75AFD206020682E
:1088500008B9002070BD266100206060A060E5605E
:1088600060610120F6E7000010B5024800F013FD3A
:1088700010BD00007806002010B5024800F00BFD86
:1088800010BD0000840A002010B5024800F003FD6E
:1088900010BD00009409002030B50E4D0468AC42B4
:1088A00001D20D4901E00C4920310B460478083C07
:1088B0001425B4FBF5F2446CA40803EB840484642F
:1088C000054C8034C46402F01F050124AC400465EB
:1088D00030BD0000080402400008024001794A1E31
:1088E000064B03EB82024265044A403282654A1E0F
:1088F00002F01F0301229A40C2657047000902403E
:1089000030B5D0E913546C60446D14B1D0E91654FD
:108910006C6090F8444004F01F050124AC40056CE5
:108920006C60046863608468102C04D10468A260E1
:108930000468E16003E00468A1600468E26030BD9F
:10894000704770B504460D46204600F019F808B18E
:10895000002070BD2669D4E9000303FB06013246FE
:108960002846FFF773FD6068401CE16890FBF1F258
:1089700001FB120060606069401E60610120E8E751
:108980000146D1E90102904201D101207047002047
:10899000FCE770B504460D46204600F0E7F908B143
:1089A000002070BD2669A368216803FB06103246CB
:1089B0002946FFF74BFDA068401CE16890FBF1F2EF
:1089C00001FB1200A0606069401C60610120E8E7C3
:1089D00072B600BFFEE7000010B5094800F083FF43
:1089E00000BF084B084A4021054800F0EFFE002870
:1089F000F7D004490448054A1268904710BD0000AA
:108A0000D8060020A0070020540700207003002093
:108A1000014688B260BB0814102829D2DFE800F0B4
:108A2000080A0C0E10121416181A1C1E20222426D6
:108A3000002070470120FCE70220FAE70320F8E756
:108A40000420F6E70520F4E70620F2E70720F0E728
:108A50000820EEE70C20ECE71020EAE71420E8E716
:108A60001820E6E71820E4E73020E2E74020E0E7BE
:108A70000020DEE710B5194901640368D3F880309F
:108A800023F4F814838E44EA03430468C4F8803066
:108A900001F1700343640368D3F8803023F07064FD
:108AA00090F8383044EA03630468C4F8803001F178
:108AB000B003836401F5C473C36401F518730365DF
:108AC00001F51E7343650A4602E000231360121D80
:108AD00001F554739A42F8D310BD000000A4004081
:108AE0002DE9F041054614461E46D1F804C0BCF1FC
:108AF000000F0AD1D1F810C0D1F808804CEA080C58
:108B0000B1F800804CEA88430BE0D1F810C04CF07B
:108B1000804CD1F808804CEA080CD1F800804CEA6F
:108B2000080391F82080D1F81CC04CEA086CD1F8F9
:108B300018804CEA080CD1F814804CEA080CD1F8E3
:108B40000C804CEA080706EBC608D5F854C00CEBBD
:108B5000C8021360121D1760121D002019E000F1F9
:108B6000030C14F80CC04FEA0C6800F1020C14F866
:108B70000CC048EA0C4800F1010C14F80CC048EA9B
:108B80000C2C14F800804CEA080CC2F800C0121D2E
:108B9000001DDFF81880D1F80CC008EB1C4C9CF8C5
:108BA00000C08445DBD8BDE8F0810000AA60010860
:108BB0001B49087F012801D0032816D119490968EB
:108BC00021F40071174A116000BF1146096841F491
:108BD000006111601146096821F40061116000BF55
:108BE0001146096841F400711160022801D0032880
:108BF00011D100BF0B49096841F48051094A116045
:108C00001146096821F48051116000BF11460968BE
:108C100041F4806111600021014A11777047000022
:108C20000C0000200020024000F0010129B106499B
:108C3000496941F00401044A51610349496941F419
:108C40008031014A5161704700200240094A52694F
:108C500022F4FC72C3B242EAC302064B5A611A46BE
:108C6000526942F002025A611A46526942F4803255
:108C70005A6170470020024010B50849496941F027
:108C80000101064C6161026000BF00BF00BFBFF37D
:108C90006F8F00BF00BF00BF436010BD00200240C7
:108CA000F0B50246402314460D460C4E766946F454
:108CB00080260A4F7E6100BFEFF31086304672B601
:108CC00000BF2E682660241D2D1D5E1EF3B2002BF2
:108CD000F7D100BF80F3108800BFF0BD0020024034
:108CE00070B5054601F0DCFA064606E001F0D8FA58
:108CF000801BA84201D9032070BD1A48006900F406
:108D00008030B0F5803FF1D0164800694CF2FA315E
:108D100000EA0104CCB1144840682043124948607D
:108D200000BF04F0404030B10E48806904F040417B
:108D300008430C49886124F0404018B124F04040B9
:108D40000849086100BF0120D6E70648006900F025
:108D5000010020B100BF01200249086100BF0020CE
:108D6000CAE70000002002400C000020014688688D
:108D7000401CCA6890FBF2F302FB13004A68904261
:108D800001D1012070470020FCE770477047704711
:108D900070477047704770472DE9F84F0446002030
:108DA00000902068056820684668C54803F0ACF963
:108DB000074605F00200022811D106F00200022841
:108DC0000DD1E06D00F0100018B9E06D40F40060C6
:108DD000E0652046FFF7D9FF02202168086005F012
:108DE0000400042803D106F00400042807D005F08D
:108DF000080008285FD106F0080008285BD1E06D64
:108E000000F0100018B9E06D40F40070E0652068D3
:108E100003F089F9002848D0AA492068884202D185
:108E20004FF0A04000E020682168884204D01FB1C4
:108E3000052F01D0092F03D12068D0F80C800AE05B
:108E4000A0492068884202D14FF0A04000E020688D
:108E50008346DBF80C8008F40050B0F5005F24D0A6
:108E60002068006800F0080008281ED1206803F080
:108E700055F990B92068406820F00C0021684860DE
:108E8000E06D20F48070E065E06D00F4805060B922
:108E9000E06D40F00100E06507E0E06D40F010009B
:108EA000E065206E40F0010020662046FFF772FF6B
:108EB0000C202168086005F02000202803D106F06E
:108EC0002000202807D005F04000402872D106F08D
:108ED000400040286ED1E06D00F0100018B9E06D40
:108EE00040F40050E0652068C16C01F4C07109B91C
:108EF000012100E000218A4600BF206803F013F939
:108F0000814670492068884202D14FF0A04000E0BD
:108F100020682168884204D01FB1062F01D0072F96
:108F200003D12068D0F80C800AE0664920688842A6
:108F300002D14FF0A04000E020688346DBF80C80AF
:108F4000BAF1000F30D008F0007028B1B9F1000F6D
:108F50002AD008F4005038BB2068006800F04000B8
:108F6000402821D108F40010F0B9206803F0D1F8AE
:108F700090B92068406820F0600021684860E06D8A
:108F800020F48050E065E06D00F4807060B9E06D21
:108F900040F00100E06507E0E06D40F01000E065A2
:108FA000206E40F0010020662046FFF7EFFE6020B3
:108FB0002168086005F0800080280DD106F080004F
:108FC000802809D1E06D40F48030E065204600F053
:108FD0007BF880202168086005F48070B0F5807F00
:108FE0000FD106F48070B0F5807F0AD1E06D40F4B7
:108FF0000030E0652046FFF7CBFE4FF4807021681B
:10900000086005F40070B0F5007F0FD106F4007021
:10901000B0F5007F0AD1E06D40F48020E065204685
:10902000FFF7B7FE4FF400702168086005F01000EC
:1090300010282AD106F01000102826D1E06B10B9B4
:109040000120009010E047B100BF1D48806800F487
:10905000604048B10120009006E02068C06800F040
:10906000010008B101200090009801280AD1E06DAC
:1090700040F48060E065206E40F0020020662046EB
:10908000FFF789FE10202168086005F48060B0F5C4
:10909000806F13D106F48060B0F5806F0ED1E06D63
:1090A00040F48040E065206E40F0080020664FF4F8
:1090B0008060216808602046FFF769FEBDE8F88FF0
:1090C000000300500001005070470146002091F855
:1090D0002520022A03D00422CA63012027E00A685F
:1090E000126822F00E020B681A608A6C126822F471
:1090F00080728B6C1A600A68126822F001020B6899
:109100001A6091F8442002F01F0301229A400B6C70
:109110005A60D1E913325A604A6D42B14A6D126801
:1091200022F480724B6D1A60D1E916325A60012226
:1091300081F8252000BF002281F8242000BF70475D
:1091400070B50446002594F8250002280BD00420B1
:10915000E063012084F8250000BF002084F824008B
:1091600000BF012534E02068006820F00E0021686F
:1091700008602068006820F0010021680860A06C89
:10918000006820F48070A16C086094F8440000F03E
:109190001F0101208840216C4860D4E91310486009
:1091A000606D40B1606D006820F48070616D086092
:1091B000D4E916104860012084F8250000BF002083
:1091C00084F8240000BFA06B10B12046A16B884733
:1091D000284670BD10B504460CB9012010BD2068AA
:1091E000006820F001002168086027492068884253
:1091F0000BD226492068401A1421B0FBF1F0800000
:1092000060642248083820640AE01F492068401A38
:109210001421B0FBF1F0800060641B480838206422
:1092200000202168086094F8440000F01F0101202C
:109230008840216C48602046FFF72EFB0020A16C7F
:109240000860D4E913104860606858B16068042869
:1092500008D82046FFF742FB0020616D0860D4E982
:109260001610486000206065A065E065E06220633C
:109270006063A063E06384F8250000BF84F82400E5
:1092800000BF00BFAAE70000080402400800024037
:109290000146C86B704770B50446206C05682068AD
:1092A000066894F8440000F01F010420884028401C
:1092B000E0B106F00400C8B12068006800F02000AA
:1092C00028B92068006820F004002168086094F83C
:1092D000440000F01F0104208840216C4860206B8E
:1092E000002856D02046216B884752E094F844006D
:1092F00000F01F0102208840284018B306F0020049
:1093000000B32068006800F0200040B920680068C1
:1093100020F00A0021680860012084F8250094F8F4
:10932000440000F01F0102208840216C486000BF0B
:10933000002084F8240000BFE06A50B32046E16AB0
:10934000884726E094F8440000F01F010820884078
:109350002840F0B106F00800D8B12068006820F07D
:109360000E002168086094F8440000F01F010120FD
:109370008840216C48600120E06384F8250000BF2C
:10938000002084F8240000BF606B10B12046616BA0
:10939000884770BD70B504460CB9012070BD2F49D7
:1093A000206888420BD22E492068401A1421B0FB55
:1093B000F1F0800060642A48083820640AE02749F8
:1093C0002068401A1421B0FBF1F08000606423484B
:1093D00008382064022084F825002068056847F6D4
:1093E000F0708543D4E902010843216908436169AB
:1093F0000843A1690843E1690843216A084305431A
:10940000206805602046FFF747FAA068B0F5804F56
:1094100001D1002060602079A16C0860D4E91310AC
:109420004860606860B16068042809D82046FFF78A
:1094300055FA0020616D0860D4E91610486003E019
:1094400000206065A065E0650020E063012084F8ED
:109450002500002084F8240000BF9FE70804024094
:10946000080002402DE9F04104460D4616461F460D
:109470004FF0000800BF94F82400012802D1022018
:10948000BDE8F081012084F8240000BF94F8250095
:1094900001283FD1022084F825000020E0632068E5
:1094A000006820F00100216808603B4632462946EA
:1094B0002046FFF725FA206B30B12068006840F0A5
:1094C0000E00216808600BE02068006820F00400AE
:1094D000216808602068006840F00A002168086080
:1094E000A06C006800F4803028B1A06C006840F4E3
:1094F0008070A16C0860606D28B1606D006840F4F8
:109500008070616D08602068006840F0010021688B
:10951000086006E000BF002084F8240000BF4FF080
:1095200002084046ACE7000070B5044600F0B8FE03
:1095300006462546681C10B104480068054400BF73
:1095400000F0AEFE801BA842FAD370BD08000020D8
:1095500070B50346144693F85C5001F4C07000B136
:1095600000BF012D01D0022D7DD11868826D01F060
:10957000070010B102F0010018B301F0380010B17B
:1095800002F00200E8B101F4E07010B102F0040052
:10959000B8B101F4F05010B102F0080088B101F444
:1095A000604010B102F0100058B101F4403010B129
:1095B00002F0200028B101F47C0040B102F040002C
:1095C00028B91868C06D40F001001E68F06501F010
:1095D000070010B102F0010018BB01F0380010B113
:1095E00002F00200E8B901F4E07010B102F00400EA
:1095F000B8B901F4F05010B102F0080088B901F4D4
:10960000604010B102F0100058B901F4403010B1C0
:1096100002F0200028B901F47C0040B102F04000C3
:1096200028B11868C06D40F002001E68F06501F0B6
:10963000800030B11868D0F8DC0020431E68C6F8FE
:10964000DC0001F4807030B11868D0F8E0002043ED
:109650001E68C6F8E0001868406D08431E68706513
:10966000002070BDFFE7186E40F002001866012070
:10967000F7E72DE9F04104460E461746706800B939
:1096800000E000BF94F85C00022821D12068D0F8E7
:10969000C40000F4001030B1206E40F40070206669
:1096A0000120BDE8F0812068D0F8C400C0F3014576
:1096B0002B463A4631462046FFF712FA0120A840D1
:1096C0002168C1F8CC000120A840A0650020E8E78F
:1096D000206E40F0080020660120E2E7F0B5024667
:1096E00092F85C60012E01D0022E23D1086880B967
:1096F000087A80070F7B40EAC7600F8A40EA07407C
:109700004F6940EA0704176C486807EB80031C6048
:109710000EE00F7B086940EA47740F7A486940EA17
:109720008775576C486807EBC0031C601B1D1D60E4
:109730000020F0BD106E40F0020010660120F8E736
:1097400070B50446049D94F85C00012810D108010E
:1097500040EA820040EA430028432668D6F8806049
:1097600026F03F0630432668C6F88000002070BD12
:10977000206E40F0040020660120F8E710B5034693
:1097800093F85C00012805D142EA01201C68A0641E
:10979000002010BD186E40F0040018660120F8E7A4
:1097A000014691F85C00012807D10868C06840F4C0
:1097B00000000A68D06000207047086E40F0040086
:1097C00008660120F8E77047704700002DE9F04374
:1097D00004460E469C4694F85C80B8F1020F79D19D
:1097E000402E17D12068D0F8900000F00F0030B95B
:1097F000206E40F4807020660120BDE8F083206870
:10980000D0F89000C0F3012303EBC309A06C00EB78
:10981000C90115E02068D0F8980000F00F0028B9C1
:10982000206E40F4807020660120E6E72068D0F8C2
:109830009800C0F3012303EBC309E06C00EBC901FE
:10984000086800F080405060506820B90868C0F394
:109850008A40106003E0086820F0604010600868EB
:1098600000F000509060086800F000401061091D91
:10987000088880B2D061086800F47020D060086861
:1098800000F480105061086800F4001090610868CE
:10989000C0F3066010620868C00F5062091D0F46D1
:1098A000002503E0785D0CF805006D1CDFF83090B2
:1098B000D06809EB10400078A842F3D8402E04D1BC
:1098C0002068C0F8943003E004E02068C0F89C30C1
:1098D000002092E7206E40F00800206601208CE70F
:1098E000AA60010870472DE9F05F04462068006D0A
:1098F00000F4E0552068406D05402068006D00F0E0
:1099000007062068406D06402068006D00F03807AB
:109910002068406D07402068006D00F471082068E1
:10992000406D00EA08082068006D00F46029206896
:10993000406D00EA09092068006D00F0400050B158
:109940002068406D00F0400028B140202168086583
:109950002046FFF7C7FF2068006D00F48070A0B1BB
:109960002068406D00F4807078B12068D0F8D8B0DD
:109970002068D0F8E00000EA0B0B4FF480702168FB
:1099800008655946204600F008FA2DB120680565A3
:109990002946204600F003FA2EB1206806653146BC
:1099A000204600F0DFF92FB12068076539462046D0
:1099B00000F0D9F92068006D00F4007058B12068FB
:1099C000406D00F4007030B14FF4007021680865FC
:1099D000204600F0E5F92068006D00F0800098B1A5
:1099E0002068406D00F0800070B12068D0F8D4A0ED
:1099F0002068D0F8DC0000EA0A0A802021680865A7
:109A00005146204600F0CAF92068006D00F400506D
:109A100058B12068406D00F4005030B14FF4005050
:109A200021680865204600F0B7F92068006D00F451
:109A3000004058B12068406D00F4004030B14FF450
:109A4000004021680865204600F0A5F92068006DF7
:109A500000F4804060B12068406D00F4804038B16F
:109A60004FF4804021680865206E40F08000206639
:109A7000B9F1000F06D02068C0F850904946204642
:109A8000FFF7A2FEB8F1000F06D02068C0F85080A2
:109A9000206E40EA08002066206E10B12046FFF7D5
:109AA00092FEBDE8F09F000070B504460CB901209D
:109AB00070BD81492068884200D100BFA068B0F520
:109AC000407F00D100BF94F85C0028B9002084F8E2
:109AD0005D00204600F0F4F82068806920F0100056
:109AE0002168886100F0DCFB05460DE000F0D8FB42
:109AF000401B0A2808D9206E40F001002066032090
:109B000084F85C000120D3E72068806900F0080039
:109B10000828EBD02068806940F001002168886146
:109B200000F0BEFB05460DE000F0BAFB401B0A2822
:109B300008D9206E40F001002066032084F85C0004
:109B40000120B5E72068806900F001000028EBD013
:109B50002068806940F002002168886156492068C9
:109B6000884202D1554960680860207C012806D1EE
:109B70002068806920F040002168886105E0206845
:109B8000806940F0400021688861607C012806D12E
:109B90002068806940F480402168886105E0206881
:109BA000806920F4804021688861A07C012806D16A
:109BB0002068806920F480502168886105E0206871
:109BC000806940F48050216888612068806920F4B1
:109BD0004070A1680843216888612068806920F08E
:109BE000A400216888612068006920F010002168C5
:109BF0000861E068012806D12068806940F004000F
:109C00002168886120E0E068F0B1E068022815D0A2
:109C10002068806940F080002168886120680069C0
:109C200040F0100021680861E06803280CD120682A
:109C3000806940F020002168886105E02068806923
:109C400040F0200021688861207E401E4106E069C6
:109C5000401E41EA0020216A491E0843A18A491E8C
:109C600040EA01402168C861A068B0F5407F0FD18B
:109C7000A06A401EE16A491E40EA0121206B401E95
:109C800041EA0011A08C401E41EA00402168C860F2
:109C90002068D0F8C000E16B08432168C1F8C0001B
:109CA0002046FEF7E7FE0020A0652066012084F82C
:109CB0005C000020FCE600000064004000650040FD
:109CC00010B598B00446142113A8FEF704FC4421F3
:109CD00002A8FEF700FC2049206888423AD180148F
:109CE000029040030E9002A800F0A8FC08B1FEF715
:109CF0006FFE00BF1948806D40F0007017498865FD
:109D00000846806D00F00070019000BF00BF00BFEA
:109D10000846C06C40F00200C8640846C06C00F001
:109D20000200019000BF00BF4FF44070139002206A
:109D300014900020159016900920179013A9084838
:109D400000F0BAF900221146152000F08FFB152013
:109D500000F078FB18B010BD006400400010024015
:109D60000004004870477047014691F85C000128E4
:109D70000BD1022081F85C000868806920F00100A6
:109D80000A689061002008667047086E40F0040081
:109D900008660120F8E770477047704770477047C2
:109DA000704700002DE9F04104460F4600BF3B48D4
:109DB0000078012802D10220BDE8F0810120374956
:109DC000087000BF4FF47A70FEF78AFF0646002E37
:109DD0005DD1324948603248006800F4007090B1AB
:109DE0002F48006800F4806048B12D48006820F4D6
:109DF00080602B49086003202849087715E001207E
:109E00002649087711E02648006800F4806048B1D0
:109E10002348006820F480602149086002201F491F
:109E2000087702E000201D490877206801280ED13C
:109E30006068FEF7F9FE4FF47A70FEF751FF0646B0
:109E40001748406920F00400154948611DE04FF0B3
:109E5000FF303860A56812E028466168FEF7F6FE1C
:109E60004FF47A70FEF73CFF06460D48406920F437
:109E7000FD700B4948610EB13D6005E06D1CD4E9F1
:109E800002010844A842E7D800BFFEF791FE00BFD8
:109E900000200249087000BF30468DE70C0000200A
:109EA0000020024001200649496941F00041044A6E
:109EB00051611146496901F0004101B1002070472C
:109EC000002002402DE9F0470446884615461E460C
:109ED0004FF0000900BF1F480078012802D102207E
:109EE000BDE8F08701201B49087000BF4FF47A706D
:109EF000FEF7F6FE07462FBB0020164948603CB926
:109F00002A4633464046FEF7B7FE4FF001090BE004
:109F1000012C01D0022C07D129464046FEF7C0FE95
:109F2000022C01D14FF480294FF47A70FEF7D8FE4D
:109F30000746B9F1000F05D00748406920EA09003B
:109F40000549486100BF00200249087000BF38463B
:109F5000C6E700000C000020002002400020084955
:109F6000496901F0004151B10649054A916006492D
:109F700091601146496901F0004101B1012070472B
:109F80000020024023016745AB89EFCDF0B50B46B9
:109F900000217DE001258D4005EA0302002A76D0EC
:109FA0003E4D8E0855F826408D072E0F0F25B540E3
:109FB0002C40B0F1904F01D1002519E0384DA84256
:109FC00001D1012514E0374DA84201D102250FE04F
:109FD000354DA84201D103250AE0344DA84201D1F4
:109FE000042505E0324DA84201D1052500E00625F3
:109FF0008E07360FB540A54223D12E4D2D689543CF
:10A000002C4E3560351D2D689543361D3560294D24
:10A010000C352D689543274E0C363560351F2D685D
:10A020009543361F35608D072E0F0F2505FA06F470
:10A030001A4D8E0855F82650A543184E8F0846F83D
:10A04000275005684F000326BE4035430560CE0803
:10A0500000F1200555F826504E07F70E0F26BE409A
:10A06000B543CF0800F1200646F82750C5684F00D9
:10A070000326BE40B543C560456801268E40B54302
:10A08000456085684F000326BE40B5438560491C86
:10A0900023FA01F5002D7FF47DAFF0BD08000140EB
:10A0A0000004004800080048000C00480010004868
:10A0B000001400480004014078B502460B46002118
:10A0C000CAE001268E401D6805EA0604002C73D004
:10A0D0001D7905F00305012D04D01D7905F0030558
:10A0E000022D13D190684E000325B540A8434E00C1
:10A0F000DD68B54028439060506801258D40A84335
:10A100001D79C5F300158D40284350601D7905F079
:10A110000305032D09D0D0684E000325B540A843A0
:10A120004E009D68B5402843D0601D7905F00305B9
:10A13000022D13D1CE0802F1200555F826004D0757
:10A14000EE0E0F25B540A8434E07F60E1D69B5402B
:10A150002843CE0802F1200545F8260010684E007D
:10A160000325B540A8431D7905F003054E00B54011
:10A17000284310605D6805F44035002D6BD000BFAA
:10A18000384D2D6E45F00105364E356635462D6E3F
:10A1900005F00105009500BF00BF4FEAB6358E08F7
:10A1A00055F826008D072E0F0F25B540A843B2F1B4
:10A1B000904F02D100251AE04DE02B4DAA4201D16B
:10A1C000012514E0294DAA4201D102250FE0284DB6
:10A1D000AA4201D103250AE0264DAA4201D1042555
:10A1E00005E0254DAA4201D1052500E006258E0790
:10A1F000360FB5402843214D8E0845F82600204DE6
:10A200002868A0435D6805F4801505B120431C4D06
:10A2100028602D1D2868A0435D6805F4001505B170
:10A220002043174D2D1D2860154D2D1F2868A04374
:10A230005D6805F4003505B12043114D2D1F2860E0
:10A240002D1F2868A0435D6805F4803505B12043C3
:10A250000B4D083D2860491C1D68CD40002D7FF442
:10A2600030AF78BD001002400004004800080048EC
:10A27000000C00480010004800140048080001408D
:10A2800008040140024613690B400BB1012000E0B5
:10A29000002070470AB1816100E0816270470000D0
:10A2A00001480068704700000000002070B50446B7
:10A2B0000CB9012070BD4CF6CC402168086045F215
:10A2C000555021680860D4E9001048602168A068F2
:10A2D0008860FFF7E5FF05460BE0FFF7E1FF401B55
:10A2E000312806D92068C06800F0070008B10320B3
:10A2F000E0E72068C06800F007000028EDD1206882
:10A300000169E068814203D02168E068086103E0E8
:10A310004AF6AA20216808600020CBE701464AF6E9
:10A32000AA200A68106000207047000003480068F7
:10A33000034909680844014908607047000000208B
:10A340000800002010B50024032000F0CDF80F20F5
:10A3500000F008F808B1012401E000F02FF82046D1
:10A3600010BD000070B50446002511480068D8B142
:10A370000F4800684FF47A71B1FBF0F00D4909689D
:10A38000B1FBF0F6304600F04DFF58B9102C07D263
:10A3900000222146501E00F069F80748046004E0DE
:10A3A000012502E0012500E00125284670BD0000DE
:10A3B000080000202C0000200400002008B500BF89
:10A3C0000E48006E40F001000C4908660846006E19
:10A3D00000F00100009000BF00BF00BF0846806D84
:10A3E00040F0805088650846806D00F080500090F5
:10A3F00000BF00BF00F018F908BD000000100240C7
:10A4000010B501460846002817DB00F01F030122A3
:10A410009A400B4B440943F8242000BF00BF00BF03
:10A42000BFF34F8F00BF00BF00BF00BF00BF00BF22
:10A43000BFF36F8F00BF00BF00BF00BF10BD0000A3
:10A4400080E100E00146084600280DDB00BF00BFA8
:10A4500000F01F0301229A4043099B0003F1E0230F
:10A46000C3F8002100BF00BF00BF70472DE9F05FB7
:10A4700080460D46164602F0B7FC074639462A4686
:10A48000334601F00700C0F1070ABAF1040F02D900
:10A490004FF0040A01E0C0F1070AD14600F1040AB6
:10A4A000BAF1070F02D24FF0000A01E0A0F1030A4F
:10A4B000D4464FF0010A0AFA09FAAAF1010A0AEA97
:10A4C000020A0AFA0CFA4FF0010B0BFA0CFBABF183
:10A4D000010B0BEA030B4AEA0B042146404602F04B
:10A4E0008BFCBDE8F09F000000BF00F00702064BA8
:10A4F00019684FF6FF031940044B0B4343EA02214E
:10A50000014B196000BF70470CED00E00000FA0538
:10A5100002468ABB4148006800F4C060B0F5806F15
:10A520002BD13E488030006820F480703B4BC3F84C
:10A5300080001846006820F4C06040F40070186085
:10A540003748006832235843364BB0FBF3F0411CC8
:10A5500000E0491E3148406900F48060B0F5806F2A
:10A5600001D10029F5D12D48406900F48060B0F593
:10A57000806F51D10320704708E028488030006880
:10A5800020F48070254BC3F8800045E0B2F5007FD1
:10A590003AD12248006800F4C060B0F5806F2AD13B
:10A5A0001E488030006840F480701C4BC3F8800067
:10A5B0001846006820F4C06040F400701860184825
:10A5C000006832235843174BB0FBF3F0411C00E006
:10A5D000491E1248406900F48060B0F5806F01D1D7
:10A5E0000029F5D10D48406900F48060B0F5806F16
:10A5F00012D10320BFE709488030006840F4807022
:10A60000064BC3F8800007E00448006820F4C060EF
:10A6100040F48060014B18600020ACE700700040FF
:10A620002C00002040420F000348806840F4804026
:10A630000149886070470000007000402DE9F84330
:10A6400004460027B846206800F40020B0F5002F2B
:10A6500073D1B946D348806D00F0805078B900BFFF
:10A66000D048806D40F08050CE4988650846806DA6
:10A6700000F08050009000BF00BF4FF00109CA48B1
:10A68000006840F48070C8490860FFF709FE06467C
:10A6900006E0FFF705FE801B022801D9032705E02D
:10A6A000C148006800F480700028F2D000BF002F7D
:10A6B00046D1BC489030006800F44075CDB1206CA4
:10A6C000A84216D0B7489030006820F44075B548CD
:10A6D000D0F8900040F48030B249C1F890000846AC
:10A6E000D0F8900020F48030C1F890000846C0F8FF
:10A6F000905005F00100A0B1FFF7D2FD064608E03A
:10A70000FFF7CEFD801B41F28831884201D9032733
:10A7100006E0A4489030006800F002000028EFD066
:10A7200000BF5FB99F489030006820F44070216CF2
:10A7300008439C49C1F8900003E00CE0B84600E0F3
:10A74000B846B9F1010F05D19648806D20F08050D0
:10A750009449886500BF207800F0010048B1914815
:10A760008830006820F00300616808438D49C1F813
:10A770008800207800F00200022809D1894888303A
:10A78000006820F00C00A16808438649C1F88800E1
:10A79000207800F00400042809D18248883000683D
:10A7A00020F03000E16808437E49C1F88800207835
:10A7B00000F00800082809D17A488830006820F0A5
:10A7C000C000216908437749C1F88800207800F06B
:10A7D0002000202809D173488830006820F44060A8
:10A7E000616908436F49C1F88800207800F0400093
:10A7F000402809D16B488830006820F44050A16996
:10A8000008436849C1F88800207800F0800080285B
:10A8100009D164488830006820F44040E169084369
:10A820006049C1F88800208800F48070B0F5807F0E
:10A8300009D15C488830006820F44030216A084320
:10A840005849C1F88800208800F40070B0F5007FF6
:10A8500009D154488830006820F44020616A0843D8
:10A860005049C1F88800208800F48060B0F5806FFE
:10A8700013D14C488830006820F44010A16A084386
:10A88000484988310860A06AB0F5801F05D1454865
:10A89000C06840F480104349C860208800F400601C
:10A8A000B0F5006F13D13F488830006820F44000B5
:10A8B000E16A08433B4988310860E06AB0F5800FDF
:10A8C00005D13848C06840F480103649C8602088F7
:10A8D00000F48050B0F5805F13D1324888300068B2
:10A8E00020F04070216B08432E4988310860206BAE
:10A8F000B0F1807F05D12B48C06840F48010294911
:10A90000C860208800F40050B0F5005F13D12548DE
:10A910008830006820F04060616B0843214988312D
:10A920000860606BB0F1006F05D11E48C06840F44C
:10A9300080101C49C860208800F48040B0F5804F2A
:10A9400013D118488830006820F04060A16B08439C
:10A95000144988310860A06BB0F1006F05D111482F
:10A96000C06840F480100F49C860208800F400409F
:10A97000B0F5004F13D10B488830006820F04050EC
:10A98000E16B0843074988310860E06BB0F1805FF4
:10A9900005D10448C06840F480300249C860404690
:10A9A000BDE8F88300100240007000402DE9F0413E
:10A9B00004460D464FF0000814B90120BDE8F081AF
:10A9C0007D48006800F00F00A8420ED27A48006867
:10A9D00020F00F002843784908600846006800F01E
:10A9E0000F00A84201D00120E8E7207800F0010024
:10A9F000002864D06068032823D17048006800F004
:10AA0000007008B90120D9E701F09CFB06466C48AC
:10AA1000864237D96948806800F0F00030B120786C
:10AA200000F0020002282DD1A06858BB634880685E
:10AA300020F0F00040F08000604988604FF080080E
:10AA400020E06068022806D15C48006800F400300D
:10AA500040B90120B2E75948006800F4806008B9A5
:10AA60000120ABE700F0DEF806465548864209D9DA
:10AA70005248806820F0F00040F080004F49886024
:10AA80004FF080084D48806820F00300616808435B
:10AA90004A498860FFF704FC074608E0FFF700FC1E
:10AAA000C01B41F28831884201D9032086E7434820
:10AAB000806800F00C006168B0EB810FEED1207867
:10AAC00000F00200022820D1207800F004000428C1
:10AAD00005D13A48806840F4E060384988602078C1
:10AAE00000F00800082807D13448806820F460503E
:10AAF00040F4E060314988603048806820F0F00020
:10AB0000A16808432D49886008E0B8F1800F05D19D
:10AB10002A48806820F0F0002849886026480068AC
:10AB200000F00F00A84219D92348006820F00F0058
:10AB3000284321490860FFF7B3FB074608E0FFF709
:10AB4000AFFBC01B41F28831884201D9032035E7B1
:10AB50001948006800F00F00A842F0D1207800F0FA
:10AB60000400042807D11548806820F4E060E168FB
:10AB7000084312498860207800F00800082808D1AE
:10AB80000E48806820F46050216940EAC1000B49FA
:10AB9000886000F047F809498968C1F30311094A40
:10ABA000515C01F01F01C840074908600748006870
:10ABB000FFF7D8FB02E7000000200240001002402F
:10ABC00000B4C404D26001082C000020040000205E
:10ABD00001480068704700002C00002000B5FFF716
:10ABE000F7FF05498968C1F30221044A515C01F06D
:10ABF0001F01C84000BD000000100240E2600108D3
:10AC000000B5FFF7E5FF05498968C1F3C221044A91
:10AC1000515C01F01F01C84000BD0000001002405F
:10AC2000E260010870B5224DAD6805F00C05042DF9
:10AC300001D120483AE01E4DAD6805F00C05082D05
:10AC400001D11D4832E01A4DAD6805F00C050C2D00
:10AC50002BD1174DED6805F00304154DED68C5F3D4
:10AC600003156A1C022C0CD0032C09D1124DB5FB24
:10AC7000F2F50F4EF668C6F3062605FB06F10AE06C
:10AC800000BF0C4DB5FBF2F5094EF668C6F306267B
:10AC900005FB06F100BF00BF054DED68C5F341653A
:10ACA0006D1C6B00B1FBF3F000E0002070BD0000F4
:10ACB000001002400024F40000127A002DE9F8434D
:10ACC000044614B90120BDE8F883207800F00100A3
:10ACD000002865D0FC48806800F00C07FA48C0687E
:10ACE00000F003060C2F01D1032E01D0082F0AD14A
:10ACF000F548006800F40030002851D06068002852
:10AD00004ED10120DFE700BF6068B0F5803F06D17B
:10AD1000ED48006840F48030EB4908601AE0606854
:10AD2000B0F5A02F0BD1E848006840F48020E64938
:10AD300008600846006840F4803008600AE0E24895
:10AD4000006820F48030E04908600846006820F47C
:10AD50008020086000BF606888B1FFF7A1FA05464F
:10AD600006E0FFF79DFA401B642801D90320AAE7FB
:10AD7000D548006800F400300028F2D010E0FFF75A
:10AD80008FFA054606E0FFF78BFA401B642801D9CD
:10AD9000032098E7CC48006800F400300028F2D186
:10ADA000207800F00200022860D1C748806800F0D7
:10ADB0000C07C548C06800F003060C2F01D1022E15
:10ADC00001D0042F18D1C048006800F4806018B189
:10ADD000E06808B9012076E7BB48406820F0FE40F3
:10ADE000217C40EA0160B8494860B8480068FFF734
:10ADF000B9FA18B3012066E7E06800B3B24800680A
:10AE000040F48070B0490860FFF74AFA054606E052
:10AE1000FFF746FA401B022801D9032053E7AA484E
:10AE2000006800F480600028F2D0A748406820F055
:10AE3000FE40217C40EA0160A349486016E0A24838
:10AE4000006820F48070A0490860FFF729FA0546E1
:10AE500006E0FFF725FA401B022801D9032032E75C
:10AE60009948006800F480600028F2D1207800F052
:10AE70000800082836D16069D0B193489430006842
:10AE800040F001009049C1F89400FFF709FA054627
:10AE900006E0FFF705FA401B022801D9032012E75C
:10AEA00089489430006800F002000028F1D019E0D1
:10AEB00085489430006820F001008349C1F894006F
:10AEC000FFF7EEF9054606E0FFF7EAF9401B022816
:10AED00001D90320F7E67C489430006800F00200B6
:10AEE0000028F1D1207800F00400042872D14FF03E
:10AEF00000087548806D012121EA107078B100BF0B
:10AF00007148806D40F080506F4988650846806DBB
:10AF100000F08050009000BF00BF4FF001086C4867
:10AF2000006800F48070B0B96948006840F480702F
:10AF300067490860FFF7B4F9054606E0FFF7B0F986
:10AF4000401B022801D90320BDE66148006800F4D7
:10AF500080700028F2D000BFA068012808D15A48AC
:10AF60009030006840F001005749C1F8900021E09E
:10AF7000A06805280FD154489030006840F00400C4
:10AF80005149C1F890000846D0F8900040F0010007
:10AF9000C1F890000EE04C489030006820F00100AD
:10AFA0004949C1F890000846D0F8900020F004000C
:10AFB000C1F8900000BFA068A8B1FFF771F905467D
:10AFC00009E0FFF76DF9401B41F28831884202D950
:10AFD000032078E625E03C489030006800F002004D
:10AFE0000028EED013E0FFF75BF9054608E0FFF715
:10AFF00057F9401B41F28831884201D9032062E6AB
:10B0000031489030006800F002000028EFD1B8F11C
:10B01000010F05D12C48806D20F080502A498865A9
:10B0200000BF207800F02000202836D1A069D0B1E0
:10B0300025489830006840F001002349C1F8980085
:10B04000FFF72EF9054606E0FFF72AF9401B022814
:10B0500001D9032037E61C489830006800F0020050
:10B060000028F1D019E018489830006820F001005D
:10B070001549C1F89800FFF713F9054606E0FFF7F8
:10B080000FF9401B022801D903201CE60E48983016
:10B09000006800F002000028F1D1E069002860D0CB
:10B0A0000948806800F00C000C287FD0E069022875
:10B0B00058D10548006820F0807003490860FFF708
:10B0C000EFF805460DE000000010024004000020EB
:10B0D00000700040FFF7E4F8401B022801D903206C
:10B0E000F1E54D48006800F000700028F2D1D4E985
:10B0F0000810401E41EA0011A06A41EA0021208E9A
:10B100000122C2EB500041EA40513420005DC2EB05
:10B11000500041EA40612C20005D41EAC0603E4998
:10B12000C9683E4A114008433B49C8600846006868
:10B1300040F0807008600846C06840F08070C860C9
:10B14000FFF7AEF8054606E0FFF7AAF8401B022815
:10B1500001D90320B7E53048006800F000700028EE
:10B16000F2D056E02C48006820F080702A49086030
:10B170000846C06820F00300C8600846C068284937
:10B1800008402549C860FFF78BF8054607E00DE049
:10B19000FFF786F8401B022801D9032093E51E48DB
:10B1A000006800F000700028F2D132E0E069012868
:10B1B00000D188E51848C66806F00301206A81427C
:10B1C00025D106F0F001606A401EB1EB001F1ED1D0
:10B1D00006F4FE41A06AB1EB002F18D106F07841C9
:10B1E0002C20005DB1EBC06F11D106F4C001208EA0
:10B1F0000122C2EB5000B1EB405F08D106F0C06104
:10B200003420005DC2EB5000B1EB406F01D0012053
:10B2100059E5002057E50000001002400C809F0116
:10B22000FFFFEEFE70B504462546681EB0F1807F34
:10B2300001D301200FE0681E4FF0E02148610F218B
:10B240004FF0FF3001F0D8FD00204FF0E021886181
:10B2500007200861002070BD704770477047704735
:10B260007047704730B502460B4600BF92F83C006D
:10B27000012801D1022030BD012082F83C0000BF2E
:10B28000022082F83D0010684168106884681D4DF6
:10B290001068A84203D01C4D1068A84203D121F4C5
:10B2A000700158680143194801401868014310684B
:10B2B0004160144D1068A84213D01068B0F1804F5F
:10B2C0000FD0134D1068A8420BD0124D1068A84241
:10B2D00007D00D4D1068A84203D00F4D1068A8424A
:10B2E00005D124F08004986804431068846001202C
:10B2F00082F83D0000BF002082F83C0000BF00BF84
:10B30000B9E70000002C0140003401408FFFFFFD31
:10B31000000400400008004000400140704710B5A4
:10B3200004460CB9012010BD94F83D0028B9002056
:10B3300084F83C00204600F029F8022084F83D0003
:10B34000211D206800F0B0FF012084F8480000BFF4
:10B3500084F83E0001213F20015540200155412045
:10B360000155422001554320015500BF00BF012077
:10B3700084F84400452001554620015547200155D9
:10B3800000BF012084F83D000020CCE738B504461A
:10B390002068B0F1804F15D100BF0B48806D40F0A0
:10B3A0000100094988650846806D00F001000090A1
:10B3B00000BF00BF002211461C20FFF757F81C20D9
:10B3C000FFF740F838BD000000100240014691F838
:10B3D0003D00012801D001207047022081F83D0086
:10B3E0000868C06840F001000B68D860184B086816
:10B3F000984213D00868B0F1804F0FD0154B086801
:10B4000098420BD0144B0868984207D0134B086839
:10B41000984203D0124B0868984210D1086880689F
:10B42000104B00EA0302062A0FD0B2F5803F0CD081
:10B430000868006840F001000B68186005E00868C3
:10B44000006840F001000B6818600020C4E70000AD
:10B45000002C01400004004000080040003401407E
:10B4600000400140070001002DE9F04104460D466F
:10B47000002700BF94F83C00012802D10220BDE85B
:10B48000F081012084F83C0000BF022084F83D00D8
:10B49000206886683F48064026F47F46206886601C
:10B4A0002868702824D00CDC00F00F01002964D13A
:10B4B0000011072861D2DFE800F053545556493592
:10B4C0003F00354A811A90424FD009DCB0F5805FC9
:10B4D0000DD0B0F5005F18D0B0F1101F4DD143E092
:10B4E000102943D0202942D0502946D140E046E0DF
:10B4F000D5E902136A68206800F034FF2068866886
:10B5000046F077062068866039E0D5E902136A685C
:10B51000206800F027FF2068806840F480402168A0
:10B5200088602CE0EA686968206800F033FF5021E9
:10B53000206800F023FF22E0EA686968206800F0D4
:10B540003CFF6021206800F019FF18E0EA68696894
:10B55000206800F01FFF4021206800F00FFF0EE080
:10B5600000BF00BF00BF00BF00BF00BF00BF00BFE3
:10B570002968206800F002FF01E0012700BF00BF3A
:10B58000012084F83D0000BF002084F83C0000BF8B
:10B59000384674E788FFCEFF20001000704710B5D2
:10B5A000044620680069C0F34000D8B12068C06834
:10B5B000C0F34000B0B16FF00200216808610120C3
:10B5C00020772068806900F0030018B12046FFF75B
:10B5D000E5FF05E0204600F002F9204600F000F902
:10B5E0000020207720680069C0F38000D8B120686F
:10B5F000C068C0F38000B0B16FF00400216808613A
:10B60000022020772068806900F4407018B120463D
:10B61000FFF7C4FF05E0204600F0E1F8204600F007
:10B62000DFF80020207720680069C0F3C000D8B19F
:10B630002068C068C0F3C000B0B16FF00800216896
:10B640000861042020772068C06900F0030018B169
:10B650002046FFF7A3FF05E0204600F0C0F8204693
:10B6600000F0BEF80020207720680069C0F30010C9
:10B67000D8B12068C068C0F30010B0B16FF01000FE
:10B6800021680861082020772068C06900F44070B4
:10B6900018B12046FFF782FF05E0204600F09FF832
:10B6A000204600F09DF8002020772068006900F017
:10B6B000010058B12068C06800F0010030B16FF09F
:10B6C000010021680861204600F08BF820680069BD
:10B6D000C0F3C01058B12068C068C0F3C01030B1CA
:10B6E0006FF08000216808612046FFF7B6FD2068F2
:10B6F0000069C0F3002058B12068C068C0F3C010D2
:10B7000030B16FF48070216808612046FFF7A4FD16
:10B7100020680069C0F3801058B12068C068C0F389
:10B72000801030B16FF0400021680861204600F0C1
:10B7300059F820680069C0F3401058B12068C0680B
:10B74000C0F3401030B16FF020002168086120463E
:10B75000FFF784FD20680069C0F3005058B12068ED
:10B76000C068C0F3005030B16FF4801021680861E8
:10B770002046FFF775FD20680069C0F3405058B1BE
:10B780002068C068C0F3405030B16FF400102168E9
:10B7900008612046FFF763FD20680069C0F3805010
:10B7A00058B12068C068C0F3805030B16FF4800099
:10B7B000216808612046FFF754FD20680069C0F346
:10B7C000C05058B12068C068C0F3C05030B16FF4A9
:10B7D0000000216808612046FFF7A0FD10BD7047FA
:10B7E000704770477047704770477047704770B533
:10B7F0000446D4F88450D4F888602068806800F04B
:10B800008000802823D1212D21D100BF00BF2168D5
:10B81000083151E8001F21F080002168083141E81B
:10B820000002002AF3D100BFA06F68B1A06FFDF73E
:10B830004CFC48B1A06FFDF72BFD202804D110204F
:10B84000C4F88C00032070BD204600F073FF206810
:10B85000806800F04000402823D1222E21D100BF73
:10B8600000BF2168083151E8001F21F04000216825
:10B87000083141E80002002AF3D100BFE06F68B14F
:10B88000E06FFDF722FC48B1E06FFDF701FD2028D5
:10B8900004D11020C4F88C000320D4E7204600F027
:10B8A000FBFE0020CFE710B504460CB9012010BD07
:10B8B0002420C4F884002068006820F0010021687A
:10B8C000086000202168086021684860216888605D
:10B8D000204600F05FFA00206C342062A061E06135
:10B8E00044F86C0900BF84F8800000BF00BFDEE7A9
:10B8F00010B504461F492068884214D100BF0020BB
:10B9000084F8800000BF0820216808621A48006897
:10B91000006840F01000184909680860642217495F
:10B92000154800F043FB16492068884207D100BF44
:10B93000002084F8800000BF0820216808621149B7
:10B940002068884214D100BF002084F8800000BF26
:10B950000820216808620C480068006840F0100068
:10B9600009490968086064220449074800F01EFB81
:10B9700010BD000000380140040900203C080020F0
:10B980000044004000480040F40900202DE9F04741
:10B9900004462068C569206806682068876840F604
:10B9A0000F0005EA0009B9F1000F0FD105F02000E2
:10B9B00060B106F0200010B907F0805030B1206F60
:10B9C00010B12046216F8847BDE8F087B9F1000F1C
:10B9D0007ED0CF48384018B9CE4830400028F7D044
:10B9E00005F0010058B106F4807040B101202168D3
:10B9F0000862D4F88C0040F00100C4F88C0005F017
:10BA0000020058B107F0010040B10220216808622D
:10BA1000D4F88C0040F00400C4F88C0005F0040059
:10BA200058B107F0010040B1042021680862D4F841
:10BA30008C0040F00200C4F88C0005F0080070B1E2
:10BA400006F0200010B9B248384040B10820216803
:10BA50000862D4F88C0040F00800C4F88C0005F4AB
:10BA6000006060B106F0806048B14FF4006021686A
:10BA70000862D4F88C0040F02000C4F88C00D4F8A0
:10BA80008C0000284ED005F0200050B106F02000B8
:10BA900010B907F0805020B1206F10B12046216FFF
:10BAA0008847D4F88CA02068806800F040004028C7
:10BAB00002D00AF0280070B3204600F0EDFD2068A7
:10BAC000806800F04000402821D100BF00BF00E0A6
:10BAD00029E02168083151E8001F21F04000216869
:10BAE000083141E80002002AF1D100BFE06F50B1F7
:10BAF0008948E16F8863E06FFDF722FB90B1E06F4A
:10BB0000816B88470EE02046FFF7F2FE0AE02046F0
:10BB1000FFF7EEFE06E0FFE72046FFF7E9FE002014
:10BB2000C4F88C0050E7E06E012870D105F01000D9
:10BB300000286CD006F010000028FAD010202168F0
:10BB400008622068806800F04000402860D1E06F03
:10BB5000006840681FFA80F8B8F1000F56D0B4F8BA
:10BB60005C00404552DDA4F85E80E06F006800682C
:10BB700000F02000F0BB00BF00BF216851E8001FAB
:10BB800021F48070226842E800010029F5D100BF4D
:10BB900000BF00BF2168083151E8001F21F00100FB
:10BBA0002168083141E80002002AF3D100BF00BF3C
:10BBB00000BF2168083151E8001F21F040002168D2
:10BBC000083141E80002002AF3D100BF2020C4F868
:10BBD00088000020E06600BF00BF216851E8001F18
:10BBE00021F01000226842E800010029F5D100BFD1
:10BBF000E06F00E001E0FDF768FAB4F85C00B4F82B
:10BC00005E20801A81B22046FFF7EDFDDCE641E0C0
:10BC100034F85C0F6188401A1FFA80F860885C3C39
:10BC2000B8B3B8F1000F34D000BF00BF216851E8AD
:10BC3000001F21F49070226842E800010029F5D12C
:10BC400000BF00BF00BF2168083151E8001F304A23
:10BC5000D24301EA02002168083141E80002002ACB
:10BC6000F1D100BF2020C4F888000020E0662067E2
:10BC700000BF00BF216851E8001F21F010002268BA
:10BC800042E800010029F5D100BF41462046FFF7F8
:10BC9000AAFD99E605F4801050B107F4800038B190
:10BCA0004FF48010216808622046FFF79FFD8BE665
:10BCB00005F0800058B106F0800010B907F40000CC
:10BCC00028B1606F10B12046616F88477CE605F0AF
:10BCD000400030B106F0400018B1204600F012FDDF
:10BCE00072E605F4000030B106F0804018B120463D
:10BCF000FFF77BFD68E605F0807030B106F000408C
:10BD000018B12046FFF770FD5EE600BF5CE600005C
:10BD1000010000102001000451C5000810B50446C0
:10BD20000CB9012010BDA06900B100E000BFD4F83B
:10BD3000840028B9002084F88000204600F062F8D2
:10BD40002420C4F884002068006820F001002168E5
:10BD50000860204600F00EFD012800D1E2E7A06A4D
:10BD600010B1204600F03DFB2068406820F4904070
:10BD7000216848602068806820F02A002168886077
:10BD80002068006840F0010021680860204600F04B
:10BD9000A4FBC7E710B5044615492068884210D1B6
:10BDA0001448006E20F4804012490866C0211248F1
:10BDB000FEF7ECF8E06FFDF70DFA2520FEF720FB0B
:10BDC00014E00E492068884210D10A48806D20F4A2
:10BDD0008020084988654FF440610948FEF7D6F88D
:10BDE000E06FFDF7F7F92720FEF70AFB10BD000012
:10BDF00000380140001002400004004800480040A4
:10BE00000008004810B598B00446142113A8FCF7A8
:10BE100062FB442102A8FCF75EFB5C492068884273
:10BE200056D1012002900020039002A8FEF706FCE4
:10BE300008B1FCF7CDFD00BF5548006E40F48040CE
:10BE4000534908660846006E00F48040019000BF28
:10BE500000BF00BF0846C06C40F00200C86408463E
:10BE6000C06C00F00200019000BF00BFC020139022
:10BE7000022014900020159016900720179013A907
:10BE80004448FEF719F944484449086018204860BE
:10BE9000002142488160C16080210161002141612F
:10BEA00081612021C16100210162FDF773FA08B1AF
:10BEB000FCF78EFD00BF3948E067846200BF0022B6
:10BEC00011462520FEF7D2FA2520FEF7BBFA5BE0EB
:10BED00033492068884257D1042002900020059001
:10BEE00002A8FEF7ABFB08B1FCF772FD00BF2848C3
:10BEF000806D40F48020264988650846806D00F4F6
:10BF00008020019000BF00BF00BF0846C06C40F019
:10BF10000400C8640846C06C00F00400019000BF33
:10BF200000BF4FF440601390022014900020159041
:10BF300016900720179013A91A48FEF7BDF8164867
:10BF40001438194908601C20486000211648816097
:10BF5000C160802101610021416181612021C161B5
:10BF600000210162FDF716FA08B1FCF731FD00BFB0
:10BF70000D48E067846200BF002211462720FEF7CB
:10BF800075FA2720FEF75EFA18B010BD00380140A0
:10BF900000100240000400483000024094090020D4
:10BFA0000048004000080048840A002070B504469C
:10BFB0000D461646D4F8880020282CD105B10EB9BC
:10BFC000012070BD00BF94F88000012801D102203B
:10BFD000F7E7012084F8800000BF0020E0660F49E9
:10BFE0002068884211D02068406800F4000060B1E9
:10BFF00000BF00BF216851E8001F41F08060226847
:10C0000042E800010029F5D100BF3246294620460A
:10C0100000F072FDD5E70220D3E700000080004069
:10C02000704770472DE9F84F04460E46174699466B
:10C03000D4F88400202862D106B117B90120BDE8E8
:10C04000F88F00BF94F88000012801D10220F6E7A4
:10C05000012084F8800000BF00205434A063212018
:10C060002063FEF71DF9824627806780543CA06854
:10C07000B0F5805F04D1206910B90025B04602E018
:10C0800035464FF0000800BF002084F8800000BF54
:10C0900021E05346002280212046CDF8009000F098
:10C0A00095FD08B10320CAE745B9B8F80000C0F310
:10C0B00008002168886208F1020803E028782168F6
:10C0C00088626D1CB4F85600002804DDB4F85600F0
:10C0D000401EA4F85600B4F856000028D9D15346A3
:10C0E000002240212046CDF8009000F06FFD08B1FD
:10C0F0000320A4E72020C4F8840000209FE702204A
:10C100009DE7704700BFFEE70146886800F01F000A
:10C11000704701468868C0F3C000704701468868D0
:10C12000C0F3800070470146C86800F4406008B959
:10C13000012070470020FCE700BFFEE700BFFEE7DC
:10C140007047000070B5164DED6805F00304144DFE
:10C15000ED68C5F303156B1C022C0CD0032C09D120
:10C16000104DB5FBF3F50E4EF668C6F3062605FB3B
:10C1700006F10AE000BF0C4DB5FBF3F5084EF6687A
:10C18000C6F3062605FB06F100BF00BF044DED68AF
:10C19000C5F341656D1C6A00B1FBF2F070BD000093
:10C1A0000010024000127A000024F400004870479A
:10C1B00028050020704700000048704764050020F3
:10C1C00010B5FEF7B3F810BD00B593B0382105A83F
:10C1D000FCF781F914216846FCF77DF90020FEF791
:10C1E00097F9012005900004069002200C9003218D
:10C1F0000D9102210E9155210F9102211091119163
:10C20000129105A8FEF75AFD08B1FCF7E1FB0F20DB
:10C2100000900320019000200290039004900421DC
:10C220006846FEF7C3FB08B1FCF7D2FB13B000BDB4
:10C230000348006840F4700001490860704700003E
:10C2400088ED00E010B51448FFF7A9F91348D0E9CC
:10C250000010491C40F10000104AC2E90010012200
:10C2600000230E4903C9FCF77AF800214A404B40ED
:10C270001A4302D101200A4908700A220023074903
:10C2800003C9FCF76CF800214A404B401A4302D125
:10C2900001200449087010BDF00700208003002031
:10C2A000780300207903002010B50268264B9842DD
:10C2B0000BD0B0F1804F08D0244B984205D0244BCE
:10C2C000984202D0234B984203D122F070024B686F
:10C2D0001A431D4B984214D0B0F1804F11D01B4B24
:10C2E00098420ED01A4B98420BD01A4B984208D065
:10C2F000194B984205D0194B984202D0184B9842DE
:10C3000003D122F44072CB681A4322F080034C69B7
:10C3100043EA040202608B68C3620B6883620A4BC3
:10C3200098420BD00B4B984208D00B4B984205D04B
:10C330000A4B984202D00A4B984201D10B69036321
:10C340000123436110BD0000002C014000040040A7
:10C35000000800400034014000400140004401401A
:10C360000048014030B50C46816821F47F4142EA23
:10C37000032525432943816030BD00000A468168BA
:10C38000034B194042F007031943816070470000D6
:10C390008FFFCFFF30B50B461446026A056A25F0C1
:10C3A00001050562816921F0F00141EA041122F0E2
:10C3B0000A021A438161026230BD30B50B46144651
:10C3C000056A25F0100505628169026A21F4704151
:10C3D00041EA043122F0A00242EA031281610262C2
:10C3E00030BD90F8281001F0010139B101684968A9
:10C3F00021F40031C26A11430268516090F828109C
:10C4000001F00201022907D10168496821F4803155
:10C41000026B11430268516090F8281001F004018A
:10C42000042907D10168496821F48021426B114336
:10C430000268516090F8281001F00801082907D11E
:10C440000168496821F40041826B11430268516020
:10C4500090F8281001F01001102907D101688968AF
:10C4600021F48051C26B11430268916090F828104A
:10C4700001F02001202907D10168896821F40051C9
:10C48000026C11430268916090F8281001F040019D
:10C49000402913D10168496821F48011426C11438D
:10C4A00002685160416CB1F5801F07D1016849688D
:10C4B00021F4C001826C11430268516090F8281089
:10C4C00001F08001802907D10168496821F4002129
:10C4D000C26C114302685160704738B504460020B1
:10C4E000C4F88C00FDF7DCFE05462068006800F00B
:10C4F000080008280CD16FF07E402B4600224FF434
:10C5000000110090204600F061FB08B1032038BD07
:10C510002068006800F0040004280CD16FF07E4011
:10C520002B4600224FF480010090204600F04EFB85
:10C5300008B10320EBE72020C4F88400C4F8880089
:10C540000020E06600BF84F8800000BF00BFDEE787
:10C5500070B50546AC6A0020A4F85E00A4F8560049
:10C560002046FFF7C5F970BD2DE9F0410546AC6ADC
:10C57000D4F88460D4F888702068806800F0800067
:10C58000802807D1212E05D10020A4F8560020468E
:10C5900000F0D0F82068806800F04000402807D103
:10C5A000222F05D10020A4F85E00204600F074F888
:10C5B000D4F88C0040F01000C4F88C002046FFF73F
:10C5C00097F9BDE8F08170B50546AC6A2868006847
:10C5D00000F02000E0BB0020A4F85E0000BF00BF18
:10C5E000216851E8001F21F48070226842E80001B0
:10C5F0000029F5D100BF00BF00BF2168083151E814
:10C60000001F21F001002168083141E80002002AE2
:10C61000F3D100BF00BF00BF2168083151E8001FFF
:10C6200021F040002168083141E80002002AF3D1DE
:10C6300000BF2020C4F88800E06E01280ED100BFA2
:10C6400000BF216851E8001F21F01000226800E0BF
:10C6500004E042E800010029F3D100BFE06E0128A8
:10C6600005D1B4F85C102046FFF7BDF802E0204683
:10C67000FFF7D6FC70BD70B50546AC6AE06E0128C8
:10C6800006D1B4F85C0041082046FFF7ACF802E0A0
:10C690002046FFF7C6FC70BD00BF00BF026852E82D
:10C6A000002F22F49071036843E80012002AF5D1AC
:10C6B00000BF00BF00BF0268083252E8002F104BD5
:10C6C00002EA03010268083242E80013002BF2D1AB
:10C6D00000BFC16E01290CD100BF00BF026852E843
:10C6E000002F22F01001036843E80012002AF5D160
:10C6F00000BF2021C0F888100021C1660167704783
:10C70000FEFFFFEF10B5044600BF00BF216851E8EF
:10C71000001F21F04000226842E800010029F5D105
:10C7200000BF2020C4F88400002060672046FFF787
:10C73000E8FC10BD00BF00BF026852E8002F22F0E5
:10C74000C001036843E80012002AF5D100BF00BF12
:10C7500000BF0268083252E8002F22F4000102688C
:10C76000083242E80013002BF3D100BF2021C0F8AB
:10C77000841070472DE9FE4F044600200290D449F2
:10C780002068884200D100E000BF2169A06808430A
:10C7900061690843E16940EA010820680068CD4901
:10C7A000084040EA0800216808602068406820F4DA
:10C7B0004050E168084321684860D4F81880C449B3
:10C7C0002068884202D0206A40EA08082068806811
:10C7D000C149084040EA0800216888602068C06AB2
:10C7E00020F00F00616A08432168C86200BFBB499E
:10C7F0002068884216D1BA48006800F0030030B1C2
:10C80000012808D0022804D0032808D105E001251A
:10C8100007E0022505E0042503E0082501E01025D6
:10C8200000BF6FE0AF492068884216D1AC4800686D
:10C8300000F00C0030B1042808D0082804D00C28DF
:10C8400008D105E0002507E0022505E0042503E006
:10C85000082501E0102500BF54E0A3492068884264
:10C8600016D19F48006800F0300030B1102808D081
:10C87000202804D0302808D105E0002507E0022553
:10C8800005E0042503E0082501E0102500BF39E09C
:10C8900096492068884216D19148006800F0C0008F
:10C8A00030B1402808D0802804D0C02808D105E045
:10C8B000002507E0022505E0042503E0082501E046
:10C8C000102500BF1EE082492068884219D18448A3
:10C8D000006800F4406048B1B0F5806F0AD0B0F550
:10C8E000006F05D0B0F5406F08D105E0002507E0E6
:10C8F000022505E0042503E0082501E0102500BF1E
:10C9000000E0102500BF72492068884259D135B136
:10C91000022D08D0042D08D0082D0DD109E0FEF716
:10C920005DF906460CE0724E0AE0FEF77BF906461A
:10C9300006E04FF4004603E000260120029000BF0D
:10C9400000BF002E10D06B49606A31F81000B6FBB2
:10C95000F0F9606800EB4000484503D860680003C8
:10C96000484502D201200290A6E06249606A31F88F
:10C9700010C06246002330461946FBF7F0FC4FF426
:10C98000807C0022A0FB0C3B01FB0CB100FB0211E0
:10C990006068400818185141CDE90001D4F804C07E
:10C9A00062460023FBF7DBFC0746B7F5407F05D363
:10C9B000B7F5801F02D22068C7607DE00120029099
:10C9C0007AE0E069B0F5004F3FD1092D17D2DFE8DA
:10C9D00005F005090D160F1616161300FEF7FEF8E2
:10C9E000064610E0FEF70CF906460CE0404E0AE061
:10C9F000FEF718F9064606E04FF4004603E000266D
:10CA00000120029000BF00BF86B33A49606A31F846
:10CA10001000B6FBF0F04000616800EB5100B0FB85
:10CA2000F1F7102F0ED3B7F5803F0BD24FF6F07011
:10CA300007EA000AC7F342004AEA000A2068C0F881
:10CA40000CA039E00120029036E0092D18D2DFE871
:10CA500005F005090E17101717171400FEF7BEF89A
:10CA6000064611E0FEF7CCF806460DE024E0204E25
:10CA70000AE0FEF7D7F8064606E04FF4004603E06A
:10CA800000260120029000BF00BFAEB11949606AC4
:10CA900031F81000B6FBF0F0616800EB5100B0FB1C
:10CAA000F1F7102F06D3B7F5803F03D2B8B2216853
:10CAB000C86001E0012002900120A4F86A00A4F8F7
:10CAC00068000020206760670298BDE8FE8F0000C4
:10CAD00000800040F369FFCFFFF4FF1100380140F0
:10CAE000881002400044004000480040004C0040D4
:10CAF0000024F400BA60010870B504460E461546DD
:10CB000044F8586FA5800020606322202063606A8B
:10CB1000583C08B32A48E16FC8622A48E16F0863AD
:10CB20002948E16F48630020E16F8863236803F1BF
:10CB300024012B46A26DE06FFCF794FC60B110203D
:10CB4000C4F88C0000BF002084F8800000BF2020C3
:10CB5000C4F88800012070BD00BF002084F8800068
:10CB600000BF206960B100BF00BF216851E8001F0D
:10CB700041F48070226842E800010029F5D100BF2D
:10CB800000BF00BF2168083151E8001F41F00100DB
:10CB90002168083141E80002002AF3D100BF00BF3C
:10CBA00000BF2168083151E8001F41F040002168B2
:10CBB000083141E80002002AF3D100BF0020CAE793
:10CBC000C7C5000877C6000869C500082DE9F0410F
:10CBD00004460D4617469846069E6AE0701C0028DB
:10CBE00067D0FDF75DFBA0EB0800B04200D846BB64
:10CBF00000BF00BF216851E8001F21F4D0702268F7
:10CC000042E800010029F5D100BF00BF00BF216844
:10CC1000083151E8001F21F001002168083141E886
:10CC20000002002AF3D100BF2020C4F88400C4F819
:10CC3000880000BF002084F8800000BF0320BDE80A
:10CC4000F0812068006800F0040088B32068C069A3
:10CC5000C0F3C02060B34FF400602168086200BFD9
:10CC600000BF216851E8001F21F4D070226842E81B
:10CC700000010029F5D100BF00BF00BF21680831C5
:10CC800051E8001F21F001002168083141E800024D
:10CC9000002AF3D100BF202044F8840F6060A06018
:10CCA000843C00BF002084F8800000BF0320C6E75A
:10CCB000FFE72068C0692840A84201D1012000E0B8
:10CCC0000020B8428AD00020B9E7000010B51A4809
:10CCD000FEF75CFE18480068C069C0F30014ECB1B0
:10CCE00010201549096808621348FEF780FD1348B3
:10CCF00000684068C0F16400114908600846006897
:10CD000030B10846008881B20E480F4A1268904739
:10CD100064220C490848FFF749F90BE01020064946
:10CD2000096808620448FEF762FD6422054902486A
:10CD3000FFF73CF910BD0000040900209409002011
:10CD40008C0300203C0800208803002070B51448A4
:10CD5000FEF71CFE12480068C069C0F300148CB1D5
:10CD600010200F49096808620D48FEF740FD0D4884
:10CD700000684068C0F1640564220B490848FFF769
:10CD800015F90BE010200649096808620448FEF70F
:10CD90002EFD642204490248FFF708F970BD000027
:10CDA000F4090020840A0020A008002000BFFEE74C
:10CDB00003B401984100009850EAC12018BF042034
:10CDC0004A0D18BF40F0010040F2FF72B2EB515F14
:10CDD00008BF40F00200012808BF052002B07047DC
:10CDE0000146C80F7047000002480068C0F30220E7
:10CDF000704700000CED00E010B5002804DB0A07C6
:10CE0000130E054A135406E00A07140E034A00F0F5
:10CE10000F031B1FD45410BD00E400E018ED00E028
:10CE200008B500BF1948806C40F0040017498864B9
:10CE30000846806C00F00400009000BF00BF00BFF7
:10CE40000846806C40F0010088640846806C00F061
:10CE50000100009000BF00BF002211460B20FDF72B
:10CE600005FB0B20FDF7EEFA002211460C20FDF722
:10CE7000FDFA0C20FDF7E6FA002211460D20FDF721
:10CE8000F5FA0D20FDF7DEFA08BD000000100240A3
:10CE900038B50446344804603448354908600020F9
:10CEA00048604FF44071324881600021C1600174D4
:10CEB000417481740A214161042181610C21C161A5
:10CEC0000421016202214162042181620C21C162BC
:10CED000042101630221416300218163C163FCF7E6
:10CEE000E3FD08B1FBF774FD002022490860022031
:10CEF00088600120C86000204860086148611C48C3
:10CF0000FCF7ECFB08B1FBF763FD012003460222AE
:10CF1000114600901648FCF713FC08B1FBF758FDCA
:10CF20000120154908600020486088604FF44020C7
:10CF3000C860002008614FF480104861400088619B
:10CF40000020C86108620A480022C16AFCF716FC8A
:10CF50000748FCF725FC002201210548FCF7F8FAF8
:10CF60000348FCF701FF38BD700300200064004057
:10CF7000D80600203C0700207C07002000B587B0C1
:10CF8000142102A8FBF7A7FA00BF4748C06C40F085
:10CF900004004549C8640846C06C00F004000190D4
:10CFA00000BF00BF00BF0846C06C40F02000C8644E
:10CFB0000846C06C00F02000019000BF00BF00BF19
:10CFC0000846C06C40F00100C8640846C06C00F020
:10CFD0000100019000BF00BF00BF0846C06C40F0D8
:10CFE0000200C8640846C06C00F00200019000BF57
:10CFF00000BF4FF4E0500290012003900490002005
:10D00000059002A94FF09040FDF756F8012004F07A
:10D010009EF820200290012003900220049000201E
:10D02000059002A92148FDF747F8002220211F485A
:10D03000FDF730F94FF400400290012003900220E8
:10D0400004900020059002A94FF09040FDF734F8BD
:10D0500000224FF400414FF09040FDF71BF90022F1
:10D060004FF48041124800F025F800224FF480610F
:10D070000E4800F01FF8012211030C4800F01AF8C6
:10D080000122D102094800F015F800224FF4805126
:10D090000648FDF7FFF800224FF400610348FDF752
:10D0A000F9F807B000BD000000100240000400487D
:10D0B0000008004870B586B006460D461446142197
:10D0C00001A8FBF708FA00BF1B48C06C40F0040041
:10D0D0001949C8640846C06C00F00400009000BF05
:10D0E00000BF00BF0846C06C40F00200C86408469C
:10D0F000C06C00F00200009000BF00BF00BF0846F7
:10D10000C06C40F00100C8640846C06C00F001002B
:10D11000009000BF00BF0195029414B90120039054
:10D1200001E0022003900020049001A93046FCF7A2
:10D13000C3FF06B070BD00000010024010B50848E3
:10D14000084908600420486040F2DC510548C1608D
:10D150008160FDF7ABF808B1FBF73AFC10BD0000A9
:10D1600000300040E007002010B50248FDF7D6F877
:10D1700010BD0000E007002000B587B0002003903C
:10D180000490059006900090019002904FF080402E
:10D1900015490860A9204860002113488160C72113
:10D1A000C1600021016180218161FEF7B8F808B1FA
:10D1B000FBF70EFC4FF48050039003A90A48FEF7DA
:10D1C00053F908B1FBF704FC002000900290694677
:10D1D0000548FEF747F808B1FBF7FAFB0248FEF7EF
:10D1E000F5F807B000BD0000F007002070B5044658
:10D1F0000D462D48056024B94FF416502B49486060
:10D2000026E0012C04D14FF49640284948601FE0E5
:10D21000022C04D14FF416402449486018E0032C36
:10D2200004D14FF461402149486011E0042C04D13D
:10D230004FF4E1301D4948600AE0052C04D14FF459
:10D24000E1201A49486003E04FF4E1301749486093
:10D250001648FEF728FB0A20FCF766F91448134924
:10D260000860002111488160C16001610C214161A9
:10D2700000218161C1610162416200200B49886225
:10D280000846FEF74BFD08B1FBF7A2FB0748006814
:10D29000006840F0100005490968086064220549EB
:10D2A0000248FEF783FE70BD8803002004090020B9
:10D2B000003801403C08002010B51748FEF7F3FA8B
:10D2C0000A20FCF731F91548134908604FF4E130A2
:10D2D0004860002110488160C16001610C214161FA
:10D2E00000218161C1610162416200200A498862B6
:10D2F0000846FEF713FD08B1FBF76AFB0648006815
:10D30000006840F01000044909680860642204497C
:10D310000148FEF74BFE10BDF40900200048004014
:10D32000A00800200000000010B5B94A2DED020B46
:10D330002DED0C8B82B00F9921F000409FEDB6CB04
:10D3400090422CDBA0F140530E9AA3F17F631A4365
:10D350000FD0B349884202DC16D10E98A0B19DEDE2
:10D360000E0B02B0BDEC0C8B02B0BDE8104001F01A
:10D3700073BE0029C1BF9FEDAC0B02B0BDEC0C8B9E
:10D3800002B0C8BF10BD16E00120FBF74DF902B096
:10D39000BDEC0C8B02B0BDE8104001F071BEA44A98
:10D3A0009FEDA59B9FEDA6AB90425EDAA6499FED4F
:10D3B000A8CB814208DBB0EE4C0AF0EE6C0A02B05A
:10D3C000BDEC0C8B02B010BD9DED0E0B53EC102B81
:10D3D00051EC100B08F080FA41EC180B9E48062126
:10D3E000B0EE480AF0EE680A784401F009FD53EC0B
:10D3F000182B51EC100B08F06FFA41EC1B0B9748FF
:10D40000B0EE480AF0EE680A0421784401F0F8FC16
:10D4100053EC182B51EC100B08F05EFA53EC192B5F
:10D4200007F082FF41EC100B51EC1B0B53EC102B5F
:10D4300008F036F841EC100B53EC102B9DED0E0B61
:10D4400051EC100B08F048FA53EC1A2B08F078FB5B
:10D450009DED0E1B53EC112B08F072FB53EC1C2BB3
:10D4600008F06EFB41EC100BA9E79FED7D8B9FED63
:10D470007EBB9DED0E0B002953EC192B51EC100BCC
:10D4800052DA07F051FF53EC182B08F025FA41EC63
:10D49000180B77480621B0EE480AF0EE680A784487
:10D4A00001F0AEFC53EC182B51EC100B08F014FA01
:10D4B00041EC1D0B6F48B0EE480AF0EE680A0421FB
:10D4C000784401F09DFC53EC182B51EC100B08F044
:10D4D00003FA53EC192B07F027FF41EC190B51EC21
:10D4E000180B07F021FC41EC180B53EC192B51ECF5
:10D4F0001D0B07F0D5FF53EC182B08F0EDF953EC9A
:10D500001A2B08F0F5FB41EC100B51EC180B53EC07
:10D51000102B07F009FF53EC1B2B08F0DDF953EC3F
:10D520001C2B08F00DFB6DE008F00AFB53EC182BE8
:10D5300008F0D2F941EC180B07F0F6FB41EC1A0B9E
:10D5400000208DED00AB00909DED000B51EC1A0B0F
:10D5500053EC102B07F0E8FE9DED000B41EC1C0B8B
:10D5600053EC102B51EC100B08F0B6F953EC182BC0
:10D5700008F0E6FA53EC1C2B07F092FF41EC1C0B71
:10D580003D48B0EE480AF0EE680A0621784401F002
:10D5900037FC53EC182B51EC100B08F09DF941ECC3
:10D5A0001D0B3648B0EE480AF0EE680A04217844B4
:10D5B00001F026FC53EC182B51EC100B08F08CF901
:10D5C00053EC192B07F0B0FE41EC100B51EC1D0B86
:10D5D00053EC102B07F064FF53EC1A2B08F07CF986
:10D5E00053EC1C2B07F0A0FE41EC100B53EC102B5E
:10D5F0009DED000B51EC100B07F096FE53EC1B2B2E
:10D6000008F06AF941EC100BD9E6000000000000B8
:10D610000000F03F00000000182D4454FB21094099
:10D620000000F07F0000000000000000000000008B
:10D630000000E03F00000000000000000000F03F9C
:10D64000075C143326A6913C0000603C00000000FB
:10D65000182D4454FB21F93F048D0000128D000069
:10D66000000000000000E03F00000000000000405B
:10D670004E8C00005C8C0000608B00006E8B000004
:10D6800070B5C1482DED020B2DED0E8B82B0119DB2
:10D6900025F000449FEDBEDB9FEDBFEB84423EDBF7
:10D6A000A4F140511098A1F17F6108430FD0BC480C
:10D6B000844202DC28D1109830B39DED100B02B0EB
:10D6C000BDEC0E8B02B0BDE8704001F0C5BC9DED15
:10D6D000100B53EC1D2B51EC100B08F0FDF89DEDD9
:10D6E000100B41EC180B53EC1E2B51EC100B08F0F7
:10D6F000F3F853EC182B07F017FE41EC100B02B0B7
:10D70000BDEC0E8B02B070BD0120FAF78DFF02B0A8
:10D71000BDEC0E8B02B0BDE8704001F0B1BCA14879
:10D720009FEDA18B844256DA9DED100BB4F1795F29
:10D730000ADA51EC100BFFF73BFB042808BF01F09D
:10D74000BFFC9DED100BDAE753EC102B51EC100BE6
:10D7500008F0C2F841EC190B95480621B0EE490AD1
:10D76000F0EE690A784401F04BFB53EC192B51ECB5
:10D77000100B08F0B1F841EC1A0B8E48B0EE490AD4
:10D78000F0EE690A0421784401F03AFB53EC192BBE
:10D7900051EC100B08F0A0F853EC182B07F0C4FD67
:10D7A00041EC100B51EC1A0B53EC102B07F078FEE8
:10D7B000CDE900019DED000B53EC102B9DED100BFE
:10D7C00051EC100B08F088F89DED101B53EC112B59
:10D7D00007F0AAFDD2E09DED100B51EC100B02F00A
:10D7E000C1FB53EC182B08F0ABF99FED730BCDE99F
:10D7F000000153EC102B9DED000B51EC100B08F0C9
:10D800006BF841EC190B6E480621B0EE490AF0EEB8
:10D81000690A784401F0F4FA53EC192B51EC100B1F
:10D8200008F05AF841EC1B0B6648B0EE490AF0EEDE
:10D83000690A0421784401F0E3FA53EC192B51EC06
:10D84000100B08F049F853EC182B07F06DFD41EC74
:10D850001C0B51EC190B07F067FA41EC180B5A48F6
:10D860009FED5BABA04222DC53EC1C2B51EC1B0B5D
:10D8700007F016FECDE900019DED000B51EC180BF1
:10D8800053EC102B08F028F853EC182B07F04CFD44
:10D8900053EC1A2B08F020F853EC1D2B08F028FA53
:10D8A00053EC1E2B08F04CF941EC100B5FE08DEDB2
:10D8B000008B002000909DED000B51EC180B53ECF9
:10D8C000102B07F031FD9DED000B41EC1E0B53ECCE
:10D8D000102B51EC100B07F0FFFF53EC192B08F045
:10D8E0002FF953EC1E2B07F0DBFD41EC190B53EC29
:10D8F0001C2B51EC1B0B07F0D3FD41EC1B0B53EC25
:10D900001A2B51EC190B07F0E7FF53EC1D2B08F015
:10D9100017F941EC190B53EC1A2B51EC180B07F0CB
:10D92000DBFF53EC1B2B07F0D7FF53EC192B08F050
:10D93000DFF99DED000B41EC180B53EC1A2B51EC69
:10D94000100B07F0C9FF9FED249B53EC192B08F037
:10D95000F7F841EC100B51EC180B53EC102B08F0BE
:10D96000C7F953EC192B08F0EBF841EC100B002D24
:10D970003FF7C5AE51EC100B07F098FC41EC100BD3
:10D98000BDE60000000000000000F03F00000000C5
:10D99000075C143326A6913C182D4454FB21F93F13
:10D9A0000000F07F0000E03F000000000000F03FBA
:10D9B000D8890000E6890000000000000000E03F78
:10D9C0002A890000388900003333EF3F000000004F
:10D9D0000000000000000040182D4454FB21E93FE6
:10D9E00010B52F499FED2C1B2DED020B84B005982F
:10D9F00020F000408842D8BF9DED040B2DDD294961
:10DA0000884209D1049840B94FF00100FAF70CFEA2
:10DA100001F036FB06B010BD05DB9DED040B01F0F7
:10DA20001BFB06B010BD68469DED040B00F014FF13
:10DA300010F0030004BF9DED021B9DED000B0CD008
:10DA400001280ED09DED021B9DED000B022817D082
:10DA5000012001F051FA06B010BD01F019F906B02D
:10DA600010BD9DED021B9DED000B012001F044FA5D
:10DA700051EC100B07F01AFC06B041EC100B10BD76
:10DA800001F006F951EC100B07F010FC06B041EC68
:10DA9000100B10BD0000000000000000000000009E
:10DAA000FB21E93F0000F07F2DED020B019820F0F3
:10DAB000004001909DED000B02B070470000000097
:10DAC0002DE9F04D2DED040B2DED0E8B96B0DDE91B
:10DAD0002550279CDDF890A025F0004624F0004852
